:020000040800F2
:1000000010080020B501000829200008D51D0008AF
:100010002520000821030008BD2100080000000081
:100020000000000000000000000000001121000896
:1000300049030008000000002D20000815210008D9
:10004000CF010008CF010008CF010008CF01000850
:10005000CF010008CF010008CF010008CF01000840
:10006000CF010008CF010008CF01000825030008D8
:10007000CF010008CF010008310300083D0300084C
:10008000CF010008CF010008CF010008CF01000810
:10009000CF010008CF010008CF010008CF01000800
:1000A000CF010008CF010008CF010008CF010008F0
:1000B000B1210008CF010008CF010008CF010008DE
:1000C000CF010008CF010008CF010008CF010008D0
:1000D000CF010008CF010008CF010008CF010008C0
:1000E000CF010008CF010008CF01000800F002F89E
:1000F00000F050F814A696E8000CB244B344DA4578
:1001000001D100F047F8BAE80F000FA696E83000DA
:10011000A5EB040504EB0607AAEB0704A7F101070A
:100120004FEA15154FEA3414A4F10104AC4201D38F
:1001300000F030F813F0010F18BFFB1A43F0010371
:1001400000F001F8DBE718479C280000BC280000FD
:10015000103A24BF78C878C1FAD8520724BF30C8F3
:1001600030C144BF04680C60704700007047000055
:100170000023002400250026103A28BF78C1FBD8B0
:10018000520728BF30C148BF0B6070471FB51FBD65
:1001900010B510BD00F089F81146FFF7F7FF02F027
:1001A00037FB00F0A7F803B4FFF7F2FF03BC00F041
:1001B000AFF800000948804709480047FEE7FEE71E
:1001C000FEE7FEE7FEE7FEE7FEE7FEE7FEE7FEE707
:1001D00004480549054A064B70470000AD21000858
:1001E000ED0000081002002010080020100400207C
:1001F0001004002030B505460B462A4613F8014B83
:1002000012F8010B08B1A042F8D01CB1002802D0AE
:100210006D1CF1E7284630BD10B5431C02E010F814
:10022000011B71B18107FAD14FF0013202C88C1A5B
:100230008C4314EAC211F9D0C01A0A0603D0C01EBA
:1002400010BDC01A10BD0A0401D0801E10BD0902E5
:10025000FCD0401E10BD4FF0000200B5134694467E
:100260009646203922BFA0E80C50A0E80C50B1F10E
:100270002001BFF4F7AF090728BFA0E80C5048BF22
:100280000CC05DF804EB890028BF40F8042B08BFC0
:10029000704748BF20F8022B11F0804F18BF00F8BC
:1002A000012B7047704770477047754600F02CF877
:1002B000AE4605006946534620F00700854618B053
:1002C00020B5FFF785FFBDE820404FF000064FF056
:1002D00000074FF000084FF0000BAC46ACE8C00937
:1002E000ACE8C009ACE8C009ACE8C00921F00701DE
:1002F0008D46704710B50446AFF300802046BDE838
:100300001040FFF750BF0000004870471000002069
:1003100001491820ABBEFEE726000200704700002E
:10032000FEE7000040F2A000C2F2000000F09EB91B
:1003300040F2E400C2F2000000F098B940F2281048
:10034000C2F2000000F092B970470000EFF3108095
:1003500072B600BFFEE70000B0B581B00022009287
:1003600090F82420012A01D1022179E04A68012372
:10037000062A02EB820C80F8243005D8026802F1CC
:10038000340E6FF004020AE003680C2A87BF03F101
:100390002C0E6FF0400203F1300E6FF02202624427
:1003A000DEF800C01F230C6893402CEA030304FA14
:1003B00002F21A43CEF80020D1F800E002680EEBFA
:1003C0004E041023BEF1090F88BF1E3C88BF0C23CA
:1003D00052F803C007258968A5402CEA0505A1400D
:1003E0002943D1502EF001014FF0000C10294FF09D
:1003F000000133D1016842F20042C4F2010291428D
:1004000005D0816A41F020018162012126E09268D5
:10041000120222D48A68BEF1100F42F400028A60F0
:100420001BD140F20001C2F2000109684DF683625F
:10043000C4F21B32A1FB0212910C01EB81014900B5
:100440000091009949B100BF0099013900910099CC
:1004500000294FF00001F7D100E0002180F824C00E
:10046000084601B0B0BD0000002804BF012070475D
:10047000B0B50446806A30B90020E06284F82400F8
:10048000204600F0A1F820688168C90709D081687A
:1004900021F00101816000F0FBFA21688968C90739
:1004A00030D100200121A36AA26A31B313F01001F8
:1004B00023D141F2021122EA01010231A162E16974
:1004C000D4E9013241EA030C531EB3FA83F35D0908
:1004D0001346B2F5807F18BF2B02217D257B0129B1
:1004E0004CEA450E31D13DB3A56A45F02005A56221
:1004F000E56A45F00105E56227E042F01000A062E0
:100500000120B0BD054603E020688068C007C8D060
:1005100000F0BEFA401B0328F6D320688068C007AD
:10052000F2D0A06A002140F01000A062E06A40F022
:100530000100E0620120B6E7D4F818C04EF60005CD
:10054000CFF6FF7505EB4C352B432568B2F5807F60
:10055000696821F4694141EA03016960A9684FF2C1
:10056000FD73CFF6E17301EA030141EA0E01A960D0
:1005700001D0012A06D121690022CFF6F07202EBE8
:10058000015200E00022E96A21F470011143E9629E
:10059000A96840F6FE62CFF61F721140714507D17F
:1005A0000021E162A16A012262F30101A162B0BDF2
:1005B000A06A40F0100020F00200A062E06A40F063
:1005C0000100E0620120B0BD70B586B0044640F67F
:1005D0000000C4F20100216800F5E05200269142BB
:1005E0000596CDE90366029601D006B070BD41F2D2
:1005F0001801C4F202010A6842F400720A600A6833
:1006000002F400720192019A0A6842F004020A6040
:10061000096801F00401019101990421029103216B
:10062000039102A900F02EF940F2A0050820C2F2C1
:100630000005C4F202004FF48072C5E9000605F11E
:10064000100080214FF480634FF0200C80E80C10E4
:100650002846C5E90261EE6100F0BCF8002818BF29
:10066000FFF774FE25626C6206B070BD10B5D0E96C
:100670000FCE0168DCF800300A6823FA0EF35C073D
:1006800024D512F0040421D00A68920603D40A6823
:1006900022F004020A602F22C4F20202914240F2C8
:1006A0000402C4F202024FDD3023C4F20203994275
:1006B00062D04423C4F20203994260D05823C4F2AA
:1006C0000203994260D14FF4802365E09C0727D54F
:1006D00012F0020424D00A68920606D40A6822F0B6
:1006E0000A020A60012280F821202F22C4F20202AD
:1006F000914240F20402C4F2020231DD3023C4F21E
:10070000020399424ED04423C4F2020399424CD0D2
:100710005823C4F2020399424CD14FF4003351E004
:100720001B0756D512F0080208BF10BD0A6822F058
:100730000E020A60012101FA0EF2CCF80420816356
:1007400080F82110016B3FE00823C4F202039942B4
:1007500018D01C23C4F20203994215D140231BE098
:100760000823C4F20203994222D01C23C4F20203DC
:1007700099421FD1202325E04FF480630CE04FF411
:10078000804309E0042307E002F168044FF080632E
:10079000A14208BF4FF480031360C16AC9B1BDE82C
:1007A000104008474FF400730CE04FF4005309E089
:1007B000022307E002F168044FF00073A14208BF72
:1007C0004FF400131360816A0022002980F8202072
:1007D000E5D110BD014600284FF0010008BF704769
:1007E0002DE9F0470A684FF6F873CBF6FD7302EB7C
:1007F000030C4CF6CD43CCF6CC43ACFB033C6FF082
:100800000307002607EA9C07C4F2020601F10C0A5E
:10081000C1E90F670227D1E9013E9AE83004D1E926
:10082000069881F82170176843F6F076B7433B438A
:1008300043EA0E0323432B4343EA0A0343EA090333
:1008400043EA0803136000228A6381F8210081F8DB
:1008500020200020BDE8F04770470000B0B50446F6
:1008600000F016F9054640F20400C2F200000078DC
:10087000611C18BF044400BF00F00AF9401BA042ED
:10088000FAD3B0BD2DE9F04F82B00E68002E00F013
:10089000F68041F20042C4F20102042340F2004E0D
:1008A000904208BF03234FF6FF7CC4F2010E009371
:1008B00000240123C1F2100C4FF0000A4FF0000990
:1008C00043E0012704F00C030F229A402BEA0202B6
:1008D00007FA03F34FEA9A051A4346F825204E68B3
:1008E00040F20C45F202DEF8082054BF22EA08026A
:1008F00042EA0802C4F20105CEF808202A68B302D1
:1009000054BF22EA080242EA08022A60B303DEF872
:10091000042054BF22EA080242EA0802F303CEF898
:100920000420DEF800204FF0010354BF22EA080241
:1009300042EA0802CEF800200E680AF1010A36FAEF
:100940000AF204F1040400F09A8003FA0AFB16EAA2
:100950000B08F1D04E68664510DC122E50D8DFE847
:1009600006F0330A41454F4F4F4F4F4F4F4F4F4FB8
:100970004F4F4F484C00D1F80C9041E04FF6FF72BA
:10098000C1F2210296420FDC0022C1F2110296420E
:100990001AD00022C1F21202964215D00022C1F2F2
:1009A0002102964210D02BE00022C1F22202964290
:1009B0000AD00022C1F23102964205D00022C1F2D3
:1009C000320296421CD100BF8A6842B1012A14BF8C
:1009D000C0F814B0C0F810B04FF0080910E04FF0A4
:1009E00004090DE0CA6802F1080909E04FF00009A6
:1009F00006E0CA6802F1040902E0CA6802F10C09C3
:100A000022460646B8F5807F24BF203A0436376870
:100A10000F25954027EA050509FA02F22A433260BC
:100A2000CA79D2067FF588AF41F21803C4F20203F7
:100A30001A68AEF57E7642F001021A601A6802F07A
:100A400001020192019A2AF0030256F802B040F620
:100A50000002C4F2010290420FD040F60042C4F2FC
:100A6000010290423FF42DAF41F20002C4F20102B4
:100A7000009F904208BF022724E7002722E702B028
:100A8000BDE8F08F002A08BF09040161704700002B
:100A900040F20C20C2F200000068704740F20400EF
:100AA00040F20C21C2F20000C2F2000100780A6894
:100AB000104408607047000080B542F20000C4F2A4
:100AC0000200016841F010010160032000F08EF87F
:100AD0000F2000F005F800F02BF8002080BD00008A
:100AE000B0B540F20402C2F2000240F200011278F6
:100AF000C2F200014FF47A730968B3FBF2F20446C4
:100B0000B1FBF2F1084600F0F7FE0F2C4FF00105A3
:100B10000CD858B94FF0FF3021460022002500F0D4
:100B200039F840F20800C2F2000004602846B0BD67
:100B300082B041F21800C4F202000168022241F0C2
:100B400001010160016801F0010101910199416811
:100B500041F080514160406800F080500090009862
:100B60000420C4F20100016862F31A61016002B05E
:100B700070470000002848BF704700F01F010122A5
:100B800002FA01F14EF200124009CEF2000242F8E0
:100B90002010704710B54EF60C5CCEF2000CDCF85D
:100BA0000030C3F3022E8EF00704042C28BF042467
:100BB000BEF103034FF0FF3E0EFA04F438BF0023EA
:100BC000A14399400EFA03F39A43114300F16042A6
:100BD00000F00F03090102F56442043B634400285E
:100BE00048BF03F10C02117010BD00004EF60C510D
:100BF000CEF200010A684FF6FF031A4060F30A22A2
:100C000042F0806040F0FD70086070472DE9F041CF
:100C100082B00446007841F21C06C007C4F2020606
:100C20004AD030685FEAC00808D4306840F080508D
:100C30003060306800F080500190019847F2000762
:100C4000C4F200073868C00512D4386840F48070D8
:100C50003860FFF71DFF05463868C00508D4FFF768
:100C600017FF401B6428F7D9032002B0BDE8F081CC
:100C7000706810F4407012D0616801F440718842CD
:100C80000DD0706840F24042C4F24222012320F4A9
:100C9000407113600023C0071360716025D1706834
:100CA000616820F440700843B8F1000F706003D40D
:100CB000306820F0805030602068810707D556F8F2
:100CC000181CA26821F44041114346F8181CC006C4
:100CD00007D556F8180CE16820F48000084346F860
:100CE000180C002002B0BDE8F081FFF7D1FE0546E8
:100CF00041F2883770688007D1D4FFF7C9FE401BE6
:100D0000B8424FF00300F5D9ECE70000002804BF1B
:100D1000012070472DE9F04381B042F20008C4F28F
:100D200002080446D8F800000D4600F0070088428B
:100D30000CD2D8F8000020F007002843C8F80000C3
:100D4000D8F8000000F00700A8426BD1206841F2FB
:100D500004098107C4F2020917D5410705D5D9F85E
:100D6000001041F4E061C9F80010010705D5D9F879
:100D7000001041F46051C9F80010D9F80010A268C1
:100D800021F0F0011143C9F80010C00741D1D8F893
:100D9000000000F00700A8420CD9D8F8000020F0AD
:100DA00007002843C8F80000D8F8000000F007004A
:100DB000A84237D12068410707D5D9F80010E2686A
:100DC00021F4E0611143C9F80010000708D5D9F8F3
:100DD0000000216920F4605040EAC100C9F8000019
:100DE000D9F8002002F00C00082841F20020C0F2DF
:100DF0007A004DD142F6D213C2F38341C0F600030C
:100E0000595CD20338D440F60010C0F23D0048438C
:100E10003EE06068022809D0012828D159F8041C56
:100E2000890307D4012001B0BDE8F08359F8041C00
:100E30008901F7D5D9F8001021F003010843C9F85A
:100E40000000FFF725FE064641F28837D9F800007A
:100E5000616800F00C00B0EB810F98D0FFF718FE2E
:100E6000801BB842F2D9032001B0BDE8F08359F8E5
:100E7000041C8907D6D5DDE7D9F8002042F6C01357
:100E8000C2F34042C0F600039A5C4843B0FBF2F064
:100E9000D9F8001042F6B012C1F30311C0F60002F7
:100EA000515C40F2000220FA01F140F20800C2F267
:100EB00000000068C2F200021160FFF711FE00207E
:100EC00001B0BDE8F0830000002804BF0120704796
:100ED0002DE9F04182B00446007841F20006C007D7
:100EE000C4F2020649D0706800F00C00042809D151
:100EF0003068800341D5606800283ED1012002B0EF
:100F0000BDE8F081706800F00C00082802D170681C
:100F1000C003EDD465682DB1B5F5A02F0AD0B5F5A5
:100F2000803F0BD0306820F480303060306820F48F
:100F3000802006E0306840F480203060306840F463
:100F400080303060FFF7A4FD002D054612D000BFB1
:100F50003068800311D4FFF79BFD401B6428F7D94C
:100F600018E100BFFFF794FD401B64284FF0030019
:100F700000F2D88030688003F4D42078800719D537
:100F8000706810F00C0F07D0706800F00C00082893
:100F900027D17068C00324D43068800703D5206946
:100FA000012840F0A6803068616920F0F80040EA2E
:100FB000C1003060207800074ED5A06938B300200A
:100FC000C4F242200121C0F88014FFF761FD0546FC
:100FD000706A80072DD4FFF75BFD401B0228F7D90C
:100FE000D8E02069002840F20000C4F2422000F05E
:100FF000A88001210160FFF74BFD0546306880079E
:10100000D1D4FFF745FD401B0228F7D9C2E00020EC
:10101000C4F242200021C0F88014FFF739FD0546D4
:10102000706A800718D5FFF733FD401B0228F7D9F7
:10103000B0E040F20000C2F20000006844F6D35174
:10104000C1F26201A0FB0101480A019000BF0198B2
:10105000411E00280191F9D12078400717D4E56995
:101060008DB1706800F00C00082846D1012D40D0E9
:101070007068216A00F480328A423AD1616A00F4D1
:101080007010884235D1002002B0BDE8F081F069CF
:101090005FEAC00808D4F06940F08050F061F06960
:1010A00000F080500090009847F20007C4F200075B
:1010B0003868C0050FD4386840F480703860FFF796
:1010C000E7FC05463868C00505D4FFF7E1FC401B86
:1010D0006428F7D95EE0E5681DB1052D42D0012DE9
:1010E00044D0306A20F001003062306A20F0040001
:1010F0003FE0012002B0BDE8F0810027C4F24227A2
:1011000000203866FFF7C4FC022D05460ED100BF53
:101110003068800155D5FFF7BBFC401B02284FF01B
:101120000300F5D902B0BDE8F08100BF306880014E
:10113000A9D5FFF7ADFC401B02284FF00300F5D9FD
:10114000F0E700210160FFF7A3FC05463068800747
:101150007FF530AFFFF79CFC401B02284FF00300E7
:10116000F4D9DFE7306A40F004003062306A40F0C2
:1011700001003062FFF78CFC002D054641F28837F4
:1011800013D000BF306A800712D4FFF781FC401BE8
:10119000B842F7D9032002B0BDE8F081FFF778FC30
:1011A000401BB8424FF00300BCD8306A8007F5D42A
:1011B000B8F1000F3FF553AFF06920F08050F061B7
:1011C0004DE7206AB0F5803F05D17168A26821F42F
:1011D0000031114371607168626A21F47411114326
:1011E0000843706001203866FFF752FC044600BFD8
:1011F000306880013FF547AFFFF74AFC001B02282B
:101200004FF00300F4D98DE770B538B10446406A59
:1012100030B10020206104F1140007E0012070BD0E
:101220006068B0F5827F03D004F11C0000210160EA
:101230000026A66294F8510020B9204684F8506038
:1012400000F038F8022084F8510094E8071001F407
:101250008271036802F4044223F0400303602369AF
:1012600011440CF40062114403F00202636911445A
:1012700003F00102A369E569114403F4007211440B
:1012800005F03802256A114405F08002A56A114371
:1012900005F4005211430160042101EA1341416049
:1012A000C16921F40061C1610120666584F85100C3
:1012B000304670BD2DE9F04186B040F60045044649
:1012C000C4F201050068A5F554410027884205973E
:1012D000CDE90377029702D006B0BDE8F08141F274
:1012E0001800C4F20200416802AE41F4804141603E
:1012F000416840F2440801F480410191019901687C
:10130000C4F2020841F0080101600068314600F0B3
:101310000800019001984FF42040029002200390B1
:10132000032005902846FFF7ADFA4FF48040CDE941
:101330000207284631460497FFF7A4FA40F2281521
:1013400008F11400C2F200051021802685E8830010
:101350002846C5E90367C5E90577EF61FFF73AFA63
:10136000002818BFFEF7F2FFA5646C6240F2E405A6
:10137000C2F200050020C5E90080C5E90206C5E902
:101380000400C5E906002846FFF724FA002818BF24
:10139000FEF7DCFFE5646C6206B0BDE8F08100009A
:1013A0002DE9F04182B0044690F85100012818D18F
:1013B00060681D4617460E46B0F5827F01D1A068D1
:1013C00098B1FFF765FB8046002E4FF0010018BF73
:1013D000002F02D102B0BDE8F08194F8500001283E
:1013E00010D1022002B0BDE8F081042084F8510041
:1013F0002046314632463B46009500F071F902B076
:10140000BDE8F081012084F85000042084F85100E8
:1014100000206065A663A787E7872063A086E08633
:10142000A1682064B1F5004F606408D120680168AC
:1014300021F040010160016821F4804101602068D1
:101440000168490603D4016841F040010160E16888
:10145000E08FD1B1E8B36E1C0AE000BFC068A16B99
:1014600021F8020BA163E08F0138E087E08F80B3A1
:1014700020688168C907F1D1FFF70AFB002EF5D07B
:10148000A0EB0800A842F1D319E010B36E1C0AE0EB
:10149000007BA16B0870A06B0130A063E08F013866
:1014A000E087E08FA8B120688168C907F0D1FFF715
:1014B000EFFA002EF5D0A0EB0800A842F1D30120EE
:1014C00084F85100002084F85000032002B0BDE8E9
:1014D000F0816068B0F5827F11D1A068B0F5004F4F
:1014E00002D0B0F5806F0AD12168B0F5806F0A682C
:1014F00022F040020A6002D12046012101E020468C
:10150000802100222B46CDF8008000F091FD28B10B
:10151000606D40F02000606520206065012084F847
:101520005100002084F85000606D002818BF012091
:1015300002B0BDE8F08100002DE9F04182B01D4607
:1015400016460F460446FFF7A3FA94F851100129F6
:101550000DD18046002F4FF0010018BF002E02D1A0
:1015600002B0BDE8F08194F85000012803D10220B8
:1015700002B0BDE8F081012084F85000032084F817
:101580005100002060652763A686E686A063A087D9
:10159000E087A168C4E91000B1F5004F08D12068C8
:1015A000016821F040010160016841F4804101605F
:1015B00020680168490603D4016841F040010160D8
:1015C0006168731EE268B1FA81F1B3FA83F34909E5
:1015D0005B09B2F5006F41EA030124D131B137F85C
:1015E000021BC1602763E08E0138E086E08E002890
:1015F00047D06E1C0AE000BF216B31F8022BC2609D
:101600002163E08E0138E086E08ED0B320688168E7
:101610008907F1D4FFF73CFA002EF5D0A0EB0800C3
:10162000A842F1D323E039B139780173206B01303E
:101630002063E08E0138E086E08E10B36E1C0AE075
:10164000216B09780173206B01302063E08E013833
:10165000E086E08EA8B1206881688907F0D4FFF7A2
:1016600017FA002EF5D0A0EB0800A842F1D3012014
:1016700084F85100002084F85000032002B0BDE837
:10168000F0812046022101222B46CDF8008000F097
:10169000CFFC40B92046802100222B46CDF80080A7
:1016A00000F0C6FC28B1606D40F02000606520208D
:1016B0006065A06838B9002001902068C168019178
:1016C000806801900198012084F85100002084F87E
:1016D0005000606D002818BF012002B0BDE8F08105
:1016E0002DE9F04383B01E4615460F460446FFF72A
:1016F000CFF994F851108146012908D1002F4FF0FD
:10170000010018BF002D0ED103B0BDE8F083606862
:10171000B0F5827F0DD104294FF00200F4D1A16809
:101720000029EBD0F0E7002EEED094F8500001280D
:1017300003D1022003B0BDE8F083012084F85000FB
:1017400094F85100002104281CBF052084F85100A2
:101750006165A563E687A6872763E6862068A68677
:10176000216461640168490603D4016841F04001C5
:1017700001606168731EE268B1FA81F1B3FA83F324
:10178000DDF8288049095B09B2F5006F41EA0301E1
:1017900037D131B137F8021BC1602763E08E0138C1
:1017A000E086012608F10105E08E10B9E08F0028DF
:1017B0006CD02068816889070CD5E18E51B1012E6B
:1017C00008D1216B002631F8022BC2602163E18E23
:1017D0000139E1868168C9070AD0E18F41B1C0684B
:1017E000A16B012621F8020BA163E08F0138E0878D
:1017F000FFF74EF9002DD7D0A0EB09004045D3D319
:101800003AE039B139780173206B01302063E08E02
:101810000138E086012608F1010500BFE08E08B915
:10182000E08F98B32068816889070DD5E18E59B1A2
:10183000012E09D1216B002609780173206B01303C
:101840002063E08E0138E08620688168C9070BD0EC
:10185000E18F49B1C068A16B01260870A06B01300F
:10186000A063E08F0138E087FFF712F9002DD5D093
:10187000A0EB09004045D1D3012084F8510000209D
:1018800084F85000032003B0BDE8F0832046022115
:1018900001224346CDF8009000F0CAFB40B9204633
:1018A000802100224346CDF8009000F0C1FB60B1DA
:1018B000606D40F02000606520206065002084F8A5
:1018C0005000012003B0BDE8F083A06838B90020C3
:1018D00002902068C16802918068029002980120FD
:1018E00084F85100002084F85000606D002818BF73
:1018F000012003B0BDE8F083411E0020B0EB116F62
:101900001CBF012070474EF21002CEF2000251605F
:101910004EF62351CEF20001F0230B7007219060A8
:1019200011607047704700007047000090F83C203D
:10193000012A4FF0020234D010B5012380F83C3068
:1019400080F83D200268D2F804E0D2F808C00C68A4
:101950002EF07003234340F2FF74C4F20004A2424D
:10196000536005DCB2F1804F0ED040F2004307E037
:1019700042F60043C4F201039A4205D040F6000348
:10198000C4F200039A4204D149682CF08003194341
:1019900091600121002280F83D1080F83C20BDE8D4
:1019A0001040104670470000002804BF0120704717
:1019B00010B5044690F83D0028B9002084F83C009A
:1019C000204600F065F8022084F83D00206840F2CF
:1019D000FF730268C4F2000342F6004C9842C4F25E
:1019E000010C05DCB0F1804F0AD040F2004103E069
:1019F000604505D040F60001C4F20001884203D1E1
:101A0000A16822F070020A43984205DCB0F1804FD1
:101A10000AD040F2004103E0604505D040F60001E5
:101A2000C4F20001884203D1216922F440720A43C2
:101A3000A36922F08001D4F804E0E268194360450C
:101A40000160C262C0F828E002D16169CCF83010B0
:101A5000012141610269D20703D0026922F001022B
:101A60000261002084F8461084F83E1084F83F108C
:101A700084F8401084F8411084F8421084F8431030
:101A800084F8441084F8451084F83D1010BD00001F
:101A90000068B0F1804F18BF704780B582B041F246
:101AA0001C00C4F202000168002241F00101016043
:101AB0000068002100F00100019001981C20FFF750
:101AC00069F81C2002B0BDE88040FFF753B8000061
:101AD00090F83C20012A4FF0020200F0C68080B549
:101AE000012380F83C3080F83D20D0F800C04FF64C
:101AF0007772DCF8083023EA0202CCF808200B6881
:101B00004F2B28DC1F2B44DD202B45D0302B43D01E
:101B1000402B40F0AC80D1F804E0C968DCF82030FC
:101B2000DCF8202022F00102CCF82020DCF818207C
:101B300022F0F00242EA011123F00A0242EA0E0208
:101B4000CCF81810CCF82020DCF8081041F0470140
:101B500021F030017EE06F2B26DDB3F5005F47D02A
:101B6000B3F5805F78D0702B40F08180D1E901E33C
:101B7000C968DCF8082043EA0E0322F47F4243EAF6
:101B800001211143CCF80810DCF8081041F077016E
:101B900060E00BB1102B6AD1DCF8081021F0700165
:101BA000194341F0070155E0502B34D0602B5ED132
:101BB000D1F804E0C968DCF82030DCF8202022F0FD
:101BC0001002CCF82020DCF8182022F4704242EAFF
:101BD000013123F0A00242EA0E12CCF81810CCF822
:101BE0002020DCF8081041F0670121F0100131E0FD
:101BF000D1E901E3C968DCF8082043EA0E0322F4C6
:101C00007F4243EA01211143CCF80810DCF80810A8
:101C100041F480411EE0D1F804E0C968DCF82030CE
:101C2000DCF8202022F00102CCF82020DCF818207B
:101C300022F0F00242EA011123F00A0242EA0E0207
:101C4000CCF81810CCF82020DCF8081041F057012F
:101C500021F02001CCF808100022012180F83D106D
:101C6000002180F83C10BDE88040104670470122FA
:101C7000F3E700007047000070B504460068C568CF
:101C80000669B10716D515F0020113D06FF00201F5
:101C90000161012121778069800703D02046FFF789
:101CA000E9FF05E0204600F08DF8204600F08CF8B2
:101CB00000202077700718D515F0040015D0206893
:101CC0006FF00401016102212177806910F4407FE7
:101CD00003D02046FFF7CEFF05E0204600F072F863
:101CE000204600F071F800202077300717D515F056
:101CF000080014D020686FF00801016104212177E9
:101D0000C069800703D02046FFF7B4FF05E02046F6
:101D100000F058F8204600F057F800202077F00631
:101D200018D515F0100015D020686FF01001016172
:101D300008212177C06910F4407F03D02046FFF7C7
:101D400099FF05E0204600F03DF8204600F03CF801
:101D500000202077F00718BF15F0010002D13006EF
:101D600009D412E020686FF001010161204600F003
:101D70002DF8300609D515F0800006D020686FF0E8
:101D8000800101612046FFF7CDFD700609D515F0F1
:101D9000400006D020686FF040010161204600F04D
:101DA00017F8B00658BF70BD15F0200008D02168A4
:101DB0006FF0200220460A61BDE87040FFF7B4BD15
:101DC00070BD0000704700007047000070470000C1
:101DD00070470000FEE70000B0B584B040F270002C
:101DE00042F200410024C2F20000C4F201014FF4AB
:101DF000602201250394CDE9014404730475C26196
:101E0000C0E9001484600561FEF72EFB002818BFAE
:101E1000FEF79CFA0220CDE9010540F27000C2F203
:101E2000000001A90394FEF797FA002818BFFEF7F7
:101E30008DFA04B0B0BD000080B582B041F214004C
:101E4000C4F202000168002241F001010160006853
:101E5000002100F00100019001980B20FEF79AFE8E
:101E60000B20FEF787FE0E2000210022FEF792FED7
:101E70000E20FEF77FFE0F2000210022FEF78AFED3
:101E80000F2002B0BDE88040FEF774BE2DE9F04798
:101E900086B0002741F21800CDE90477CDE902773A
:101EA000C4F20200016840F6004441F010010160F4
:101EB0000168C4F2010401F0100101910199016867
:101EC00004F5806541F0200101600168012201F004
:101ED00020010191019901684FF4005641F004017D
:101EE000016001684FF0010801F0040101910199BE
:101EF000016841F00801016000684FF4005100F0F2
:101F00000800019001982846FEF7BCFD20464FF4DA
:101F1000C05100224FF4C059FEF7B4FDCDE902686C
:101F200002AE4FF0020A284631460497CDF814A0BD
:101F3000FEF7A8FC4FF4806002900020C1F211006F
:101F4000CDE9030720463146FEF79CFC204631468A
:101F5000CDE90298CDE9047AFEF794FC06B0BDE81D
:101F6000F087000080B540F26C1043F60001C2F229
:101F70000000C4F200014FF4827200234FF4007C91
:101F800080E80E000A21C0E90333C0E9053CC361C3
:101F9000C0E90833C0E90A31FFF736F9002808BF65
:101FA00080BDBDE88040FEF7D1B9000080B586B0A5
:101FB00040F2C4100021C2F200004FF080424723DB
:101FC00040F2E73CCDE90411CDE90211CDE9001161
:101FD000C0E90023C0E9021C01618161FFF7E4FC54
:101FE000002818BFFEF7B2F94FF48050029040F27B
:101FF000C410C2F2000002A9FFF76AFD002818BF52
:10200000FEF7A4F90020CDE9000040F2C410C2F2AE
:1020100000006946FFF78AFC002818BFFEF796F912
:1020200006B080BDFEE70000FEE70000704700003C
:102030002DE9F04782B00A9C984615460E46814627
:10204000FEF726FD201A00EB0804FEF721FD40F202
:102050000001C2F200010968C1F3CB316143019173
:10206000D9F8001089683140891BB1FA81F149091A
:10207000A94203D1002002B0BDE8F087824608F1F2
:10208000010709E0D9F8000080683040801BB0FAF1
:1020900080F04009A842EDD0002FF3D0FEF7F8FC05
:1020A000A0EB0A00A04207D201980199002808BFBE
:1020B0000446481E0190E5E7D9E900014268B1F500
:1020C000827F22F0E00242600BD1D9F80810B1F50E
:1020D000004F02D0B1F5806F03D1016821F04001BB
:1020E0000160D9F82810B1F5005F07D1016821F42B
:1020F00000510160016841F400510160012089F83C
:102100005100002089F85000032002B0BDE8F0879C
:1021100070470000FEF7C2BC70B594B00AAC204610
:102120002821FEF798F801200A900E904FF4E01055
:1021300000254FF480310226139020460995CDE901
:102140000755CDE90555CDE90355CDE90155CDE953
:102150000B15CDE91161FEF7B7FE20B1EFF310804A
:1021600072B600BFFEE70F20CDE905064FF4806090
:10217000CDE9080505A802210795FEF7C7FD20B1A6
:10218000EFF3108072B600BFFEE7022001904FF41B
:102190000040039001A8FEF739FD20B1EFF3108055
:1021A00072B600BFFEE714B070BD000070470000BB
:1021B00040F2C410C2F20000FFF75EBDFEE700006F
:1021C00010B540F60044C4F2010420464FF400610B
:1021D0000022FEF757FC0120FEF740FB20464FF49B
:1021E00000610122FEF74EFC6420BDE81040FEF7BE
:1021F00035BB00002DE9F04182B01F4616468846E7
:102200000546FFF7DDFF002000218022002400F0BA
:1022100041FA0194019842F20F71884208DC42F2BF
:10222000107000BF01990131019101998142F9DBE0
:10223000012000213A46042300F080FA0520002105
:102240003246042300F07AFA092000212A460623A8
:1022500000F074FA0F2000214246042302B0BDE8CA
:10226000F04100F06BBA0000002B08BF70472DE969
:10227000F04F83B040F60048C4F20108914606468C
:102280004FEAC10A40464FF4805100221C46002507
:10229000FEF7F8FB40F26C17300AC2F200078DF827
:1022A00007004FF0640B0DF107010DF106023846EF
:1022B00001238DF80650CDF800B0FFF711FA0DF1AB
:1022C000090102AA384601238DF809608DF80850EB
:1022D000CDF800B0FFF704FA0DF10B010DF10A0281
:1022E000384601238DF80BA08DF80A50CDF800B0C8
:1022F000FFF7F6F93846494622464FF47A73FFF75E
:102300004FF840464FF480510122FEF7BBFB03B06B
:10231000BDE8F04F704700002DE9F04383B040F670
:102320000048C4F2010806464FEAC10940464FF48E
:10233000805100220024FEF7A5FB40F26C15C2F28A
:10234000000564270DF1050101AA284601238DF837
:1023500005408DF804400097FFF7C2F90DF1070121
:102360000DF10602284601238DF807608DF806401E
:102370000097FFF7B5F90DF1090102AA28460123DC
:102380008DF809908DF808400097FFF7A9F90DF135
:102390000B010DF10A02284601238DF80B408DF840
:1023A0000A400097FFF79CF99DF80A5040464FF409
:1023B00080510122FEF766FB284603B0BDE8F0839A
:1023C0002DE9F04381B007283FD8884642F6C21174
:1023D0008600C0F6000131F81090701CC5B22620AE
:1023E00029461446FFF798FF074627202946FFF79E
:1023F00093FF50EA072028D0A04238BF0446282087
:102400002946FFF789FF074629202946FFF784FF61
:1024100040EA072746F0020107EA0900C9B242462E
:102420002346FFF721FF3E19B0B2020A28202946B1
:1024300000F030F9F2B22920294600F02BF90120F2
:102440002946402200F026F900E00024204601B091
:10245000BDE8F083072888BF70472DE9F04F81B0B1
:102460001546002A6BD0894642F6C211C0F600011B
:102470004FEA800A31F810B00AF101000BF10108AF
:102480004FF48036C4B200BF20202146FFF744FF3E
:10249000074621202146FFF73FFF013E4FD040EA8B
:1024A0000720A842F0D324202146FFF735FF074636
:1024B00025202146FFF730FF40EA072606EA0B00F9
:1024C00041191FFA88F2914214D9A8EB00018FB28A
:1024D000A5EB010B4AF002015FFA81F841464A463A
:1024E0003B4600F07FF809EB07021FFA8BF3002050
:1024F000414604E04AF00201C9B24A462B4600F0C8
:1025000071F83544A8B2020A2420214600F0C2F82E
:10251000EAB22520214600F0BDF801202146202204
:1025200000F0B8F800254FF6FF7600BF01202146E5
:10253000FFF7F2FE18B1B54205F10105F6D301B07F
:10254000BDE8F04F70470000072884BF00207047A7
:1025500070B516460246042E4FF000002AD80C46ED
:102560000121B14011F0160F08BF70BD900001307D
:10257000C5B201202946102200F08CF8002029461F
:10258000324600F087F8220A0420294600F082F83B
:10259000E2B20520294600F07DF8012029460122FB
:1025A00000F078F803202946FFF7B6FE1338B0FA9A
:1025B00080F0400970BD0000072884BF00207047EC
:1025C00010B580000130C4B201202146022200F083
:1025D00061F803202146FFF79FFE1438B0FA80F01F
:1025E000400910BD002B08BF70472DE9F04F83B0A4
:1025F00040F600480646C800C4F20108914600F1C2
:10260000040A40464FF4805100221C460025FEF784
:1026100039FA40F26C17300AC2F200078DF8070051
:102620004FF0640B0DF107010DF10602384601234E
:102630008DF80650CDF800B0FFF752F80DF1090102
:1026400002AA384601238DF809608DF80850CDF8AC
:1026500000B0FFF745F80DF10B010DF10A02384605
:1026600001238DF80BA08DF80A50CDF800B0FFF7CC
:1026700037F83846494622464FF47A73FEF75CFF36
:1026800040464FF480510122FEF7FCF903B0BDE84B
:10269000F04F70472DE9F04784B040F600480746F8
:1026A000C800C4F20108914600F1040A40464FF404
:1026B000805100220025FEF7E5F940F26C16C2F2C7
:1026C000000664240DF1090102AA304601238DF8A9
:1026D00009508DF808500094FFF702F80DF10B0136
:1026E0000DF10A02304601238DF80B708DF80A5067
:1026F0000094FEF7F5FF0DF10D0103AA304601230A
:102700008DF80DA08DF80C500094FEF7E9FF0DF147
:102710000F010DF10E02304601238DF80F908DF858
:102720000E500094FEF7DCFF40464FF4805101222A
:10273000FEF7A8F904B0BDE8F0870000002B08BF41
:1027400070472DE9F04F83B0054640F60040C900C0
:102750009346C4F201000F1D4FF4805100221C4625
:102760004FF00009FEF78EF940F26C18280AC2F209
:1027700000088DF805004FF0640A0DF1050101AA6B
:10278000404601238DF80490CDF800A0FEF7A8FF85
:102790000DF107010DF10602404601238DF80750A7
:1027A0008DF80690CDF800A0FEF79AFF0DF1090113
:1027B00002AA404601238DF809708DF80890CDF8E3
:1027C00000A0FEF78DFFABF101060DF10B050DF139
:1027D0000A0700BF16F8010F29468DF80B00404686
:1027E0003A4601238DF80A90CDF800A0FEF778FF55
:1027F000013CEFD140F60040C4F201004FF480519B
:102800000122FEF73FF903B0BDE8F04F704700002A
:10281000B4B04FF40070ADF8CC00022032906FF0ED
:102820007F4031904AF6C000C4F61E5000F1B85106
:10283000CDE92F01FEF740F9FFF76EFCFFF726FB0D
:10284000FFF7FAFAFFF7C8FAFFF78CFBFFF7AEFBCA
:1028500032A82FA931AA30ABFFF7CCFC002041F2FF
:1028600088310122FFF770FE10B10020FFF7A4FEAF
:1028700048A041680FAD0691816808AF0591C16815
:10288000049101690391416980690291019039A025
:102890004168D0E902B8D0E90494068B90F81AA0F8
:1028A000079107E0012001210822FFF7F3FE0A202B
:1028B000FDF7D4FF03200121FFF72EFD40B31C28B4
:1028C000F0D01728F3D1002029468022FFF778FDA9
:1028D0000028ECD000212954284625A1FDF78AFCC8
:1028E00000B341F20000C4F201004FF40051002295
:1028F000FEF7C8F81F48CDE90B89089007980D949A
:10290000CDE9090BADF838608DF83AA027E000BF9B
:10291000002041F288310122FFF716FE0020FFF768
:102920004BFEC4E728461AA1FDF764FC0028BED080
:1029300041F20000C4F201004FF400510122FEF701
:10294000A1F8144808900698099005980A900498F0
:102950000B9003980C9002980D9001980E903846B9
:10296000FDF75AFC82B200203946FFF773FD9EE75F
:102970004F4E0000436F6D6D616E6420526563655C
:10298000697665643A204C4544204F4E0D0A00009C
:102990004F464600436F6D6D616E642052656365FE
:1029A000697665643A204C4544204F46460D0A003E
:1029B00000000000000000000102030406070809EF
:1029C0000102FF0FFF0FFF07FF07FF03FF03FF03D6
:1029D000FF0302030405060708090A0B0C0D0E0F7E
:1029E00010100000082A000800000020100000005D
:1029F00050010008182A00081000002000080000FC
:102A0000700100080000000000127A0001000000C0
:082A10001000000000000000AE
:04000005080000ED02
:00000001FF
