:020000040800F2
:1000000048090020C1010008E52600086D24000809
:10001000E1260008C103000879280008000000005C
:10002000000000000000000000000000CD270008D4
:100030007509000800000000E9260008D127000823
:10004000DB010008DB010008DB010008DB01000820
:10005000DB010008DB010008DB010008DB01000810
:10006000DB010008DB010008DB0100085109000882
:10007000DB010008DB0100085D09000869090008D0
:10008000DB010008DB010008DB010008DB010008E0
:10009000DB010008DB010008DB010008DB010008D0
:1000A000DB010008DB010008DB010008DB010008C0
:1000B0006D280008DB010008DB010008DB010008F7
:1000C000DB010008DB010008DB010008DB010008A0
:1000D000DB010008DB010008DB010008DB01000890
:1000E000DB010008DB010008DB01000800F002F87A
:1000F00000F03CF80AA090E8000C82448344AAF186
:100100000107DA4501D100F031F8AFF2090EBAE883
:100110000F0013F0010F18BFFB1A43F0010318473B
:100120001835000038350000103A24BF78C878C16F
:10013000FAD8520724BF30C830C144BF04680C60ED
:10014000704700000023002400250026103A28BF35
:1001500078C1FBD8520728BF30C148BF0B60704739
:100160001FB500F062F81FBD10B510BD00F0EDF82E
:100170001146FFF7F5FF03F011F900F00BF903B496
:10018000FFF7F2FF03BC00F015F900000B49D1F8AE
:1001900000C04A685CF8043B1068184442F8040B3D
:1001A0008C4528BFA1F1DC0C8A4228BFA1F1DC02FA
:1001B000C1F800C04A6020F000407047EC00002009
:1001C0000948804709480047FEE7FEE7FEE7FEE7EB
:1001D000FEE7FEE7FEE7FEE7FEE7FEE70448054927
:1001E000054A064B7047000069280008ED0000082A
:1001F0004803002048090020480500204805002049
:100200000B4910B5A1F17C020A4CC2E93712372123
:1002100006E000EB104342F82130074B00FB03409F
:100220000B1EA1F10101F4DC10BD0120E8E7000084
:100230008C000020E119D666CD0D010030B50546D1
:100240000B462A4613F8014B12F8010B08B1A042E5
:10025000F8D01CB1002802D06D1CF1E7284630BD53
:1002600040EA010310B59B070FD1042A0DD310C833
:1002700008C9121F9C42F8D020BA19BA884201D985
:10028000012010BD4FF0FF3010BD1AB1D30703D0CD
:10029000521C07E0002010BD10F8013B11F8014B83
:1002A0001B1B07D110F8013B11F8014B1B1B01D19F
:1002B000921EF1D1184610BD10B5431C02E010F893
:1002C000011B71B18107FAD14FF0013202C88C1ABB
:1002D0008C4314EAC211F9D0C01A0A0603D0C01E1A
:1002E00010BDC01A10BD0A0401D0801E10BD090245
:1002F000FCD0401E10BD4FF0000200B513469446DE
:100300009646203922BFA0E80C50A0E80C50B1F16D
:100310002001BFF4F7AF090728BFA0E80C5048BF81
:100320000CC05DF804EB890028BF40F8042B08BF1F
:10033000704748BF20F8022B11F0804F18BF00F81B
:10034000012B7047704770477047754600F02CF8D6
:10035000AE4605006946534620F00700854618B0B2
:1003600020B5FFF73BFFBDE820404FF000064FF0FF
:1003700000074FF000084FF0000BAC46ACE8C00996
:10038000ACE8C009ACE8C009ACE8C00921F007013D
:100390008D46704710B50446AFF300802046BDE897
:1003A0001040FFF7ECBE000000487047F40000204A
:1003B0007047000001491820ABBEFEE7260002008E
:1003C000FEE70000B0B500F07BFE40F25C15C2F223
:1003D0000005686203F0E6F805F1080405F10C0277
:1003E00005F11003214602F089FA05F1140003F02B
:1003F000F5F8204603F0FAF800F062FE95F83310A5
:10040000686241F0010085F83300082085F830006B
:10041000B0BD0000B0B5ADF5187D02AC20464FF47C
:100420001671FFF768FF03F0BDF840F25C15C2F2E9
:10043000000540F201112A68C0F206010291110E76
:100440008DF80C10110C8DF80D10110A8DF80E108E
:1004500080218DF80F20ADF8121001684322099118
:100460008188ADF8281048F26321C6F253313D91DE
:1004700040F23511C3F201713E9140F20311C0F216
:1004800003613F9140F23D71ADF8001101218DF8FB
:1004900002118188ADF80711006801A9CDF80301A8
:1004A00040F23920C5F60200CDF80901FF208DF891
:1004B0000D014FF48370E8854FF0FF300190072065
:1004C00002F066FDEA8D0720214602F0C3FC00F031
:1004D000F7FDA862022085F830000DF5187DB0BD4B
:1004E0007047000010B500F0EBFD40F25C14C2F262
:1004F0000004616A401AB0F57A7F38BF10BD00F081
:10050000DFFD606210BD0000B0B50720442102226B
:1005100002F05AFD4EF218004FF2E871CEF20000E0
:10052000C1F6FF7100680A6850404A688968504007
:100530004840FFF765FE40F25C14C2F2000420461A
:100540003421FFF7D8FEFFF721FE0546FFF71EFE18
:1005500080B240EA05402060002084F82C00012091
:1005600084F83000B0BD000070B5ADF5167D6C4666
:1005700020464FF41671FFF7BEFE03F013F840F269
:100580005C15C2F2000540F201112A68C0F20601B2
:100590000091110E8DF80410110C8DF80510110A40
:1005A0008DF8061080218DF80720ADF80A1001683B
:1005B0006A79079181888DF8F320ADF8201048F210
:1005C0006321C6F253313B9140F23641ADF8F01051
:1005D0002979EA798DF8F210A9798DF8F5208DF84E
:1005E000F41040F23511C3F20321CDF8F610297A48
:1005F0006A7A8DF8FB10A97A04268DF8FD10E97A45
:100600008DF8FC208DF8FE1040F23D71ADF8FF1022
:1006100001218DF8FA608DF80111818840F21512E0
:10062000ADF8061100682146CDF8020140F23760AE
:10063000C0F20130429043F20630C3F63A304390A4
:1006400040F23920C5F602004490FF208DF81401D5
:1006500040F21510E885072002F0FCFB00F030FDA9
:10066000A86285F830600DF5167D70BD40F25C1013
:10067000C2F2000090F82C10092901D907210AE0E4
:1006800090F83210032905D8DFE801F007050205CC
:10069000032100E0002180F83010704770B5ADF5FF
:1006A000167D68464FF41671FFF725FE00F008FD31
:1006B00040F25C16C2F20006B16A401A40F6B93147
:1006C000884208D3062086F83000022086F83200DF
:1006D0000DF5167D70BD6D46072029464FF4167244
:1006E00002F07CFAF02812D304469DF8000002289C
:1006F0000DD10198316800BA884208D102F052FF4A
:10070000014605F11C000622FFF7AAFD10B10DF508
:10071000167D70BD9DF8EC006328F8D19DF8ED00C2
:100720008228F4D19DF8EE005328F0D19DF8EF0017
:100730006328ECD1F02102E000220020CAB18BB284
:10074000A34215D2EA5CFF2AF6D00AB9013105E0CE
:10075000352A05D158190230352A07D00122EDE794
:100760002B445B7819440231352AF7D10022E5E7A2
:1007700000200028CBD00078052806D00628C6D156
:10078000062086F830000320A0E704982146B060D8
:100790006846362202F0D8FD0028B8D0006821460D
:1007A00070606846012202F0CFFD0028AFD00068DB
:1007B0002146F0606846032202F0C6FD0028A6D05C
:1007C0000068214630616846062202F0BDFD00281F
:1007D0001CBF0068706168462146332202F0B4FDF8
:1007E00010B1006800BAB061684621463A2202F0B2
:1007F000ABFD10B1006800BAF061684621463B22AB
:1008000002F0A2FD10B1006800BA3062052086F83F
:1008100030000DF5167D70BD70B5ADF5167D6846DE
:100820004FF41671FFF767FD00F04AFC40F25C16CA
:10083000C2F20006B16A401A40F6B931884208D3C4
:10084000062086F83000012086F832000DF5167D6E
:1008500070BD6D46072029464FF4167202F0BEF9AE
:10086000F02812D304469DF8000002280DD101980B
:10087000316800BA884208D102F094FE014605F1C1
:100880001C000622FFF7ECFC10B10DF5167D70BDC3
:100890009DF8EC006328F8D19DF8ED008228F4D192
:1008A0009DF8EE005328F0D19DF8EF006328ECD1BD
:1008B000F02102E000220020CAB18BB2A34215D27F
:1008C000EA5CFF2AF6D00AB9013105E0352A05D1E4
:1008D00058190230352A07D00122EDE72B445B7806
:1008E00019440231352AF7D10022E5E7002000281B
:1008F000CBD000780228C8D104982146B060684661
:10090000362202F021FD00281CBF00687060684696
:100910002146012202F018FD00281CBF0068F0608B
:1009200068462146032202F00FFD00281CBF006824
:10093000306168462146062202F006FD00281CBFF1
:1009400000687061032086F830000DF5167D70BDDB
:1009500040F2C810C2F2000000F09CB940F20C2036
:10096000C2F2000000F096B940F25020C2F200003E
:1009700000F090B970470000EFF3108072B600BF2E
:10098000FEE70000B0B581B00022009290F824206C
:10099000012A01D1022179E04A680123062A02EBEB
:1009A000820C80F8243005D8026802F1340E6FF012
:1009B00004020AE003680C2A87BF03F12C0E6FF0D3
:1009C000400203F1300E6FF022026244DEF800C0F4
:1009D0001F230C6893402CEA030304FA02F21A4323
:1009E000CEF80020D1F800E002680EEB4E04102390
:1009F000BEF1090F88BF1E3C88BF0C2352F803C00C
:100A000007258968A5402CEA0505A1402943D15056
:100A10002EF001014FF0000C10294FF0000133D1EE
:100A2000016842F20042C4F20102914205D0816A9B
:100A300041F020018162012126E09268120222D455
:100A40008A68BEF1100F42F400028A601BD140F2A6
:100A50000001C2F2000109684DF68362C4F21B3244
:100A6000A1FB0212910C01EB810149000091009958
:100A700049B100BF009901390091009900294FF058
:100A80000001F7D100E0002180F824C0084601B041
:100A9000B0BD0000B0B5002846D00446806A30B929
:100AA0000020E06284F82400204600F0A1F82068CD
:100AB0008168C90709D0816821F00101816000F0D7
:100AC000FFFA21688968C90730D100200121A36A93
:100AD000A26A31B313F0100123D141F2021122EACC
:100AE00001010231A162E169D4E9013241EA030C5A
:100AF000531EB3FA83F35D091346B2F5807F18BF26
:100B00002B02217D257B01294CEA450E31D13DB3D5
:100B1000A56A45F02005A562E56A45F00105E56294
:100B200027E042F01000A0620120B0BD054603E0BE
:100B300020688068C007C8D000F0C2FA401B0328B4
:100B4000F6D320688068C007F2D0A06A002140F088
:100B50001000A062E06A40F00100E0620120B6E708
:100B6000D4F818C04EF60005CFF6FF7505EB4C35EE
:100B70002B432568B2F5807F696821F4694141EA19
:100B800003016960A9684FF2FD73CFF6E17301EAD2
:100B9000030141EA0E01A96001D0012A06D12169B1
:100BA0000022CFF6F07202EB015200E00022E96A67
:100BB00021F470011143E962A96840F6FE62CFF6A4
:100BC0001F721140714507D10021E162A16A012223
:100BD00062F30101A162B0BDA06A40F0100020F0F4
:100BE0000200A062E06A40F00100E0620120B0BDB6
:100BF00070B586B0044640F60000C4F201002168DA
:100C000000F5E052002691420596CDE90366029672
:100C100001D006B070BD41F21801C4F202010A68A9
:100C200042F400720A600A6802F400720192019AAA
:100C30000A6842F004020A60096801F004010191A7
:100C40000199042102910321039102A900F032F9D4
:100C500040F2C8150820C2F20005C4F202004FF4A9
:100C60008072C5E9000605F1100080214FF4806311
:100C70004FF0200C80E80C102846C5E90261EE61B7
:100C800000F0C0F8002818BFFFF776FE25626C62FE
:100C900006B070BD10B5D0E90FCE0168DCF80030A9
:100CA0000A6823FA0EF35C0724D512F0040421D05D
:100CB0000A68920603D40A6822F004020A602F220E
:100CC000C4F20202914240F20402C4F2020253DD75
:100CD0003023C4F20203994266D04423C4F20203D3
:100CE000994264D05823C4F20203994264D14FF46C
:100CF000802369E09C0727D512F0020424D00A68FB
:100D0000920606D40A6822F00A020A60012280F8DC
:100D100021202F22C4F20202914240F20402C4F2C6
:100D2000020235DD3023C4F20203994252D044233B
:100D3000C4F20203994250D05823C4F202039942EC
:100D400050D14FF4003355E01B075AD512F008027A
:100D500008BF10BD0A6822F00E020A60012101FAE4
:100D60000EF2CCF80420816380F82110016B002280
:100D700080F8202059BB44E00823C4F202039942C2
:100D800018D01C23C4F20203994215D140231BE062
:100D90000823C4F20203994222D01C23C4F20203A6
:100DA00099421FD1202325E04FF480630CE04FF4DB
:100DB000804309E0042307E002F168044FF08063F8
:100DC000A14208BF4FF480031360C16AC9B1BDE8F6
:100DD000104008474FF400730CE04FF4005309E053
:100DE000022307E002F168044FF00073A14208BF3C
:100DF0004FF400131360816A0022002980F820203C
:100E0000E5D110BD014600284FF0010008BF704732
:100E10002DE9F043D1F800C04FF6F873CBF6FD731F
:100E20004CF6CD426344CCF6CC42A3FB02236FF0D8
:100E3000030707EA93030027C4F2020701F10C0934
:100E4000C1E90F730223D1E9012E99E87002D1F8AC
:100E50001C8081F82130DCF8003043F6F077BB438A
:100E60001A4342EA0E0222432A43324342EA09026B
:100E700042EA0802CCF8002000228A6381F82100AF
:100E800081F820200020BDE8F0437047B0B504464B
:100E900000F016F9054640F20400C2F200000078A6
:100EA000611C18BF044400BF00F00AF9401BA042B7
:100EB000FAD3B0BD2DE9F04F82B00E68002E00F0DD
:100EC000F68041F20042C4F20102042340F2004ED7
:100ED000904208BF03234FF6FF7CC4F2010E00933B
:100EE00000240123C1F2100C4FF0000A4FF000095A
:100EF00043E0012704F00C030F229A402BEA020280
:100F000007FA03F34FEA9A051A4346F825204E687C
:100F100040F20C45F202DEF8082054BF22EA080233
:100F200042EA0802C4F20105CEF808202A68B3029A
:100F300054BF22EA080242EA08022A60B303DEF83C
:100F4000042054BF22EA080242EA0802F303CEF862
:100F50000420DEF800204FF0010354BF22EA08020B
:100F600042EA0802CEF800200E680AF1010A36FAB9
:100F70000AF204F1040400F09A8003FA0AFB16EA6C
:100F80000B08F1D04E68664510DC122E50D8DFE811
:100F900006F0330A41454F4F4F4F4F4F4F4F4F4F82
:100FA0004F4F4F484C00D1F80C9041E04FF6FF7284
:100FB000C1F2210296420FDC0022C1F211029642D8
:100FC0001AD00022C1F21202964215D00022C1F2BC
:100FD0002102964210D02BE00022C1F2220296425A
:100FE0000AD00022C1F23102964205D00022C1F29D
:100FF000320296421CD100BF8A6842B1012A14BF56
:10100000C0F814B0C0F810B04FF0080910E04FF06D
:1010100004090DE0CA6802F1080909E04FF000096F
:1010200006E0CA6802F1040902E0CA6802F10C098C
:1010300022460646B8F5807F24BF203A043637683A
:101040000F25954027EA050509FA02F22A43326086
:10105000CA79D2067FF588AF41F21803C4F20203C1
:101060001A68AEF57E7642F001021A601A6802F044
:1010700001020192019A2AF0030256F802B040F6EA
:101080000002C4F2010290420FD040F60042C4F2C6
:10109000010290423FF42DAF41F20002C4F201027E
:1010A000009F904208BF022724E7002722E702B0F2
:1010B000BDE8F08F002A08BF0904016170470000F5
:1010C00040F24030C2F200000068704740F2040075
:1010D00040F24031C2F20000C2F2000100780A681A
:1010E000104408607047000080B542F20000C4F26E
:1010F0000200016841F010010160032000F08EF849
:101100000F2000F005F800F02BF8002080BD000053
:10111000B0B540F20402C2F2000240F200011278BF
:10112000C2F200014FF47A730968B3FBF2F204468D
:10113000B1FBF2F1084600F0F3FE0F2C4FF0010571
:101140000CD858B94FF0FF3021460022002500F09E
:1011500039F840F20800C2F2000004602846B0BD31
:1011600082B041F21800C4F202000168022241F08C
:1011700001010160016801F00101019101994168DB
:1011800041F080514160406800F08050009000982C
:101190000420C4F20100016862F31A61016002B028
:1011A00070470000002848BF704700F01F0101226F
:1011B00002FA01F14EF200124009CEF2000242F8AA
:1011C0002010704710B54EF60C5CCEF2000CDCF827
:1011D0000030C3F3022E8EF00704042C28BF042431
:1011E000BEF103034FF0FF3E0EFA04F438BF0023B4
:1011F000A14399400EFA03F39A43114300F1604270
:1012000000F00F03090102F56442043B6344002827
:1012100048BF03F10C02117010BD00004EF60C51D6
:10122000CEF200010A684FF6FF031A4060F30A226B
:1012300042F0806040F0FD70086070472DE9F04199
:1012400082B00446007841F21C06C007C4F20206D0
:101250004AD0306810F0805808D1306840F0805093
:101260003060306800F080500190019847F200072C
:10127000C4F200073868C00512D4386840F48070A2
:101280003860FFF71DFF05463868C00508D4FFF732
:1012900017FF401B6428F7D9032002B0BDE8F08196
:1012A000706810F4407012D0616801F44071884297
:1012B0000DD0706840F24042C4F24222012320F473
:1012C000407113600023C0071360716029D17068FA
:1012D000616820F440700843B8F1000F706003D1DA
:1012E000306820F0805030602068810707D556F8BC
:1012F000181CA26821F44041114346F8181CC0068E
:1013000003D4002002B0BDE8F08156F8180CE16863
:1013100020F48000084346F8180C002002B0BDE815
:10132000F081FFF7CDFE054641F2883770688007EF
:10133000CDD4FFF7C5FE401BB8424FF00300F5D9EE
:10134000ECE700002DE9F04381B0002800F0858033
:1013500042F20008C4F202080446D8F800000D4624
:1013600000F0070088420CD2D8F8000020F00700F7
:101370002843C8F80000D8F8000000F00700A84291
:101380006BD1206841F204098107C4F2020917D524
:10139000410705D5D9F8001041F4E061C9F8001003
:1013A000010705D5D9F8001041F46051C9F80010C3
:1013B000D9F80010A26821F0F0011143C9F800101B
:1013C000C00741D1D8F8000000F00700A8420CD9AE
:1013D000D8F8000020F007002843C8F80000D8F82B
:1013E000000000F00700A84237D12068410707D568
:1013F000D9F80010E26821F4E0611143C9F8001047
:10140000000708D5D9F80000216920F4605040EAAF
:10141000C100C9F80000D9F8002002F00C0008282B
:1014200041F20020C0F27A004ED143F22863C2F3A9
:101430008341C0F60003595CD20339D440F6001052
:10144000C0F23D0048433FE06068022809D001280F
:1014500029D159F8041C890307D4012001B0BDE843
:10146000F08359F8041C8901F7D5D9F8001021F050
:1014700003010843C9F80000FFF722FE064641F2C7
:10148000883700BFD9F80000616800F00C00B0EBAD
:10149000810F97D0FFF714FE801BB842F2D90320CA
:1014A00001B0BDE8F08359F8041C8907D5D5DCE705
:1014B000D9F8002043F21663C2F34042C0F600039D
:1014C0009A5C4843B0FBF2F0D9F8001043F2066290
:1014D000C1F30311C0F60002515C40F2000220FA91
:1014E00001F140F20800C2F200000068C2F20002FE
:1014F0001160FFF70DFE002001B0BDE8F083000091
:101500002DE9F04182B0002800F0D7800446007831
:1015100041F20006C007C4F2020644D0706800F031
:101520000C00042817D0706800F00C00082802D1C5
:101530007068C0030FD465682DB1B5F5A02F10D029
:10154000B5F5803F11D0306820F4803030603068CD
:1015500020F480200CE03068800324D5606810BB44
:10156000ABE0306840F480203060306840F4803078
:101570003060FFF7A5FD002D054611D030688003CF
:1015800011D4FFF79DFD401B6428F7D916E100BF79
:10159000FFF796FD401B64284FF0030000F28A809D
:1015A00030688003F4D42078800718D5706810F074
:1015B0000C0F07D0706800F00C00082827D1706865
:1015C000C00324D43068800702D52069012874D173
:1015D0003068616920F0F80040EAC100306020788E
:1015E00000074FD5A06940B30020C4F2422001217A
:1015F000C0F88014FFF764FD054600BF706A8007DD
:101600002DD4FFF75DFD401B0228F7D9D6E02069F5
:10161000002840F20000C4F2422000F0A680012120
:101620000160FFF74DFD054630688007D0D4FFF715
:1016300047FD401B0228F7D9C0E00020C4F2422039
:101640000021C0F88014FFF73BFD0546706A800753
:1016500018D5FFF735FD401B0228F7D9AEE040F260
:101660000000C2F20000006844F6D351C1F26201EA
:10167000A0FB0101480A019000BF0198411E00280B
:101680000191F9D1207840071BD4E5698DB17068CC
:1016900000F00C00082846D1012D0ED07068216A98
:1016A00000F480328A4208D1616A00F470108842E6
:1016B00003D1002002B0BDE8F081012002B0BDE8F6
:1016C000F081F06910F0805808D1F06940F0805046
:1016D000F061F06900F080500090009847F2000738
:1016E000C4F200073868C0050FD4386840F4807031
:1016F0003860FFF7E5FC05463868C00505D4FFF7FC
:10170000DFFC401B6428F7D958E0E5681DB1052DC2
:101710003CD0012D3ED0306A20F001003062306AAA
:1017200020F0040039E00027C4F242270020386688
:10173000FFF7C6FC022D05460CD100BF30688001C2
:1017400054D5FFF7BDFC401B02284FF00300F5D92C
:10175000B0E700BF30688001ABD5FFF7B1FC401B9C
:1017600002284FF00300F5D9A4E700210160FFF73C
:10177000A7FC0546306880077FF531AFFFF7A0FC76
:10178000401B02284FF00300F4D993E7306A40F081
:1017900004003062306A40F001003062FFF790FCD4
:1017A000002D054641F2883714D000BF306A80070B
:1017B00013D4FFF785FC401BB842F7D9032002B0D1
:1017C000BDE8F081FFF77CFC401BB8424FF00300FE
:1017D0003FF670AF306A8007F4D4B8F1000F7FF4A1
:1017E00054AFF06920F08050F0614EE7206AB0F508
:1017F000803F05D17168A26821F400311143716006
:101800007168626A21F47411114308437060012009
:101810003866FFF755FC0446306880013FF549AF54
:10182000FFF74EFC001B02284FF00300F4D941E7FC
:1018300070B538B10446406A30B10020206104F12F
:10184000140007E0012070BD6068B0F5827F03D00E
:1018500004F11C00002101600026A66294F85100EA
:1018600020B9204684F8506000F038F8022084F84F
:10187000510094E8071001F48271036802F40442F5
:1018800023F040030360236911440CF40062114407
:1018900003F002026369114403F00102A369E569E0
:1018A000114403F40072114405F03802256A114412
:1018B00005F08002A56A114305F40052114301604E
:1018C000042101EA13414160C16921F40061C16151
:1018D0000120666584F85100304670BD2DE9F04165
:1018E00086B040F600450446C4F201050068A5F53F
:1018F0005441002788420597CDE90377029702D02B
:1019000006B0BDE8F08141F21800C4F2020041685F
:1019100002AE41F480414160416840F2440801F464
:101920008041019101990168C4F2020841F0080167
:1019300001600068314600F00800019001984FF402
:101940002040029002200390032005902846FFF7D4
:10195000B1FA4FF48040CDE902072846314604979A
:10196000FFF7A8FA40F2502508F11400C2F2000572
:101970001021802685E883002846C5E90367C5E96C
:101980000577EF61FFF73EFA002818BFFEF7F4FF76
:10199000A5646C6240F20C25C2F200050020C5E986
:1019A0000080C5E90206C5E90400C5E9060028462D
:1019B000FFF728FA002818BFFEF7DEFFE5646C6227
:1019C00006B0BDE8F08100002DE9F04182B0044688
:1019D00090F85100012818D160681D4617460E4640
:1019E000B0F5827F01D1A06898B1FFF769FB80460E
:1019F000002E4FF0010018BF002F02D102B0BDE849
:101A0000F08194F85000012810D1022002B0BDE806
:101A1000F081042084F851002046314632463B468E
:101A2000009500F071F902B0BDE8F081012084F862
:101A30005000042084F8510000206065A663A78749
:101A4000E7872063A086E086A1682064B1F5004F97
:101A5000606408D12068016821F0400101600168DC
:101A600021F48041016020680168490603D40168BF
:101A700041F040010160E168E08FD1B1E8B36E1C34
:101A80000AE000BFC068A16B21F8020BA163E08FE0
:101A90000138E087E08F80B320688168C907F1D101
:101AA000FFF70EFB002EF5D0A0EB0800A842F1D303
:101AB00019E010B36E1C0AE0007BA16B0870A06BEC
:101AC0000130A063E08F0138E087E08FA8B1206883
:101AD0008168C907F0D1FFF7F3FA002EF5D0A0EB2B
:101AE0000800A842F1D3012084F85100002084F8B6
:101AF0005000032002B0BDE8F0816068B0F5827F3D
:101B000011D1A068B0F5004F02D0B0F5806F0AD1B6
:101B10002168B0F5806F0A6822F040020A6002D1A5
:101B20002046012101E02046802100222B46CDF8ED
:101B3000008000F0DBFD28B1606D40F020006065A2
:101B400020206065012084F85100002084F85000B6
:101B5000606D002818BF012002B0BDE8F0810000D0
:101B60002DE9F04182B01D4616460F460446FFF7A8
:101B7000A7FA94F8511001290DD18046002F4FF09B
:101B8000010018BF002E02D102B0BDE8F08194F828
:101B90005000012803D1022002B0BDE8F0810120ED
:101BA00084F85000032084F851000020606527630A
:101BB000A686E686A063A087E087A168C4E9100036
:101BC000B1F5004F08D12068016821F040010160A3
:101BD000016841F48041016020680168490603D42E
:101BE000016841F0400101606168731EE268B1FA6A
:101BF00081F1B3FA83F349095B09B2F5006F41EA59
:101C0000030124D131B137F8021BC1602763E08E94
:101C10000138E086E08E002847D06E1C0AE000BF45
:101C2000216B31F8022BC2602163E08E0138E0861F
:101C3000E08ED0B3206881688907F1D4FFF740FABD
:101C4000002EF5D0A0EB0800A842F1D323E039B173
:101C500039780173206B01302063E08E0138E08613
:101C6000E08E10B36E1C0AE0216B09780173206BC3
:101C700001302063E08E0138E086E08EA8B1206854
:101C800081688907F0D4FFF71BFA002EF5D0A0EB8E
:101C90000800A842F1D3012084F85100002084F804
:101CA0005000032002B0BDE8F0812046022101224D
:101CB0002B46CDF8008000F019FD40B92046802168
:101CC00000222B46CDF8008000F010FD28B1606D99
:101CD00040F02000606520206065A06838B90020D1
:101CE00001902068C16801918068019001980120ED
:101CF00084F85100002084F85000606D002818BF5F
:101D0000012002B0BDE8F0812DE9F04383B01E460A
:101D100015460F460446FFF7D3F994F85110814653
:101D200001290DD06068B0F5827F15D1A068002828
:101D30004FF0020008BF042902D003B0BDE8F083D1
:101D4000002F4FF0010018BF002DF6D0002EF4D068
:101D500094F85000012803D1022003B0BDE8F083BD
:101D6000012084F8500094F85100002104281CBF81
:101D7000052084F851006165A563E687A68727637F
:101D8000E6862068A686216461640168490603D45A
:101D9000016841F0400101606168731EE268B1FAB8
:101DA00081F1B3FA83F3DDF8288049095B09B2F5C4
:101DB000006F41EA030138D131B137F8021BC1602D
:101DC0002763E08E0138E086012608F1010500BF97
:101DD000E08E10B9E08F00286CD0206881688907F8
:101DE0000CD5E18E51B1012E08D1216B002631F8BE
:101DF000022BC2602163E18E0139E1868168C90747
:101E00000AD0E18F41B1C068A16B012621F8020B15
:101E1000A163E08F0138E087FFF752F9002DD7D09A
:101E2000A0EB09004045D3D33AE039B139780173CA
:101E3000206B01302063E08E0138E086012608F136
:101E4000010500BFE08E08B9E08F98B32068816873
:101E500089070DD5E18E59B1012E09D1216B0026DC
:101E600009780173206B01302063E08E0138E08631
:101E700020688168C9070BD0E18F49B1C068A16BA8
:101E800001260870A06B0130A063E08F0138E08765
:101E9000FFF716F9002DD5D0A0EB09004045D1D3AE
:101EA000012084F85100002084F85000032003B082
:101EB000BDE8F0832046022101224346CDF8009080
:101EC00000F014FC40B92046802100224346CDF8A2
:101ED000009000F00BFC60B1606D40F02000606588
:101EE00020206065002084F85000012003B0BDE888
:101EF000F083A06838B9002002902068C168029180
:101F0000806802900298012084F85100002084F833
:101F10005000606D002818BF012003B0BDE8F083B9
:101F2000411E0020B0EB116F1CBF012070474EF224
:101F30001002CEF2000251604EF62351CEF20001A3
:101F4000F0230B700721906011607047704700000C
:101F50007047000010B590F83C20012A4FF00202B3
:101F600031D0012380F83C3080F83D200268D2F85F
:101F700004E0D2F808C00C682EF07003234340F24E
:101F8000FF74C4F20004A242536005DCB2F1804F3A
:101F90000ED040F2004307E042F60043C4F20103D2
:101FA0009A4205D040F60003C4F200039A4204D1DD
:101FB00049682CF08003194391600121002280F8C8
:101FC0003D1080F83C20104610BD0000002804BFE2
:101FD0000120704710B5044690F83D0028B9002054
:101FE00084F83C00204600F065F8022084F83D00AB
:101FF000206840F2FF730268C4F2000342F6004C0E
:102000009842C4F2010C05DCB0F1804F0AD040F2D6
:10201000004103E0604505D040F60001C4F2000134
:10202000884203D1A16822F070020A43984205DC7D
:10203000B0F1804F0AD040F2004103E0604505D086
:1020400040F60001C4F20001884203D1216922F464
:1020500040720A43A36922F08001D4F804E0E268E8
:10206000194360450160C262C0F828E002D161698D
:10207000CCF83010012141610269D20703D0026916
:1020800022F001020261002084F8461084F83E101C
:1020900084F83F1084F8401084F8411084F842100E
:1020A00084F8431084F8441084F8451084F83D10F7
:1020B00010BD000080B582B00068B0F1804F1CBF39
:1020C00002B080BD41F21C00C4F20200016800228F
:1020D00041F0010101600068002100F00100019061
:1020E00001981C20FFF76EF81C2002B0BDE880406C
:1020F000FFF758B890F83D1001291CBF0120704728
:10210000022180F83D10006840F2FF72C168C4F2FD
:102110000002904241F00101C16005DCB0F1804F46
:102120000ED040F2004107E042F60041C4F2010146
:10213000884205D040F60001C4F20001884206D171
:10214000816801F00701062904BF0020704701687B
:1021500041F00101016000207047000080B590F857
:102160003C20012A4FF0020200F0C280012380F8D7
:102170003C3080F83D20D0F800C04FF67772DCF894
:10218000083023EA0202CCF808200B684F2B28DC29
:102190001F2B43DD202B44D0302B42D0402B40F06E
:1021A000A980D1F804E0C968DCF82030DCF82020F0
:1021B00022F00102CCF82020DCF8182022F0F002F6
:1021C00042EA011123F00A0242EA0E02CCF818108A
:1021D000CCF82020DCF8081041F0470121F0300154
:1021E0007DE06F2B25DDB3F5005F46D0B3F5805F52
:1021F00077D0702B7ED1D1E901E3C968DCF80820E3
:1022000043EA0E0322F47F4243EA01211143CCF852
:102210000810DCF8081041F0770160E00BB1102BDA
:1022200068D1DCF8081021F07001194341F0070172
:1022300055E0502B34D0602B5CD1D1F804E0C96854
:10224000DCF82030DCF8202022F01002CCF820202E
:10225000DCF8182022F4704242EA013123F0A00297
:1022600042EA0E12CCF81810CCF82020DCF8081046
:1022700041F0670121F0100131E0D1E901E3C968C3
:10228000DCF8082043EA0E0322F47F4243EA0121EE
:102290001143CCF80810DCF8081041F480411EE02E
:1022A000D1F804E0C968DCF82030DCF8202022F006
:1022B0000102CCF82020DCF8182022F0F00242EADB
:1022C000011123F00A0242EA0E02CCF81810CCF8F1
:1022D0002020DCF8081041F0570121F02001CCF853
:1022E00008100022012180F83D10002180F83C10E8
:1022F000104680BD0122F5E77047000070B5044626
:102300000068C5680669B10716D515F0020113D03B
:102310006FF002010161012121778069800703D0FC
:102320002046FFF7E9FF05E0204600F08DF8204643
:1023300000F08CF800202077700718D515F0040005
:1023400015D020686FF004010161022121778069B6
:1023500010F4407F03D02046FFF7CEFF05E0204673
:1023600000F072F8204600F071F800202077300766
:1023700017D515F0080014D020686FF0080101612E
:1023800004212177C069800703D02046FFF7B4FFFE
:1023900005E0204600F058F8204600F057F80020ED
:1023A0002077F00618D515F0100015D020686FF0D2
:1023B0001001016108212177C06910F4407F03D02A
:1023C0002046FFF799FF05E0204600F03DF8204643
:1023D00000F03CF800202077F00718BF15F001004E
:1023E00002D1300609D412E020686FF001010161CA
:1023F000204600F02DF8300609D515F0800006D0F3
:1024000020686FF0800101612046FFF79FFD700694
:1024100009D515F0400006D020686FF04001016139
:10242000204600F021F8B00658BF70BD15F020001E
:1024300008D021686FF0200220460A61BDE8704094
:10244000FFF786BD70BD00007047000070470000B8
:102450000068B0F1804F18BF704740F29010C2F290
:10246000000001210170704770470000FEE7000086
:10247000B0B584B040F2941042F200410024C2F2A0
:102480000000C4F201014FF4602201250394CDE95C
:10249000014404730475C261C0E9001484600561DD
:1024A000FEF7F8FA002818BFFEF766FA0220CDE919
:1024B000010540F29410C2F2000001A90394FEF756
:1024C00061FA002818BFFEF757FA04B0B0BD00004B
:1024D00080B582B041F21400C4F20200016800220B
:1024E00041F0010101600068002100F0010001904D
:1024F00001980B20FEF766FE0B20FEF753FE0E2020
:1025000000210022FEF75EFE0E20FEF74BFE0F209C
:1025100000210022FEF756FE0F2002B0BDE88040E9
:10252000FEF740BE2DE9F04F85B04FF0000841F2B4
:102530001800CDE90388CDE90188C4F202000168E2
:1025400040F6004441F0100101600168C4F201044A
:1025500001F0100100910099016804F5806641F0D6
:10256000200101600168012201F020010091009921
:1025700001684FF4005541F0040101600168012732
:1025800001F0040100910099016841F00801016027
:1025900000684FF4005100F00800009000983046A9
:1025A000FEF788FD20464FF4006100224FF4006AD8
:1025B000FEF780FD20464FF4805101224FF48059F0
:1025C000FEF778FDCDE9015701AD4FF0020B304623
:1025D00029460397CDF810B0FEF76CFC4FF48060ED
:1025E00001900020C1F21100CDE9020820462946E1
:1025F000FEF760FC20462946CDE901A7CDE9038B13
:10260000FEF758FC0320049020462946CDE90197A7
:102610000397FEF74FFC05B0BDE8F08F80B540F2A0
:10262000942043F60001C2F20000C4F200014FF40E
:102630008272002380E80E0000F114014FF4007C48
:102640004FF0280E81E808500A21C0E90333C0E9A1
:102650000833C0E90A31FFF7EBF8002808BF80BD56
:10266000BDE88040FEF788B980B586B040F2EC2026
:102670000021C2F200004FF08042472340F2E73CC5
:10268000CDE90411CDE90211CDE90011C0E9002323
:10269000C0E9021C01618161FFF798FC002818BFA6
:1026A000FEF76AF94FF48050029040F2EC20C2F23B
:1026B000000002A9FFF752FD002818BFFEF75CF9E1
:1026C0000020CDE9000040F2EC20C2F20000694693
:1026D000FFF740FC002818BFFEF74EF906B080BD9A
:1026E000FEE70000FEE70000704700002DE9F0471C
:1026F00082B00A9C984615460E468146FEF7E0FCDD
:10270000201A00EB0804FEF7DBFC40F20001C2F2E5
:1027100000010968C1F3CB3161430191D9F8001080
:1027200089683140891BB1FA81F14909A94203D175
:10273000002002B0BDE8F087824608F1010709E0F9
:10274000D9F8000080683040801BB0FA80F0400962
:10275000A842EDD0002FF3D0FEF7B2FCA0EB0A00A8
:10276000A04207D201980199002808BF0446481EDC
:102770000190E5E7D9E900014268B1F5827F22F0D6
:10278000E00242600BD1D9F80810B1F5004F02D039
:10279000B1F5806F03D1016821F040010160D9F8E3
:1027A0002810B1F5005F07D1016821F400510160E4
:1027B000016841F400510160012089F851000020B6
:1027C00089F85000032002B0BDE8F0877047000090
:1027D000FEF77CBC70B594B00AAC20462821FDF70A
:1027E0008AFD01200A900E904FF4E01000254FF46E
:1027F00080310226139020460995CDE90755CDE991
:102800000555CDE90355CDE90155CDE90B15CDE9C8
:102810001161FEF775FE20B1EFF3108072B600BFB4
:10282000FEE70F20CDE905064FF48060CDE90805ED
:1028300005A802210795FEF785FD20B1EFF3108072
:1028400072B600BFFEE7022001904FF400400390F3
:1028500001A8FEF7F3FC20B1EFF3108072B600BFC1
:10286000FEE714B070BD00007047000040F2EC209D
:10287000C2F20000FFF742BDFEE7000010B540F6CF
:102880000044C4F2010420464FF400610022FEF728
:1028900011FC0120FEF7FAFA20464FF400610122F4
:1028A000FEF708FC6420BDE81040FEF7EFBA000018
:1028B00010B582B0044600200190FFF7DFFF00F062
:1028C000F9FB00F055F8092000212246062300F00C
:1028D000B5FC01AC012000212246042300F0AEFC2F
:1028E000052000212246042300F0A8FC0F2000212F
:1028F0002246042300F0A2FC02B010BD2DE9F041F5
:1029000082B01F46164688460546FFF7B7FF0020EF
:1029100000218022002400F03DFC0194019842F245
:102920000F71884208DC42F2107000BF019901313A
:10293000019101998142F9DB012000213A460423EB
:1029400000F07CFC052000213246042300F076FCD8
:10295000092000212A46062300F070FC0F200021E8
:102960004246042302B0BDE8F04100F067BC00001D
:10297000F0B581B000260AA7B000BC5D0130C5B239
:102980001F202946224600F005FC1E20294622462B
:1029900000F000FC0136082EEED101B0F0BD00BF02
:1029A0000404020201010101002B08BF70472DE958
:1029B000F04F83B040F60048C4F201089146064645
:1029C0004FEAC10A40464FF4805100221C460025C0
:1029D000FEF770FB40F29427300AC2F200078DF830
:1029E00007004FF0640B0DF107010DF106023846A8
:1029F00001238DF80650CDF800B0FFF785F90DF1F1
:102A0000090102AA384601238DF809608DF80850A3
:102A1000CDF800B0FFF778F90DF10B010DF10A02C6
:102A2000384601238DF80BA08DF80A50CDF800B080
:102A3000FFF76AF93846494622464FF47A73FEF7A3
:102A4000C3FF40464FF480510122FEF733FB03B031
:102A5000BDE8F04F704700002DE9F04383B040F629
:102A60000048C4F2010806464FEAC10940464FF447
:102A7000805100220024FEF71DFB40F29425C2F293
:102A8000000564270DF1050101AA284601238DF8F0
:102A900005408DF804400097FFF736F90DF1070166
:102AA0000DF10602284601238DF807608DF80640D7
:102AB0000097FFF729F90DF1090102AA2846012321
:102AC0008DF809908DF808400097FFF71DF90DF17A
:102AD0000B010DF10A02284601238DF80B408DF8F9
:102AE0000A400097FFF710F99DF80A5040464FF44E
:102AF00080510122FEF7DEFA284603B0BDE8F083DC
:102B00002DE9F047072845D84FEA8009074609F123
:102B10000100C5B28846262029461446FFF79CFFCF
:102B2000064627202946FFF797FF40EA062088B38C
:102B300043F21861C0F6000131F81770A04238BFA7
:102B400004462820294609F1030907F1010AFFF785
:102B500083FF064629202946FFF77EFF40EA062626
:102B600006EA070001191FFA8AF2914215D9AAEB69
:102B700000018FB25FFA89F9A4EB010A4946424687
:102B80003B46FFF711FF08EB07021FFA8AF300200C
:102B9000494606E00020BDE8F0875FFA89F1424629
:102BA0002346FFF701FF2644B0B2020A2820294637
:102BB00000F0F0FAF2B22920294600F0EBFA0120E9
:102BC0002946402200F0E6FA01202946FFF744FF9B
:102BD0000028F9D12046BDE8F08700002DE9F04F2C
:102BE00085B0072801D9002790E04FEA8009074601
:102BF00009F10100C4B20E46262021469046FFF797
:102C00002BFF054627202146FFF726FF40EA052037
:102C100080B343F21860C0F6000030F817A02820F7
:102C200021460296FFF718FF054629202146FFF7A7
:102C300013FF40EA05260AF1010306EA0A0000F143
:102C400008011FFA83FB594509F10302CDE900325F
:102C500012D9191A8DB2D7B2C1F1080903AA39469F
:102C60002B46FFF7A1FE03A842191FFA89F30020A3
:102C7000394604E0002749E0D1B203AA0823FFF750
:102C800093FEBDF8120000BA070C20D006F108052B
:102C900005EA0A00474538BFB84608EB0001594528
:102CA00017D90099029E091A1FFA81FAA8EB0109A7
:102CB000019932465FFA81F841465346FFF774FEA8
:102CC00006EB0A021FFA89F30020414605E00027BF
:102CD0001CE00199029AC9B24346FFF765FE3D44E4
:102CE000A8B2020A2820214600F054FAEAB22920AC
:102CF000214600F04FFA01202146402200F04AFA16
:102D000001202146FFF7A8FE0028F9D1384605B07A
:102D1000BDE8F08F2DE9F04F83B022B1072809D923
:102D20004FF0FF0A01E04FF0000A4FFA8AF003B0BB
:102D3000BDE8F08F884643F21861C0F6000131F813
:102D400010B0154682000BF101000192541C029054
:102D5000FEF7B6F98146E4B220202146FFF77CFE5B
:102D6000064621202146FFF777FE0746032021462D
:102D7000FFF772FE1C2801D017280FD1FEF7A0F92B
:102D8000A0EB0900B0F57A7F4FF0000088BF6FF02C
:102D9000010A98BF012030B9C7E700BF4FF0FF0A12
:102DA00000200028C1D047EA0620A842D4D324201E
:102DB0002146FFF751FE064625202146FFF74CFE2F
:102DC00040EA0627029B07EA0B0041199AB291429A
:102DD00014D9191A8EB2A5EB010A0199424641F0A5
:102DE00002015FFA81F94946334600F07BF908EBAE
:102DF00006021FFA8AF30020494605E0019942467F
:102E000041F00201C9B22B4600F06CF93D44A8B272
:102E1000020A2420214600F0BDF9EAB2252021460D
:102E200000F0B8F901202146202200F0B3F9FEF7A6
:102E300047F9054601202146FFF70EFE38B1FEF79F
:102E40003FF9401B6528F5D34FF0000A6DE74FF0BE
:102E5000000A6AE72DE9F04F83B007284FF0000819
:102E600000F290801546002A00F08C80029143F217
:102E70001861C0F6000131F810B04FEA800A0BF17A
:102E800001000AF101040190FEF71AF98146E4B24B
:102E900020202146FFF7E0FD064621202146FFF7CE
:102EA000DBFD074603202146FFF7D6FD22280FD180
:102EB000FEF706F9A0EB0900B0F57A7F4FF00000AD
:102EC00088BF6FF0010898BF012030B95AE000BFF9
:102ED0004FF0FF080020002854D047EA0620A842FF
:102EE000D6D324202146FFF7B7FD064625202146EC
:102EF000FFF7B2FD40EA0627019B07EA0B004119E4
:102F00009AB2914215D9191A1FFA81FBA5EB010952
:102F10004AF00201029E5FFA81F8414632465B4662
:102F200000F0E0F806EB0B021FFA89F3002041469F
:102F300004E04AF00201029AC9B22B4600F0D2F82E
:102F40003D44A8B2020A2420214600F023F9EAB247
:102F50002520214600F01EF901202146202200F004
:102F600019F9FEF7ADF805464FF00108012021469A
:102F7000FFF772FD30B1FEF7A3F8401B6528F5D3CB
:102F80004FF001084FFA88F003B0BDE8F08F000061
:102F9000072884BF00207047B0B580000130C5B25B
:102FA00014460A460C202946042300F047F9220A59
:102FB0001020294600F0EEF8E2B21120294600F078
:102FC000E9F80120B0BD00002DE9F04381B00728E9
:102FD00003D9002001B0BDE8F08390460246B8F165
:102FE000040F4FF000004BD80E46012101FA08F102
:102FF00011F0160F44D0900001305FFA80F90120E3
:103000004946102200F0C6F80020494642460027F3
:1030100000F0C0F8320A0420494600F0BBF8F2B2D2
:103020000520494600F0B6F801204946012200F08B
:10303000B1F888F0040688F0020588F0010400BFAA
:10304000C72FC6D803204946FFF706FD80F01301BD
:1030500080F0220221432A4380F04200B1FA81F13C
:10306000B2FA82F2304349095209B0FA80F01143B2
:103070004009084304BF00BF01370028E0D0012009
:1030800001B0BDE8F0830000072884BF002070472E
:1030900010B580000130C4B201202146022200F0A8
:1030A00079F803202146FFF7D7FC1438B0FA80F0F6
:1030B000400910BD10B582B00020002180220024FC
:1030C00000F068F80194019842F20F71884207DC21
:1030D00042F2107001990131019101998142F9DBAD
:1030E00002B010BD002B08BF70472DE9F04F83B030
:1030F00040F600480646C800C4F20108914600F1B7
:10310000040A40464FF4805100221C460025FDF77A
:10311000D1FF40F29427300AC2F200078DF8070071
:103120004FF0640B0DF107010DF106023846012343
:103130008DF80650CDF800B0FEF7E6FD0DF109015F
:1031400002AA384601238DF809608DF80850CDF8A1
:1031500000B0FEF7D9FD0DF10B010DF10A02384662
:1031600001238DF80BA08DF80A50CDF800B0FEF7C2
:10317000CBFD3846494622464FF47A73FEF7F0FC01
:1031800040464FF480510122FDF794FF03B0BDE8A3
:10319000F04F70472DE9F04784B040F600480746ED
:1031A000C800C4F20108914600F1040A40464FF4F9
:1031B000805100220025FDF77DFF40F29426C2F2E7
:1031C000000664240DF1090102AA304601238DF89E
:1031D00009508DF808500094FEF796FD0DF10B0193
:1031E0000DF10A02304601238DF80B708DF80A505C
:1031F0000094FEF789FD0DF10D0103AA304601236D
:103200008DF80DA08DF80C500094FEF77DFD0DF1AA
:103210000F010DF10E02304601238DF80F908DF84D
:103220000E500094FEF770FD40464FF4805101228D
:10323000FDF740FF04B0BDE8F0870000002B08BF99
:1032400070472DE9F04F83B0054640F60040C900B5
:103250009346C4F201000F1D4FF4805100221C461A
:103260004FF00009FDF726FF40F29428280AC2F229
:1032700000088DF805004FF0640A0DF1050101AA60
:10328000404601238DF80490CDF800A0FEF73CFDE8
:103290000DF107010DF10602404601238DF807509C
:1032A0008DF80690CDF800A0FEF72EFD0DF1090176
:1032B00002AA404601238DF809708DF80890CDF8D8
:1032C00000A0FEF721FDABF101060DF10B050DF19C
:1032D0000A0700BF16F8010F29468DF80B0040467B
:1032E0003A4601238DF80A90CDF800A0FEF70CFDB8
:1032F000013CEFD140F60040C4F201004FF4805190
:103300000122FDF7D7FE03B0BDE8F04F7047000083
:1033100040F25C10C2F2000090F8300001A151F8B8
:1033200020000047090500081504000819080008D6
:10333000690500089D060008C50300086D06000821
:10334000E1040008E504000810B54FF0F00E03E0BA
:1033500000234FF0000CEBB11FFA8EF48C421BD20D
:10336000035DFF2BF4D01BB90EF1010E08E000BF86
:103370000444934206D104F1020C934208D000BFEA
:103380000123E8E76478744404F1020E9342F7D114
:103390000023E0E7604610BD002010BDB4B040F649
:1033A0000045C4F20105FDF79FFEFFF713FAFFF792
:1033B000B9F8FFF78DF8FFF75BF8FFF72FF9FFF784
:1033C00053F928464FF480510122FDF773FE284639
:1033D0004FF4006100220026FDF76CFE00F0E8F8D3
:1033E00000F0E0F8FFF764FA40F2EC20C2F20000CF
:1033F000FEF780FE002041F288310122FFF7E4FD54
:1034000010B10020FFF740FE5FA0416840F2343465
:103410000691816840F290180591C16840F2C41984
:1034200004910169C2F2000403914169806902912B
:1034300001904DA0416890F81AB00C91816805F593
:10344000806A0B91C168C2F200080A910169C2F258
:1034500000090991416914AD0891018B0DAF0791E5
:103460000BE0002041F288310122FFF7ADFD002082
:10347000FFF70AFE0A20FDF709FDFDF721FE21688E
:10348000401AB0F5FA7F0AD9FDF71AFE20603920FC
:103490000021FFF7E1FA2E200021FFF7DDFA98F86E
:1034A000000018B188F80060FFF732FF99F80000BB
:1034B0000028E2D003200121FFF7CEFA0028D0D067
:1034C0001C2826D01728D5D1002029468022FFF7B6
:1034D00017FB0028CED02E54284622A1FCF7AEFEC2
:1034E000E8B150464FF400510022FDF7E3FD1E48BD
:1034F0008DF84EB00D900C980E900B980F900A9886
:10350000109009981190089812900798ADF84C0007
:103510001FE0012001210822FFF73CFEAAE7284610
:1035200018A1FCF78BFE0028A4D050464FF40051A0
:103530000122FDF7BFFD14480D9006980E900598E6
:103540000F9004981090039811900298129001988F
:1035500013903846FCF7B0FE82B200203946FFF7E0
:10356000D9FB87E74F4E0000436F6D6D616E64209D
:1035700052656365697665643A204C4544204F4E38
:103580000D0A00004F464600436F6D6D616E64206A
:1035900052656365697665643A204C4544204F4620
:1035A000460D0A0040F25410C2F2000070470000BD
:1035B00040F25410C2F200004FF4817101800121E9
:1035C00081704FF2E871C1F6FF710A68C2704A68F3
:1035D000120A02718968417170470000006840F268
:1035E0003831C2F20001086070470000006840F204
:1035F0003C31C2F20001086040F2C410C2F2000087
:10360000012101707047000000000000000001026D
:103610000304060708090102FF0FFF0FFF07FF075A
:10362000FF03FF03FF03FF03020304050607080966
:103630000A0B0C0D0E0F1010583600080000002069
:103640001000000028010008683600081000002063
:10365000380900004401000800127A00010000004F
:08366000100000000000000052
:04000005080000ED02
:00000001FF
