:020000040800F2
:10000000F808002061020008B14D0008A94A000864
:10001000AD4D0008D91A0008C153000800000000C7
:10002000000000000000000000000000B1500008C7
:100030004D1B000800000000214E00080951000877
:100040007B0200087B0200087B0200087B0200089C
:100050007B0200087B0200087B0200087B0200088C
:100060007B0200087B0200087B020008DD1A000802
:100070007B0200087B020008ED1A00087B020008E2
:100080007B0200087B0200087B0200087B0200085C
:100090007B0200087B0200087B0200087B0200084C
:1000A0007B0200087B0200087B0200087B0200083C
:1000B000A55100087B0200087B0200087B020008B3
:1000C0007B0200087B0200087B0200087B0200081C
:1000D0007B0200087B0200087B0200087B0200080C
:1000E0007B0200087B0200087B02000800F002F897
:1000F00000F0A6F814A696E8000CB244B344DA4522
:1001000001D100F09DF8BAE80F000FA696E8300084
:10011000A5EB040504EB0607AAEB0704A7F101070A
:100120004FEA15154FEA3414A4F10104AC4201D38F
:1001300000F086F813F0010F18BFFB1A43F001031B
:1001400000F001F8DBE71847AC750000CC75000043
:10015000103A24BF78C878C1FAD8520724BF30C8F3
:1001600030C144BF04680C60704700007047000055
:100170000023002400250026103A28BF78C1FBD8B0
:10018000520728BF30C148BF0B6070476E2900F08E
:10019000BF81702900F00383662907F07481652907
:1001A00007F07181672907F06E81612907F06D8181
:1001B00003681B0A28BF41F08001692900F06C81A7
:1001C000642900F06981752900F066816F2900F0CB
:1001D0009182782900F0CF82E92900F02B82E4296E
:1001E00000F02882F52900F02582EF2900F08E82A8
:1001F000F82900F0CE820368DB0928BF41F08001B6
:10020000632901F00580732901F00A80E32901F0D8
:100210001580F32901F01A80002070471FB501F006
:100220006FF804000020002106F062F9401C6060B5
:100230000020002106F046F9E0601FBD10B510BD9A
:1002400001F030F81146FFF7E9FF05F0CBFB01F0B4
:100250000DF903B4FFF7F2FF03BC01F051F9000000
:100260000948804709480047FEE7FEE7FEE7FEE74A
:10027000FEE7FEE7FEE7FEE7FEE7FEE70448054986
:10028000054A064B70470000A1510008ED00000828
:10029000F8020020F8080020F8040020F8040020EC
:1002A0000FB41CB50C0007AA009007D04142A14230
:1002B00002D32044401E01E04FF0FF30074B7B4447
:1002C00069460190069800F03CF90021002C01D00D
:1002D000009A11701CBC5DF814FB0000A70200001E
:1002E000032A40F2308010F0030C00F0158011F862
:1002F000013BBCF1020F624498BF11F801CB00F83A
:10030000013B38BF11F8013BA2F1040298BF00F88D
:1003100001CB38BF00F8013B11F0030300F00E835E
:10032000083AC0F0088051F8043B083A51F804CB71
:10033000A0E80810F5E7121D5CBF51F8043B40F837
:10034000043BAFF30080D20724BF11F8013B11F842
:1003500001CB48BF11F8012B24BF00F8013B00F886
:1003600001CB48BF00F8012B70474FF0000200B5E9
:10037000134694469646203922BFA0E80C50A0E8C8
:100380000C50B1F12001BFF4F7AF090728BFA0E876
:100390000C5048BF0CC05DF804EB890028BF40F842
:1003A000042B08BF704748BF20F8022B11F0804F84
:1003B00018BF00F8012B704770477047704710B5A1
:1003C00000F0EEFA006810BD10B5044600F0E8FA3F
:1003D000046010BD70B5044685690068C10601D58A
:1003E000302600E02026C00707D070BDD4E90121E7
:1003F00030469047206A401C20626D1EF6D570BDC5
:1004000070B5044685690078C00707D170BDD4E98E
:10041000012120209047206A401C20626D1EF6D5E5
:1004200070BD09684A0501D540B27047C905FCD5C1
:1004300000B2704709684A0501D5C0B27047C905C6
:10044000FCD580B2704770B50C460546012A05D030
:100450002878800600D5EA69002302E0012305E040
:100460005B1C934202D2E05C0028F9D1A869E6182F
:10047000C01AA861286A184428622846FFF7AAFF14
:1004800004E0D5E9012114F8010B9047B442F8D3F8
:100490002846FFF7B5FF70BD2DE9F0410646002460
:1004A00010687529314616A510D0FFF7BAFF00284D
:1004B00002DA404213A507E031688A0701D512A588
:1004C00002E0490704D511A5012401E0FFF7B2FFBE
:1004D00000210A2206F1240709E0B0FBF2FCB0FB80
:1004E000F2F302FB1C00303078541846491C0028F7
:1004F000F3D123462A463046BDE8F04100F099BAD0
:10050000000000002D0000002B0000002000000073
:1005100011680268006A530501D508700AE0D30526
:1005200001D5088006E0130603D5C217C1E9000211
:1005300000E008600120704701694A1C02610878E8
:10054000704700B58FB0CDE9013100210591054913
:100550007944CDE903101146684600F02BF90FB03D
:1005600000BD0000E5FFFFFFD1E900239A4202D25F
:10057000531C0B60107070472DE9FF5F15468A46CB
:100580000446DFF8AC80F8440027D8E900103E4666
:10059000CDE9001010E03AF816106A4602A800F003
:1005A00059FE411C07D02178890603D5E269391824
:1005B00091420DD80744761C2078800602D5E06968
:1005C000B84205DDAE42E6DB3AF816000028E2D17B
:1005D000A069C01BA0612046FFF7FCFED8E900100F
:1005E000CDE90010002017E03AF818106A4602A87A
:1005F00000F030FEB0F1FF3F81460BD000250DF139
:10060000080B05E0D4E901211BF8050090476D1C9B
:100610004D45F7D308F10100B0428046E4DB206A83
:10062000384420622046FFF7EBFEBDE8FF9F000044
:10063000267000002DE9F0418046D21D22F007020D
:100640000025D2E90002F52915A614D0011E72F189
:10065000000106DA0023D0EB030063EB020211A6CF
:1006600008E0D8F800108B0701D50FA602E0490773
:1006700001D50EA601251146002408F1240704E047
:1006800000F092F930323A55641C50EA0102F7D179
:100690002B46324621464046BDE8F04100F0C9B93C
:1006A000000000002D0000002B00000020000000D2
:1006B00030B4002100F1240408E002F00705D2085C
:1006C000303542EA4372DB086554491C52EA03059F
:1006D000F3D10468002310A2250708D504F02004F4
:1006E0000C4304D0C46901230CA2641EC46130BC55
:1006F00000F09FB910B5044621461068FFF79AFE36
:1007000002462046BDE810400023D1E7D21D22F06A
:100710000701D1E90023CBE7000000003000000012
:10072000F0B40D460188090502D5214C7C4402E055
:100730001F4C7C440E34002100F1240608E002F036
:100740000F071209E75D42EA03721B097754491C3F
:1007500052EA0307F3D102780023120704D5702D63
:1007600006D009B1022311342246F0BC00F061B971
:1007700001231034F8E770B504460D462146106891
:10078000FFF758FE024629462046BDE87040002388
:10079000C6E7D21D22F00703D3E90023C0E70368B0
:1007A000126843F0200303600823C3610023B7E706
:1007B000886E00002DE9F05F894604464FF0000A7C
:1007C000DFF874B1FB44C0F820A02046E1688847F8
:1007D000002874D0252806D0D4E901219047206A4A
:1007E000401C2062F1E700265F462046E16888470A
:1007F0002028054607DB312D05D2781910F8200C8A
:1008000008B10643F1E7B00701D526F00406C4F8A5
:100810001CA00027C4F818A02A2D09D0284605F0EE
:1008200081FD38B304EB8708303DC8F8185019E053
:1008300059F8041B204604EB87029161E168884760
:10084000012F054618D1E069002820DA26F020069D
:100850001DE0D8F8180000EB800005EB40003038B0
:10086000C8F818002046E1688847054605F05AFD9B
:100870000028EED1012F0AD02E2D08D12046E168A4
:1008800088477F1C0546022F46F02006C4DBA0697E
:10089000002803DA404246F00106A061F00701D0CB
:1008A00026F010066C2D0BD0682D09D04C2D39D0B8
:1008B0006A2D35D0742D35D07A2D33D016E038E03E
:1008C000E1682F4620468847B842054609D16C2F7B
:1008D00026D04FF48060E1680643204688470546ED
:1008E00004E06C2F1AD04FF4807006430DB3A5F1CD
:1008F0004100192802D8203546F400664A462946A8
:10090000204626604E46FFF741FC80B101280BD0FF
:10091000F61D26F0070000F1080956E74020E4E73D
:100920008020D8E70020D6E706F104094DE72846E5
:1009300052E7206ABDE8F09F186E000010B5203A1B
:10094000C0F00B80B1E81850A0E81850B1E818507A
:10095000A0E81850203ABFF4F5AF5FEA027C24BF4C
:10096000B1E81850A0E8185044BF18C918C0BDE835
:1009700010405FEA827C24BF51F8043B40F8043BFE
:1009800008BF7047D20728BF31F8023B48BF11F8B3
:10099000012B28BF20F8023B48BF00F8012B70470D
:1009A000004870471000002030B5B0F10A0271F124
:1009B00000034FEA900E4EEA817EB0EB0E0061EB31
:1009C00091014FEA101E4EEA017E10EB0E0041EB42
:1009D00011114FEA102E4EEA016E10EB0E0041EBA2
:1009E00011214FEA104E4EEA014E10EB0E0041EB82
:1009F0001141401841F100014FEAD00040EA417036
:100A00004FEAD1014FEA810444EA907410EB80056B
:100A100044EB01046D1944EB0404521BA3414FF055
:100A2000000348BF0A3200D530BD401C41F100012F
:100A300030BD2DE9F0470D4699469246044600F137
:100A400024080168880604D5E06921F010012160BE
:100A500000E00120A84201DD471B00E00027A1695A
:100A60007A1902EB0900081AA0612078C00602D4A6
:100A70002046FFF7AFFC002608E0D4E901211AF870
:100A800006009047206A401C761C20624E45F4DB2D
:100A90002078C0060AD52046FFF79CFC06E0D4E982
:100AA000012130209047206A401C2062381EA7F1A7
:100AB0000107F4DC07E0D4E9012118F805009047AC
:100AC000206A401C2062281EA5F10105F3DC2046A7
:100AD000FFF796FC2078000602D50220BDE8F087DB
:100AE0000120FBE72DE9FF4F0C461E464FF0FF3774
:100AF0008BB0D2E90001DDF860800A908A46C1F32C
:100B00000A5505B93D46002108464FF00000BAF1EC
:100B1000000F00F4400005DA00EB80004FF44001C4
:100B200001EA50004FEA9059B9F1010F00DDB946D2
:100B30000A9850EA4A000ED044F61050A5F2FF354C
:100B400045432F14B8F1000F1ED07542291E1EDD3B
:100B5000C9F100021CE0B8F1010F4FF0000001D014
:100B6000302103E0F24305E02154401CB042FBDB9E
:100B700030460022002121540B99C1F80880C1E9B8
:100B800000200FB0BDE8F08FBD1B6D1CDEE74A46AC
:100B900000DA694206A800F0F7FB06AB93E807000D
:100BA00003AB83E8070050460A9904F0D3FF8DE8B1
:100BB0000700A0F500501F3800900398002D0ADDB3
:100BC00042F21F014A460844002303A903906846E5
:100BD00005F03CFA09E0A0F500504A461F38002312
:100BE00003A90390684605F046FA8DE80700000463
:100BF000000C03D04FF0FF30410800E01046B8F180
:100C0000000F03D00022009215461EE0751E05D489
:100C1000FFF7CAFE303262556D1EF9D5B346012288
:100C2000084302D000227F1C04E02078302801D144
:100C300000227F1E002A099784D01DE0112D07DABB
:100C4000FFF7B2FE303262556D1C50EA0102F5D159
:100C5000084302D00098C8B10EE00021681E05E0EC
:100C6000235C625C63542254401E491C8142F7DBC2
:100C7000AB46A81B401E0990002004F80B000B98FF
:100C8000099AC0F80880C0E9002B7AE711264FF0D6
:100C9000000857E72DE9F04F88460446D21D22F0A0
:100CA000070191B0D1E90001CDE90A0105F01AFB75
:100CB00002460B98C00F01D02D2007E02068810765
:100CC00001D52B2002E0202101EAC000032A09906F
:100CD00001D0072A05DB03464146204600F014FBFD
:100CE0000BE12078800601D5E06900E00620B8F12C
:100CF000650F814606D0B8F1660F18D0B8F1670FBE
:100D000070D131E00020B9F1110F009001DB112307
:100D100001E009F101030AAA01A90CA8FFF7E2FE0C
:100D2000DDE90C70002609F10105834647E001204A
:100D30004B4600904FF000470AAA01A90CA8FFF704
:100D4000D1FEDDE90DB00C995D46002610B909F120
:100D500001000D18B9EB050003D4C0F1FF3609F10D
:100D60000105A5EB09002BE0B9F1010F01DA4FF005
:100D700001090020B9F1110F0090484601DD11234F
:100D800000E003460AAA01A90CA8FFF7ABFEDDE9C3
:100D90000C704D4600268346207800070AD4AB45E8
:100DA00000DA5D4601A8012D04DD411911F8011C8E
:100DB000302907D04F4502DA17F1040F04DA012079
:100DC00082460FE06D1EEEE7002F02DCED1B3E4475
:100DD00003E0781CA84200DD7D1CB81B00F1010A6D
:100DE0004FF000472078000703D4AA4501DB4FF0FD
:100DF000FF3A0021B7F1004F0DF143088DF8431081
:100E000024D002202B23002F01DA7F422D230A2138
:100E1000021EA0F1010000DC5FB197FBF1FC97FB23
:100E2000F1F201FB1C7C17460CF1300C08F801CDE7
:100E3000EEE7A8F1010003702188090501D54521DD
:100E400000E06521A0F1010800F8011C09980FA934
:100E5000A1EB0807FF1D00B10120411901EBEA7069
:100E6000A1693844081A401EA0612078C00602D447
:100E70002046FFF7AFFA099828B1D4E9012190473D
:100E8000206A401C20622078C00622D52046FFF749
:100E9000A1FA1EE0002E04DBB34502DD01A8805D4F
:100EA00000E03020D4E901219047206A401C2062F4
:100EB000761CAAF101005FEA000A0AD100F020FACC
:100EC000C0680168405CD4E901219047206A401C59
:100ED0002062281EA5F10105DCDC07E0D4E9012130
:100EE00018F8010B9047206A401C2062381EA7F1B9
:100EF0000107F3DC2046FFF783FA032011B041E637
:100F00002DE9F04F04460D46D21D22F0070089B0AE
:100F1000D0E900974846394605F0E4F90246F80F53
:100F200001D02D2307E02068810701D52B2302E0A3
:100F3000202101EAC0038DF820300BB1012000E030
:100F40000020032A824601D0072A04DB29462046D6
:100F500000F0DAF93FE12078800601D40D2500E0A9
:100F6000E569C7F30A560D2D49DA00214FEA175BF0
:100F700008464FF00000002F00F4400007DA00EBB5
:100F800080004FF4400100EBD07001EA6000811551
:100F9000012901DD4FF0FF3100224FEA850CBCF141
:100FA000180F06D31346ACF118004FF08052C24020
:100FB00003E04FF4801323FA0CF30CF10C0CBCF19A
:100FC000200F04D3ACF1200C09FA0CF001E007FA71
:100FD0000CF000294FF0004801DD18B90FE00ED1E8
:100FE00040450CD319EB02095F4121B9404502D1BC
:100FF0009F4329EA0209BBEB175F00D0761C2088CB
:10100000000502D57B48784402E07A4878441938D4
:1010100008AA302302F80A30037C0AF10101002EED
:101020000AF1020A53546A4602DC4FF0300101E033
:101030004FF031014FF001088DF8001002D0A6F2F8
:10104000FF3603E059EA470100D06B4E002D02DC69
:101050002178090704D54FF002082E218DF80110E0
:10106000C44600210BE0C7F303433F01C35C491CA6
:101070006D1E02F80830052908F1010801DA002D7B
:10108000F1DC00210CE000EB1973491C1B786D1E8C
:10109000082902F808304FEA091908F1010801DAB5
:1010A000002DF0DC21688B0602D516E0A8F10108BE
:1010B000E04505DD02EB080313F8013C302BF5D0C9
:1010C000B8F1000F09DD02EB080313F8013C2E2BE9
:1010D00003D1090701D4A8F10108002D05DD3E2147
:1010E00002F808106D1E08F10108407C002E02F87D
:1010F000080008F1010804DA2D20764202F8080001
:1011000002E02B2002F808000A214FF47A70864290
:1011100008F101080BDB96FBF0F3303302F80830DE
:1011200096FBF0F308F1010800FB136601E0642E62
:101130000CDB642096FBF0F3303302F8083096FBAA
:10114000F0F308F1010800FB136601E00A2E06DB4C
:1011500096FBF1F0303002F8080008F1010896FB28
:10116000F1F001FB1060303002F80800A16908F1CD
:10117000010808EB050202EB0A00081AA0612078BA
:10118000C00602D42046FFF725F9216A08AE01EB1C
:101190000A00206204E0D4E9012116F8010B90470F
:1011A000BAF1010AF7D22078C00602D52046FFF72F
:1011B00011F96E4609E016F8010B3E280FD0D4E96C
:1011C00001219047206A401C2062B8F10108F2D248
:1011D0002046FFF715F909B00320BDE8F08F206A1B
:1011E0002844206203E0D4E90121302090476D1E9D
:1011F000EBD3F8E7FA65000002FCFFFF10B5436986
:1012000013B1AFF3008001E0FFF71DF9012010BD1D
:10121000127800F124010A7000224A700122EDE7E1
:1012200011684FF0FF32E9E710B5436913B1AFF32E
:10123000008001E0FFF7A0F9012010BD128800F145
:10124000240182840022C2840122EDE711684FF05C
:10125000FF32E9E72DE9F04116460C46054600F05D
:1012600047F8036893F80101012807D0FF2C12D832
:10127000185D80B101202C70BDE8F081D3F8070122
:101280003246214603F20713C7182846BC46BDE87C
:10129000F041002360474FF0FF30EDE70048704712
:1012A000100000207546FFF7F9FFAE4605006946BD
:1012B000534620F00700854618B020B5FEF7DEFF44
:1012C000BDE820404FF000064FF000074FF0000847
:1012D0004FF0000BAC46ACE8C009ACE8C009ACE884
:1012E000C009ACE8C00921F007018D467047000035
:1012F00010B500F005F8001D10BD00BFF55100004D
:1013000000487047300000202DE9F0411F46044698
:1013100003260168072A01F4006004DB08B116A562
:1013200005E016A503E008B115A500E015A521F01C
:1013300010002060A069C01EA0610FB1401EA06116
:101340002046FFF747F84FB1D4E9012138469047CE
:10135000206A401C2062C01C206206E0206AFAE776
:10136000D4E9012115F8010B9047761EF8D22046EA
:10137000FFF746F8BDE8F0814E414E006E616E0009
:10138000494E4600696E66002DE9F04781461646D3
:101390008AB0354878440DC88DE80D00324878444D
:1013A000801C03AC0DC884E80D0041F69B30084456
:1013B000372190FBF1F290FBF1F5A5F1800501FBDF
:1013C00012041B3C02D56442012000E00020DFF83B
:1013D00098A080460027FA44AAF1BE0A0EE0E00772
:1013E0000AD03246684607EB470101230AEB810128
:1013F00004F041FE8DE8070064107F1C002CEED144
:10140000194F7F44AE3F19E0E80715D007EB0410F1
:101410000DF1180A90E80E008AE80E00C068F0424C
:1014200001D1981908903246012306A903A804F0B7
:1014300022FE03AB83E807006D10641C002DE3D18E
:101440004FF0010332466946B8F1000F03A802D0FD
:1014500004F0FCFD01E004F00EFEC9E90001C9F84A
:1014600008200AB0BDE8F087FC62000010B5044611
:10147000AFF300802046BDE81040FEF7EABE000052
:101480004FF0013C50F8042B51F8043B9A4221D113
:10149000A2EB0C03934313EACC1317D150F8042B9F
:1014A00051F8043B9A4215D1A2EB0C03934313EA83
:1014B000CC130BD150F8042B51F8043B9A4209D1BC
:1014C000A2EB0C03934313EACC13DBD04FF00000E4
:1014D000704700BFD01A01BAB1FA81F101F01801CA
:1014E00022FA01F0CB40DBB2C0B2C01AC1F1200138
:1014F0002CFA01F3D11A914311EAC311E6D17047D6
:1015000001491820ABBEFEE726000200704700002C
:1015100080B584B002900020019002980068806835
:10152000C00770B3FFE702980168886820F00100E7
:10153000886001F06FFB0190FFE702980068806807
:10154000C007E8B1FFE701F065FB0199401A0328E5
:1015500015D3FFE7029800688068C00770B1FFE705
:101560000299886A40F0100088620299C86A40F0C7
:101570000100C86201208DF80F0006E0FFE7DCE7FC
:10158000FFE700208DF80F00FFE79DF80F0004B083
:1015900080BD000080B582B001900198406A009043
:1015A0000098806A10F0500F28D1FFE70099886AF0
:1015B00040F40070886200980068806800F4602041
:1015C000B0F5602F16D1FFE70098007B90B9FFE7D8
:1015D0000099886A20F4807088620098806AC0044C
:1015E000002806D4FFE70099886A40F0010088626D
:1015F000FFE7FFE7009800F08DFB05E00098006A28
:10160000016B01988847FFE702B080BD80B582B0CA
:1016100001900198406A00900099886A40F040006B
:1016200088620099C86A40F00400C862009800F01F
:101630009DFC02B080BD000080B582B00190019891
:10164000406A0090009800F08DFC02B080BD000060
:1016500080B584B00290002001900090029800684C
:101660008068C007002849D1FFE7029801688868B0
:1016700040F00100886040F20000C2F20000006803
:101680004DF68361C4F21B31A0FB0110800C009069
:10169000FFE7009820B1FFE7009801380090F8E7D5
:1016A00001F0B8FA0190FFE7029800688068C0076F
:1016B00018BBFFE701F0AEFA0199401A03281BD3CB
:1016C000FFE7029800688068C007A0B9FFE70299A9
:1016D000886A40F0100088620299C86A40F00100F0
:1016E000C862FFE70299002081F82400FFE701208B
:1016F0008DF80F0006E0FFE7D6E7FFE700208DF842
:101700000F00FFE79DF80F0004B080BD80B50020FA
:1017100001214FF4FA6200F03DF980BD80B582B03E
:101720008DF807008DF806109DF8070040F2800143
:10173000C2F2000191F90310884209DBFFE70020A3
:101740008DF807009DF8060001308DF80600FFE7D0
:101750009DF8060040F28001C2F2000191F90210EA
:10176000884204DBFFE700208DF80600FFE79DF8C4
:10177000061047F2D060C0F60000405C9DF80710EC
:10178000084440F08000C1B20020322200F002F98B
:101790009DF8070040F28001C2F2000108709DF838
:1017A0000600487002B080BD80B586B08DF8170085
:1017B0008DF8161000F042F82820029004F082F80C
:1017C000002004903021019100F04AF9052004F036
:1017D00079F80199049800F043F9642004F08AF83C
:1017E0000199049800F03CF90498202100F038F9A0
:1017F000029904983222039200F0CCF8039A0498DC
:10180000082100F0C7F8049801214FF4FA6200F0B3
:10181000C1F8039A04980C2100F0BCF804989DF8D4
:10182000172040F28001C2F20001CA709DF8162014
:101830008A700870487006B080BD000080B588B01E
:10184000FFE741F21800C4F20200016841F02001F4
:101850000160006800F0200003900398FFE701207A
:1018600005900021069103210791049040F6004065
:10187000C4F20100019004A9029101F023F801983B
:1018800002990222049201F01DF80198029908229F
:10189000049201F017F8019802991022049201F0C5
:1018A00011F8019802992022049201F00BF8019896
:1018B00002994022049201F005F8019802998022D1
:1018C000049200F0FFFF08B080BD000080B582B038
:1018D0008DF807009DF807100120322200F05AF819
:1018E00040F28001C2F2000108780130087040B275
:1018F00091F9031088421FDBFFE740F28001C2F23A
:1019000000010020087048780130487040B291F919
:101910000210884207DBFFE740F28001C2F20001BB
:1019200000204870FFE740F28001C2F20001087811
:101930004978FFF7F3FEFFE702B080BD80B582B0C3
:101940000190FFE70198007838B1FFE70198411C4A
:1019500001910078FFF7BAFFF4E702B080BD000004
:1019600080B584B040F60040C4F201000190082127
:101970000291012201F036F91420039003F0BAFF1E
:1019800001980299002201F02DF9039803F0B2FFAB
:1019900004B080BD80B588B08DF81F008DF81E1092
:1019A00006929DF81E008DF817009DF81F2040F646
:1019B0000040C4F201000390012101F013F90398E3
:1019C0000221002201F00EF903989DF81710CA09B0
:1019D0008021009101F006F903989DF81710C1F3DA
:1019E00080124021019101F0FDF803989DF8171035
:1019F000C1F340122021029101F0F4F803989DF800
:101A00001710C1F300121021049101F0EBF8FFF759
:101A1000A7FF009903989DF81720C2F3C00201F0B8
:101A2000E1F8019903989DF81720C2F3800201F0B4
:101A3000D9F8029903989DF81720C2F3400201F0EB
:101A4000D1F8039804999DF8172002F0010201F0E3
:101A5000C9F8FFF785FF069803F04CFF08B080BD7A
:101A600080B584B08DF80F008DF80E109DF80E0033
:101A70008DF80D0040F60040C4F2010002900121F3
:101A80000022019201F0AEF8019A0298022101F0C1
:101A9000A9F802989DF80D10CA09802101F0A2F85A
:101AA00002989DF80D10C1F38012402101F09AF8C0
:101AB00002989DF80D10C1F34012202101F092F818
:101AC00002989DF80D10C1F30012102101F08AF860
:101AD000FFF746FF04B080BDFFE7FEE780B540F2A8
:101AE0007C10C2F2000000F0C9FC80BD80B540F25D
:101AF000C010C2F2000000F0C1FC80BD84B00390B1
:101B00000291019200930398C16B026C01209040F6
:101B10004860009803990968486003984068102855
:101B200009D1FFE701980399096888600298039931
:101B30000968C86008E002980399096888600198FC
:101B400003990968C860FFE704B070477047000058
:101B500081B0EFF3108072B60090FFE7FEE700005F
:101B600085B00390029100208DF807000090FFE7F8
:101B7000039890F82400012804D1FFE702208DF893
:101B80001300C3E00399012081F82400FFE7FFE779
:101B900002984068062812D8FFE703980068406B57
:101BA000029A1168526802EB8202053A1F239340A1
:101BB00098439140084303990968486329E00298D3
:101BC00040680C2812D8FFE703980068006B029A5F
:101BD0001168526802EB8202233A1F239340984314
:101BE0009140084303990968086311E0039800686D
:101BF000C06A029A1168526802EB8202413A1F23BE
:101C0000934098439140084303990968C862FFE7ED
:101C1000FFE7029800680A2812D3FFE703980068DC
:101C2000C06802990A68896802EB42021E3A0723DB
:101C3000934098439140084303990968C86010E0B5
:101C400003980068006902990A68896802EB4202F9
:101C5000072393409843914008430399096808611A
:101C6000FFE702980068102805D0FFE70298006897
:101C7000112840D1FFE70398006842F20041C4F206
:101C8000010188422DD1FFE70398006880680002B7
:101C9000002825D4FFE703980168886840F4000015
:101CA000886002980068102819D1FFE740F2000010
:101CB000C2F2000000684DF68361C4F21B31A0FB44
:101CC0000110800C00EB800040000090FFE70098BE
:101CD00020B1FFE7009801380090F8E7FFE7FFE741
:101CE00008E00399886A40F02000886201208DF89E
:101CF0000700FFE7FFE7FFE70399002081F82400D2
:101D0000FFE79DF807008DF81300FFE79DF813002B
:101D100005B0704780B59EB01D9000201C901B90B0
:101D20008DF86B00FFE79DF86B0005F0D7F90021F7
:101D3000C4F2C82105F0BBF890B9FFE79DF86B101D
:101D400040F28400C2F2000030F811101C980844E0
:101D50001C90FFE79DF86B0002308DF86B00E2E706
:101D600001208DF86A00FFE79DF86A0005F0B6F9DA
:101D70000021C4F2C82105F09AF890B9FFE79DF858
:101D80006A1040F28400C2F2000030F811101B9873
:101D900008441B90FFE79DF86A0002308DF86A0046
:101DA000E2E71C9805F0B2F90021C4F24821009145
:101DB00005F09EF840F27001C2F200010191086046
:101DC0001B9805F0A3F9009905F092F801460198D7
:101DD00040F27402C2F200020692116000684FF2F3
:101DE0000001C4F27F51059105F082F804F0B6FFBE
:101DF00047F2C962C9F6BE72099242F61A73C4F27A
:101E00000A030A9304F0BEFD04F088FB19901998A8
:101E1000029047F60001C4F21B61079105F0F2F948
:101E200004F09CFF024602980392049104F096FF8E
:101E3000024609980B460A9904F0A2FE024603984E
:101E40000B46049904F044FC04F068FB18901898C1
:101E500045F20001C4F2437105F04AF804F06AFA51
:101E60004EF20001C4F276510D9105F041F84CF6A6
:101E70000F71C3F65B310E9104F09CFF1790179918
:101E80004FF07E500F9005F033F81690169804F03E
:101E900065FF4FF06632109241F26623C4F271037F
:101EA000119304F06DFE04F039FB05990246069883
:101EB00040F27803C2F200031A60006805F018F8D7
:101EC00004F04CFF099A0A9B04F05CFD04F026FB29
:101ED000079915901598089005F094F904F03EFFC5
:101EE000024608980B920C9104F038FF02460998BC
:101EF0000B460A9904F044FE02460B980B460C99D7
:101F000004F0E6FB04F00AFB1490149844F200017C
:101F1000C4F21C6104F0ECFF04F00CFA0D9904F01B
:101F2000E7FF0E9904F046FF01460F9813911399AD
:101F300004F0DEFF1290129804F010FF109A119B2B
:101F400004F01EFE04F0EAFA40F27C01C2F2000145
:101F5000086040F2EC21C2F20001012008701EB0BE
:101F600080BD000081B0009001B0704781B000904A
:101F700001B0704780B588B0069000208DF817003A
:101F8000049003900290069820B9FFE701208DF895
:101F90001F00F4E00698806830B1FFE70698007DE6
:101FA00008B1FFE7FFE7FFE70698806A50B9FFE74F
:101FB00006990020C862069981F82400069800F06E
:101FC000E3F8FFE70698FFF7A3FA8DF817000698E5
:101FD000806AC006002800F1C480FFE79DF8170062
:101FE000002840F0BE80FFE70698806A40F00200BB
:101FF00020F488500699886206994868CA69104397
:10200000097B40EA410103980843039006988168E0
:102010000120B1F5807F019008D0FFE70698806825
:102020000138B0FA80F040090190FFE70199049867
:10203000CA0740F48071002A18BF08460490069829
:10204000007D01281ED1FFE70698007B70B9FFE7ED
:10205000069881694EF20000CFF6FF7000EB413028
:102060000499084340F4006004900AE00699886AE5
:1020700040F0200088620699C86A40F00100C862FA
:10208000FFE7FFE706980068406820F4694004997C
:1020900008430699096848600698006880684FF20E
:1020A000FD71CFF6E171084003990843069909686C
:1020B0008860069881680120B1F5807F009008D083
:1020C000FFE7069880680138B0FA80F04009009078
:1020D000FFE7009800F00100002818BF4FF480705F
:1020E000B0F5807F09D1FFE7069801690020CFF69F
:1020F000F07000EB01500290FFE706980068C06A9C
:1021000020F470000299084306990968C86206988D
:102110000068806840F6FE61CFF61F7108400399A1
:1021200088420CD1FFE706990020C8620698806AB1
:1021300040F0010020F002000699886210E0069845
:10214000806A40F0100020F002000699886206992B
:10215000C86A40F00100C86201208DF81700FFE74F
:1021600008E00699886A40F01000886201208DF826
:102170001700FFE79DF817008DF81F00FFE79DF897
:102180001F0008B080BD000080B588B00790002017
:1021900006900590049003900798006842F2004171
:1021A000C4F20101884252D1FFE7FFE741F2180073
:1021B000C4F20200016841F400710160006800F49B
:1021C000007002900298FFE7FFE741F21800C4F2A6
:1021D0000200016841F004010160006800F00400A1
:1021E00001900198FFE7062003900320049040F639
:1021F0000000C4F2010003A900F064FB40F27C106F
:10220000C2F2000000900821C4F202010160002126
:10221000416081608022C2604FF4807202614FF49D
:102220008062426120228261C16100F06BFA18B1C4
:10223000FFE7FFF78DFCFFE7FFE7079840F27C110F
:10224000C2F20001016207984862FFE7FFE708B0A9
:1022500080BD000080B586B00490039102920020FA
:102260008DF807000498006842F20041C4F20101B1
:10227000884209D0FFE70498006842F60001C4F2E2
:102280000101884209D1FFE742F20440C4F2010093
:10229000006800F47020009002E000200090FFE74A
:1022A0000098002840F0DC80FFE7FFE7049890F8F2
:1022B0002400012804D1FFE702208DF81700D8E0A0
:1022C0000499012081F82400FFE7FFE70498FFF755
:1022D000BFF98DF807009DF80700002840F0B8808E
:1022E000FFE70498806A40F4807040F601618843FB
:1022F000049988620498006842F60001C4F2010162
:10230000884209D1FFE742F20440C4F201000068AC
:1023100010F4702F03D018E00020B0B9FFE7049943
:10232000886A20F48010886204980068406840053C
:10233000002809D5FFE70498806A40F4805020F413
:10234000005004998862FFE72CE00499886A40F401
:10235000801088620498006842F20041C4F20101D2
:10236000884209D0FFE70498006842F60001C4F2F1
:102370000101884209D1FFE742F20440C4F20100A2
:1023800000684005002803D40BE0012048B9FFE7AE
:102390000498806A40F4805020F4005004998862C8
:1023A000FFE7FFE70498806AC004002806D5FFE72E
:1023B0000499C86A20F00600C86203E0049900206E
:1023C000C862FFE7FFE70499002081F82400FFE7D7
:1023D0000498016A41F29550C0F6000088620498A2
:1023E000016A41F23960C0F60000C8620498016ACF
:1023F00041F20D60C0F600000863049801686FF0B8
:102400000200086004980168886840F48070886061
:1024100004980168006A4C31039A029B00F0CAF9E3
:1024200004980068806800F46020B0F5602F07D140
:10243000FFE704980168886840F4A000886006E01F
:1024400004980168886840F480108860FFE706E01F
:10245000FFE70499002081F82400FFE7FFE703E08D
:1024600001208DF80700FFE79DF807008DF81700A1
:10247000FFE79DF8170006B080BD000080B58EB064
:102480000D900D98C06B00680C900D980068006866
:102490000B900C980D99096CC8404007002875D521
:1024A000FFE79DF82C00400700286FD5FFE70D9847
:1024B000006800688006002807D4FFE70D980168CF
:1024C000086820F004000860FFE70D980068082104
:1024D000C4F20201884203D1FFE704200A9047E0DA
:1024E0000D9800681C21C4F20201884203D1FFE765
:1024F0004020099039E00D9800683021C4F20201B3
:10250000884204D1FFE74FF4806008902AE00D98DC
:1025100000684421C4F20201884204D1FFE74FF46D
:10252000804007901BE00D9800685821C4F202011A
:10253000884204D1FFE74FF4802006900CE00D980C
:1025400001686C22C4F202024FF08060914208BF21
:102550004FF480000690FFE706980790FFE7079882
:102560000890FFE708980990FFE709980A90FFE7AD
:102570000A980421C4F2020108600D98C06A20B1D3
:10258000FFE70D98C16A8847FFE7B8E00C980D99FE
:10259000096CC8408007002840F18080FFE79DF863
:1025A0002C008007002879D5FFE70D9800680068A7
:1025B000800600280BD4FFE70D980168086820F01A
:1025C0000A0008600D99012081F82100FFE70D98AD
:1025D00000680821C4F20201884203D1FFE702200B
:1025E000059047E00D9800681C21C4F20201884262
:1025F00003D1FFE72020049039E00D9800683021D6
:10260000C4F20201884204D1FFE74FF40070039046
:102610002AE00D9800684421C4F20201884204D1E6
:10262000FFE74FF4005002901BE00D98006858211E
:10263000C4F20201884204D1FFE74FF40030019058
:102640000CE00D9801686C22C4F202024FF0007099
:10265000914208BF4FF400100190FFE701980290EB
:10266000FFE702980390FFE703980490FFE70498C0
:102670000590FFE705980421C4F202010860FFE716
:102680000D99002081F82000FFE70D98806A20B1A5
:10269000FFE70D98816A8847FFE72FE00C980D99B6
:1026A000096CC8400007002827D5FFE79DF82C00DB
:1026B0000007002821D5FFE70D980168086820F081
:1026C0000E0008600D98C26B016C012000FA01F148
:1026D00051600D9988630D9981F82100FFE70D99EC
:1026E000002081F82000FFE70D98006B20B1FFE784
:1026F0000D98016B8847FFE7FFE7FFE7FFE70EB0A4
:1027000080BD000083B0019000200090019820B9A6
:10271000FFE701208DF80B0047E0019908684FF6AC
:10272000F872CBF6FD7210444CF6CD42CCF6CC429A
:10273000A0FB02026FF0030000EA92000864019916
:102740000020C4F20200C8630199022081F8210030
:102750000198006800680090009843F6F071884383
:10276000009001994868D1F808C0CB680A6940EA2E
:102770000C00184310434A6910438A691043C96921
:102780000143009808430090009801990968086087
:10279000019900208863019A012182F82110019992
:1027A00081F820008DF80B00FFE79DF80B0003B0C7
:1027B0007047000080B586B00490039102920193A7
:1027C00000208DF80300FFE7049890F8200001280E
:1027D00004D1FFE702208DF817004CE00499012096
:1027E00081F82000FFE7FFE7049890F82100012816
:1027F00032D1FFE70499022081F8210004990020DA
:10280000886304980168086820F001000860049853
:102810000399029A019BFFF771F90498C06A38B1D5
:10282000FFE704980168086840F00E0008600CE0BB
:1028300004980168086820F00400086004980168A2
:10284000086840F00A000860FFE70498016808681B
:1028500040F00100086009E0FFE70499002081F8DA
:102860002000FFE702208DF80300FFE79DF803003A
:102870008DF81700FFE79DF8170006B080BD000037
:1028800080B584B0039000F0C5F9029003980190E0
:102890000198013048B1FFE740F20400C2F20000A5
:1028A0000178019808440190FFE7FFE700F0B2F9D2
:1028B0000299401A0199884201D2FFE7F6E704B075
:1028C00080BD000090B00F900E9100200D900990F7
:1028D000FFE70E9800680D99C840002800F07F813E
:1028E000FFE70D99012088400C900E9800680C9924
:1028F00008400B900B980C99884240F06C81FFE7E0
:102900000E9840680590002851D0FFE705980128EF
:102910003AD0FFE7059802283FD0FFE70598032843
:102920005FD0FFE70598112832D0FFE705981228FD
:1029300038D0FFE705980021C1F21101884236D056
:10294000FFE705980021C1F2120188422FD0FFE76E
:1029500005980021C1F22101884228D0FFE705989F
:102960000021C1F22201884221D0FFE70598002111
:10297000C1F2310188421AD0FFE705980021C1F267
:102980003201884213D02FE00E98C06809902CE0E5
:102990000E98C0680430099027E00E98C06808308F
:1029A000099022E00E98C0680C3009901DE00E9846
:1029B000806818B9FFE70420099011E00E9880683C
:1029C000012806D1FFE7082009900C980F990861AB
:1029D00005E0082009900C980F994861FFE7FFE790
:1029E00003E00020099000E0FFE70B98FF2803D8E0
:1029F000FFE70F98049003E00F9804300490FFE77E
:102A0000049808900B98FF2804D8FFE70D988000E1
:102A1000039006E00D996FF01F0000EB810003901A
:102A2000FFE70398079008980068079A0F219140E4
:102A30008843099991400843089908600E98C07925
:102A4000C006002840F1C680FFE7FFE741F218000A
:102A5000C4F20200016841F001010160006800F069
:102A6000010006900698FFE70D9820F0030008216A
:102A7000C4F2010140580A900D9800F00300810053
:102A80000F2000FA01F10A9888430A900F9840F647
:102A90000001C4F20101884203D1FFE70020029047
:102AA00026E00F9840F60041C4F20101884203D1AC
:102AB000FFE70120019018E00F9841F20001C4F2F5
:102AC0000101884203D1FFE7022000900AE00F993C
:102AD00041F20042C4F201020420914208BF0320E7
:102AE0000090FFE700980190FFE701980290FFE750
:102AF00002980D9901F00301890000FA01F10A988A
:102B000008430A900A980D9921F003010822C4F2A3
:102B1000010288500E988079C006002809D5FFE789
:102B20000B9A40F20841C4F20101086810430860A2
:102B300008E00B9A40F20841C4F201010868904392
:102B40000860FFE70E9880798006002809D5FFE726
:102B50000B9A40F20C41C4F201010868104308606E
:102B600008E00B9A40F20C41C4F20101086890435E
:102B70000860FFE70E9880798007002809D5FFE7F5
:102B80000B9A40F20441C4F2010108681043086046
:102B900008E00B9A40F20441C4F201010868904336
:102BA0000860FFE70E988079C00748B1FFE70B9AED
:102BB00040F20041C4F2010108681043086008E0D7
:102BC0000B9A40F20041C4F201010868904308608A
:102BD000FFE7FFE7FFE70D9801300D9079E610B0B1
:102BE0007047000082B00190ADF802108DF801200E
:102BF0009DF8010028B1FFE7BDF8020001990861C6
:102C000005E0BDF80200000401990861FFE702B089
:102C10007047000040F2F020C2F2000000687047E8
:102C200040F20400C2F20000027840F2F021C2F249
:102C300000010868104408607047000080B542F247
:102C40000001C4F20201086840F01000086003208F
:102C500000F096F80F2000F005F800F03BF8002097
:102C600080BD000080B582B0009040F20000C2F24A
:102C70000000006840F20401C2F200010A784FF43B
:102C80007A71B1FBF2F1B0FBF1F001F067FB20B11A
:102C9000FFE701208DF8070018E000980F280DD8F5
:102CA000FFE700994FF0FF30002200F04FF8009846
:102CB00040F20801C2F20001086003E001208DF833
:102CC000070003E000208DF80700FFE79DF80700EC
:102CD00002B080BD83B0FFE741F21800C4F20200E9
:102CE000016841F001010160006800F001000290FC
:102CF0000298FFE7FFE741F21C00C4F202000168FE
:102D000041F080510160006800F08050019001980E
:102D1000FFE7FFE70421C4F2010108680090009872
:102D200020F0E0600090009840F000700090009863
:102D30000860FFE703B0704780B582B08DF80700E8
:102D40009DF9070002F0EEFD02B080BD80B586B0AF
:102D50008DF81700049103920020029002F0FAFD12
:102D600002909DF91700019002980499039A02F0CD
:102D700021F80146019802F0F5FD06B080BD000083
:102D800080B582B00190019802F00EFE02B080BDC5
:102D900080B586B0049000200390029004980078DB
:102DA000C007002800F0AC80FFE700208DF8070086
:102DB00041F21C00C4F202000068C000002813D4D5
:102DC000FFE7FFE741F21C00C4F20200016841F096
:102DD00080510160006800F0805000900098FFE78B
:102DE00001208DF80700FFE747F20000C4F2000061
:102DF0000068C005002822D4FFE747F20001C4F2B2
:102E00000001086840F480700860FFF703FF03903A
:102E1000FFE747F20000C4F200000068C005002888
:102E20000CD4FFE7FFF7F6FE0399401A652804D398
:102E3000FFE703208DF817008AE0EAE7FFE741F299
:102E40002000C4F20200006800F440700290029872
:102E5000E0B3FFE702980499496801F440718842A1
:102E600034D0FFE741F22001C4F20201086820F4E7
:102E70004070029040F24042C4F2422201201060B1
:102E800000201060029808609DF80800C007E0B1BB
:102E9000FFE7FFF7BFFE0390FFE741F22000C4F217
:102EA00002000068800700280ED4FFE7FFF7B2FE9B
:102EB0000399401A41F28931884204D3FFE7032085
:102EC0008DF8170044E0E8E7FFE7FFE741F2200153
:102ED000C4F20201086820F44070049A526810435A
:102EE00008609DF80700012809D1FFE741F21C01A5
:102EF000C4F20201086820F080500860FFE7FFE795
:102F000004980078800700280CD5FFE741F20401FF
:102F1000C4F20201086820F44040049A9268104309
:102F20000860FFE704980078C00600280CD5FFE78A
:102F300041F20401C4F20201086820F48000049AFE
:102F4000D26810430860FFE700208DF81700FFE704
:102F50009DF8170006B080BD80B584B00290019145
:102F6000029820B9FFE701208DF80F001BE10198BE
:102F700042F20001C4F20201096801F0070188422F
:102F800016D9FFE742F20000C4F20200016821F006
:102F90000701019A11430160006800F007000199E0
:102FA000884204D0FFE701208DF80F00FBE0FFE727
:102FB00002980078800700282AD5FFE70298007859
:102FC0004007002809D5FFE741F20401C4F20201DD
:102FD000086840F4E0600860FFE7029800780007A6
:102FE000002809D5FFE741F20401C4F20201086894
:102FF00040F460500860FFE741F20401C4F20201AE
:10300000086820F0F000029A926810430860FFE719
:1030100002980078C007002860D0FFE70298406857
:1030200001280ED1FFE741F20000C4F2020000685F
:103030008003002804D4FFE701208DF80F00B2E0E0
:1030400021E00298406802280ED1FFE741F200001B
:10305000C4F2020000688001002804D4FFE70120C8
:103060008DF80F009FE00DE041F20000C4F2020075
:1030700000688007002804D4FFE701208DF80F00C6
:1030800091E0FFE7FFE741F20401C4F202010868A2
:1030900020F00300029A526810430860FFF7BAFD5F
:1030A0000090FFE741F20400C4F20200006800F063
:1030B0000C0002994968B0EB810F0ED0FFE7FFF7D3
:1030C000A9FD0099401A41F28931884204D3FFE7F3
:1030D00003208DF80F0066E0E4E7FFE7019842F275
:1030E0000001C4F20201096801F00701884216D20A
:1030F000FFE742F20000C4F20200016821F007017C
:10310000019A11430160006800F0070001998842AC
:1031100004D0FFE701208DF80F0044E0FFE702989C
:103120000078400700280CD5FFE741F20401C4F203
:103130000201086820F4E060029AD2681043086037
:10314000FFE702980078000700280DD5FFE741F25D
:103150000401C4F20201086820F46050029A126966
:1031600040EAC2000860FFE700F022F841F20401E3
:10317000C4F202010968C9B20A0947F2C061C0F687
:103180000001895CC84040F20001C2F20001086001
:1031900040F20800C2F200000068FFF763FD002063
:1031A0008DF80F00FFE79DF80F0004B080BD000010
:1031B00086B000200590049003900290019041F2A7
:1031C0000400C4F2020000680590059800F00C00AD
:1031D0000146009100283FD0FFE70098042804D062
:1031E000FFE70098082806D037E041F20020C0F23F
:1031F0007A00019037E00598C0F3834147F2D4602C
:10320000C0F60000405C02909DF81600C007C0B1F7
:10321000FFE741F20400C4F202000068C0F340413D
:1032200047F2E460C0F60000405C0490029841F26E
:103230000021C0F27A0148430499B0FBF1F00390F9
:1032400007E0029840F60011C0F23D0148430390A8
:10325000FFE70398019006E0FFE741F20020C0F28B
:103260007A000190FFE7019806B0704780B586B0FC
:103270000490049820B9FFE701208DF817002EE391
:1032800004980078C007002800F0AE80FFE741F204
:103290000400C4F20200006800F00C00042813D0FF
:1032A000FFE741F20400C4F20200006800F00C00E5
:1032B00008281BD1FFE741F20400C4F202000068B5
:1032C000C003002812D5FFE741F20000C4F202005B
:1032D00000688003002808D5FFE70498406820B9FB
:1032E000FFE701208DF81700F9E27CE0FFE7049882
:1032F0004068B0F5803F09D1FFE741F20001C4F218
:103300000201086840F48030086032E004984068A8
:1033100068B9FFE741F20001C4F20201086820F435
:1033200080300860086820F48020086020E004985D
:103330004068B0F5A02F0DD1FFE741F20001C4F2C3
:103340000201086840F480200860086840F480307A
:1033500008600CE041F20001C4F20201086820F4A8
:1033600080300860086820F480200860FFE7FFE7ED
:10337000FFE7FFE704984068D0B1FFE7FFF74AFC9A
:103380000390FFE741F20000C4F2020000688003EE
:1033900000280CD4FFE7FFF73DFC0399401A65288D
:1033A00004D3FFE703208DF8170098E2EAE719E05D
:1033B000FFF730FC0390FFE741F20000C4F2020087
:1033C0000068800300280CD5FFE7FFF723FC039972
:1033D000401A652804D3FFE703208DF817007EE22A
:1033E000EAE7FFE7FFE7FFE7049800788007002897
:1033F00040F18D80FFE741F20400C4F20200006852
:1034000010F00C0F13D0FFE741F20400C4F20200E9
:10341000006800F00C00082829D1FFE741F2040001
:10342000C4F202000068C003002820D4FFE741F284
:103430000000C4F2020000688007002809D5FFE7F9
:1034400004980069012804D0FFE701208DF81700D7
:1034500045E241F20001C4F20201086820F0F800E0
:10346000049A526940EAC2000860FFE74EE00498FF
:10347000006958B3FFE70021C4F24221012008602F
:10348000FFF7C8FB0390FFE741F20000C4F202001F
:103490000068800700280CD4FFE7FFF7BBFB039907
:1034A000401A032804D3FFE703208DF8170016E223
:1034B000EAE741F20001C4F20201086820F0F800D6
:1034C000049A526940EAC20008601EE00021C4F27A
:1034D000422100200860FFF79DFB0390FFE741F2C7
:1034E0000000C4F202000068800700280CD5FFE746
:1034F000FFF790FB0399401A032804D3FFE703204A
:103500008DF81700EBE1EAE7FFE7FFE7FFE7049834
:1035100000780007002848D5FFE70498806918B3B1
:10352000FFE740F28041C4F2422101200860FFF72A
:1035300071FB0390FFE741F22400C4F2020000682F
:10354000800700280CD4FFE7FFF764FB0399401ABB
:10355000032804D3FFE703208DF81700BFE1EAE753
:10356000012001F05FFC1FE040F28041C4F24221E3
:1035700000200860FFF74EFB0390FFE741F22400B4
:10358000C4F202000068800700280CD5FFE7FFF7AF
:1035900041FB0399401A032804D3FFE703208DF869
:1035A00017009CE1EAE7FFE7FFE70498007840078F
:1035B000002840F1D880FFE700208DF8070041F295
:1035C0001C00C4F202000068C000002813D4FFE70A
:1035D000FFE741F21C00C4F20200016841F0805193
:1035E0000160006800F0805000900098FFE7012023
:1035F0008DF80700FFE747F20000C4F20000006802
:10360000C005002822D4FFE747F20001C4F2000100
:10361000086840F480700860FFF7FCFA0390FFE749
:1036200047F20000C4F200000068C00500280CD476
:10363000FFE7FFF7EFFA0399401A652804D3FFE785
:1036400003208DF817004AE1EAE7FFE7FFE7049857
:10365000C068012809D1FFE741F22001C4F202014C
:10366000086840F00100086031E00498C06868B95B
:10367000FFE741F22001C4F20201086820F00100D6
:103680000860086820F0040008601FE00498C06823
:1036900005280DD1FFE741F22001C4F202010868BC
:1036A00040F004000860086840F0010008600CE089
:1036B00041F22001C4F20201086820F00100086014
:1036C000086820F004000860FFE7FFE7FFE7FFE776
:1036D0000498C068E0B1FFE7FFF79CFA0390FFE7AA
:1036E00041F22000C4F202000068800700280ED4D6
:1036F000FFE7FFF78FFA0399401A41F289318842B8
:1037000004D3FFE703208DF81700E8E0E8E71BE0AB
:10371000FFF780FA0390FFE741F22000C4F20200B5
:103720000068800700280ED5FFE7FFF773FA0399BA
:10373000401A41F28931884204D3FFE703208DF813
:103740001700CCE0E8E7FFE79DF80700012809D162
:10375000FFE741F21C01C4F20201086820F080502A
:103760000860FFE7FFE70498C069002800F0B38015
:10377000FFE741F20400C4F20200006800F00C0010
:10378000082800F08280FFE70498C06902285CD115
:10379000FFE76021C4F2422100200860FFF73AFAF7
:1037A0000390FFE741F20000C4F2020000688001CC
:1037B00000280CD5FFE7FFF72DFA0399401A0328DC
:1037C00004D3FFE703208DF8170088E0EAE70498A8
:1037D000006AB0F5803F0CD1FFE741F20401C4F26A
:1037E0000201086820F40030049A926810430860CF
:1037F000FFE741F20401C4F20201086820F47410EA
:10380000049B1A6A5B6A1A43104308606021C4F281
:10381000422101200860FFF7FDF90390FFE741F224
:103820000000C4F202000068800100280CD4FFE709
:10383000FFF7F0F90399401A032804D3FFE70320A8
:103840008DF817004BE0EAE71EE06021C4F2422148
:1038500000200860FFF7DEF90390FFE741F2000067
:10386000C4F202000068800100280CD5FFE7FFF7D2
:10387000D1F90399401A032804D3FFE703208DF8F8
:1038800017002CE0EAE7FFE724E00498C06901286C
:1038900004D1FFE701208DF8170020E041F2040079
:1038A000C4F2020000680290029800F4803004998B
:1038B000096A884208D1FFE7029800F47010049961
:1038C000496A884204D0FFE701208DF8170006E01E
:1038D000FFE7FFE7FFE700208DF81700FFE79DF8FF
:1038E000170006B080BD000080B584B00290029839
:1038F00020B9FFE701208DF80F006DE00298406AC3
:1039000060B9FFE702984068B0F5827F01D1FFE718
:1039100003E002990020C861FFE705E0029900205A
:10392000086102994861FFE70299002088620298C5
:1039300090F8510040B9FFE70299002081F850004B
:10394000029800F04DF8FFE70299022081F851003B
:1039500002980168086820F040000860029A01920D
:1039600011685068D2F808C0D36800F482700CF473
:10397000044C604403F400631844136903F0020329
:103980001844536903F001031844936903F4007366
:103990001844D36903F038031844136A03F0800312
:1039A0001843926A02F40052104308600299488B4F
:1039B00000F004000968486002980168C86920F4B2
:1039C0000060C861029900204865029A012182F8CE
:1039D00051108DF80F00FFE79DF80F0004B080BD77
:1039E00080B58CB00B9000200A9009900890079049
:1039F0000B98006843F60001C4F2000188425ED1D2
:103A0000FFE7FFE741F21C00C4F20200016841F445
:103A100080410160006800F4804006900698FFE74E
:103A2000FFE741F21800C4F20200016841F008010A
:103A30000160006800F0080005900598FFE74FF46A
:103A4000204007900220089003200A9040F6004092
:103A5000C4F20100019007A90291FEF733FF01981B
:103A600002994FF480420792002203920892099231
:103A7000FEF728FF039940F2C010C2F20000049044
:103A80004422C4F202020260416081608022C2606E
:103A90000161416120228261C161FEF733FE18B1EC
:103AA000FFE7FEF755F8FFE7FFE70B9840F2C0117C
:103AB000C2F20001C1640B984862FFE7FFE70CB057
:103AC00080BD000080B588B006900591ADF8122049
:103AD0000393069890F85100012804D0FFE70220D4
:103AE0008DF81F0011E106984068B0F5827F16D16D
:103AF000FFE70698806890B9FFE70699042081F8EF
:103B000051000698059ABDF812300399EC46CCF89E
:103B10000010114600F050FA8DF81F00F5E0FFF795
:103B200079F80290059820B1FFE7BDF8120020B99E
:103B3000FFE701208DF81F00E7E0FFE7069890F807
:103B40005000012804D1FFE702208DF81F00DCE0BF
:103B50000699012081F85000FFE7FFE7069904204D
:103B600081F851000699002048650599069A9163ED
:103B7000BDF81210069A9187BDF81210069AD187E7
:103B800006990863069988860699C8860699086486
:103B90000699486406988068B0F5004F0DD1FFE79C
:103BA00006980168086820F04000086006980168DF
:103BB000086820F480400860FFE706980068006805
:103BC00000F04000402807D0FFE706980168086829
:103BD00040F040000860FFE70698C068D0BBFFE7F0
:103BE000FFE70698C08FA0B3FFE7069800688068DB
:103BF000C00778B1FFE706980068007B0699896BDB
:103C000008700699886B013088630699C88F01385F
:103C1000C8871DE0FEF7FEFF0299401A039988420B
:103C200004D3FFE70398013018B9FFE7039870B990
:103C3000FFE70699012081F85100FFE7069900206F
:103C400081F85000FFE703208DF81F005DE0FFE7DB
:103C5000C7E739E0FFE70698C08FA0B3FFE70698F3
:103C600000688068C00778B1FFE706980068C06800
:103C70000699896B08800699886B023088630699DB
:103C8000C88F0138C8871DE0FEF7C4FF0299401AAB
:103C90000399884204D3FFE70398013018B9FFE77E
:103CA000039870B9FFE70699012081F85100FFE7FA
:103CB0000699002081F85000FFE703208DF81F00CF
:103CC00023E0FFE7C7E7FFE706980399029A01F0B0
:103CD000C7F820B1FFE7069920204865FFE706995D
:103CE000012081F85100FFE70699002081F850007B
:103CF000FFE70698406D20B1FFE701208DF81F0017
:103D000003E000208DF81F00FFE79DF81F0008B0BA
:103D100080BD000080B588B006900591ADF81220F6
:103D20000393FEF777FF0290BDF81200ADF806008E
:103D3000069890F85100012804D0FFE702208DF882
:103D40001F0034E1059820B1FFE7BDF8120020B94B
:103D5000FFE701208DF81F0029E1FFE7069890F8A2
:103D60005000012804D1FFE702208DF81F001EE15A
:103D70000699012081F85000FFE7FFE7069903202C
:103D800081F851000699002048650599069A11634B
:103D9000BDF81210069A9186BDF81210069AD186C7
:103DA00006998863069988870699C88706994864A2
:103DB0000699086406988068B0F5004F0DD1FFE7BA
:103DC00006980168086820F04000086006980168BD
:103DD000086840F480400860FFE7069800680068C3
:103DE00000F04000402807D0FFE706980168086807
:103DF00040F040000860FFE70698C068B0F5006F2B
:103E000051D1FFE70698406828B1FFE7BDF80600EA
:103E100001280ED1FFE706980168006B0088C86092
:103E20000699086B023008630699C88E0138C88667
:103E3000FFE7FFE70698C08EA0B3FFE7069800688B
:103E40008068800700280ED5FFE706980168006BA0
:103E50000088C8600699086B023008630699C88E0E
:103E60000138C8861DE0FEF7D5FE0299401A039975
:103E7000884204D3FFE70398013018B9FFE703989D
:103E800070B9FFE70699012081F85100FFE7069914
:103E9000002081F85000FFE703208DF81F0086E026
:103EA000FFE7C7E750E00698406828B1FFE7BDF894
:103EB000060001280ED1FFE706980168006B007824
:103EC00008730699086B013008630699C88E01389B
:103ED000C886FFE7FFE70698C08EA0B3FFE7069805
:103EE00000688068800700280ED5FFE70698016803
:103EF000006B007808730699086B01300863069917
:103F0000C88E0138C8861DE0FEF784FE0299401A6B
:103F10000399884204D3FFE70398013018B9FFE7FB
:103F2000039870B9FFE70699012081F85100FFE777
:103F30000699002081F85000FFE703208DF81F004C
:103F400035E0FFE7C7E7FFE706980399029A00F01C
:103F5000E3FF20B1FFE7069920204865FFE70698B8
:103F6000806870B9FFE7FFE70020009006980068BE
:103F7000C068009006980068806800900098FFE78D
:103F8000FFE70699012081F85100FFE7069900201C
:103F900081F85000FFE70698406D20B1FFE701204F
:103FA0008DF81F0003E000208DF81F00FFE79DF84B
:103FB0001F0008B080BD000080B58CB0DDF838C0AF
:103FC0000A9009910892ADF81E3001200390FEF787
:103FD00021FE04900A9890F851008DF817000A9875
:103FE00040680690BDF81E00ADF81C009DF8170053
:103FF000012812D0FFE70698B0F5827F09D1FFE7CC
:104000000A98806828B9FFE79DF81700042804D0B3
:10401000FFE702208DF82F009BE1099838B1FFE7F8
:10402000089820B1FFE7BDF81E0020B9FFE7012086
:104030008DF82F008DE1FFE70A9890F850000128D5
:1040400004D1FFE702208DF82F0082E10A990120B8
:1040500081F85000FFE7FFE70A9890F85100042824
:1040600005D0FFE70A99052081F85100FFE70A997A
:104070000020486508990A9A9163BDF81E100A9AB3
:10408000D187BDF81E100A9A918709990A9A11637F
:10409000BDF81E100A9AD186BDF81E100A9A9186A4
:1040A0000A9908640A9948640A980068006800F050
:1040B0004000402807D0FFE70A980168086840F0F0
:1040C00040000860FFE70A98C068B0F5006F40F054
:1040D0008180FFE70A98406828B1FFE7BDF81C001F
:1040E00001280ED1FFE70A980168006B0088C860BC
:1040F0000A99086B023008630A99C88E0138C8868D
:10410000FFE7FFE70A98C18E0120019039B9FFE768
:104110000A98C08F002818BF01200190FFE701987E
:10412000C007002855D0FFE70A980068806880071C
:10413000002818D5FFE70A98C08EA0B1FFE70398C2
:10414000012810D1FFE70A980168006B0088C86059
:104150000A99086B023008630A99C88E0138C8862C
:1041600000200390FFE70A9800688068C007A8B1A4
:10417000FFE70A98C08F88B1FFE70A980068C06817
:104180000A99896B08800A99886B023088630A99BA
:10419000C88F0138C88701200390FFE7FEF73AFD7A
:1041A0000499401A0E99884212D3FFE70E98013005
:1041B00070B1FFE70A99012081F85100FFE70A99E1
:1041C000002081F85000FFE703208DF82F00C0E0A9
:1041D00098E782E00A98406828B1FFE7BDF81C0024
:1041E00001280ED1FFE70A980168006B0078087378
:1041F0000A99086B013008630A99C88E0138C8868D
:10420000FFE7FFE70A98C18E0120009039B9FFE768
:104210000A98C08F002818BF01200090FFE700987F
:10422000C007002858D0FFE70A9800688068800718
:10423000002818D5FFE70A98C08EA0B1FFE70398C1
:10424000012810D1FFE70A980168006B0078087315
:104250000A99086B013008630A99C88E0138C8862C
:1042600000200390FFE70A9800688068C007A8B1A3
:10427000FFE70A98C08F88B1FFE70A980068C06816
:104280000A99896B08700A99886B013088630A99CA
:10429000C88F0138C88701200390FFE7FEF7BAFCFA
:1042A0000499401A0E99884204D3FFE70E98013012
:1042B00018B9FFE70E9870B9FFE70A99012081F855
:1042C0005100FFE70A99002081F85000FFE7032022
:1042D0008DF82F003DE095E7FFE70A980E99049AC4
:1042E00000F01AFE68B1FFE70A9920204865FFE751
:1042F0000A99002081F85000FFE701208DF82F0077
:1043000027E00A98806870B9FFE7FFE70020029075
:104310000A980068C06802900A9800688068029055
:104320000298FFE7FFE70A99012081F85100FFE7B3
:104330000A99002081F85000FFE70A98406D20B1EB
:10434000FFE701208DF82F0003E000208DF82F00FB
:10435000FFE79DF82F000CB080BD000080B582B053
:104360000190019800F0A6FE02B080BD81B00090DF
:1043700001B0704781B0009001B0704785B00390E4
:104380000291FFE7039890F83C00012804D1FFE771
:1043900002208DF813005BE00399012081F83C00B6
:1043A000FFE7FFE70399022081F83D0003980068CA
:1043B000406801900398006880680090019820F0A0
:1043C00070000190029801680198084301900198DB
:1043D0000399096848600398006842F60041C4F2F6
:1043E0000101884218D0FFE703980068B0F1804FC0
:1043F00012D0FFE70398006840F20041C4F20001C8
:10440000884209D0FFE70398006840F60001C4F233
:10441000000188420ED1FFE7009820F08000009054
:104420000298416800980843009000980399096831
:104430008860FFE70399012081F83D00FFE70399B9
:10444000002081F83C00FFE700208DF81300FFE713
:104450009DF8130005B0704780B582B000900098B9
:1044600020B9FFE701208DF807003FE0009890F8A1
:104470003D0040B9FFE70099002081F83C0000981A
:1044800000F038F8FFE70099022081F83D0000991C
:1044900051F8040B00F08EFE0099012081F84600CF
:1044A000FFE70099012081F83E00009981F83F0064
:1044B000009981F84000009981F84100FFE7FFE78B
:1044C0000099012081F84200009981F84300009989
:1044D00081F84400009981F84500FFE70099012028
:1044E00081F83D0000208DF80700FFE79DF80700E8
:1044F00002B080BD80B584B0039003980068B0F12D
:10450000804F19D1FFE7FFE741F21C00C4F202001F
:10451000016841F001010160006800F001000290B3
:104520000298FFE71C20019000221146FEF70EFCC6
:104530000198FEF701FCFFE704B080BD80B586B0AE
:104540000490039100208DF80B00FFE7049890F889
:104550003C00012804D1FFE702208DF81700ABE0F2
:104560000499012081F83C00FFE7FFE7049902204D
:1045700081F83D000498006880680190019820F05F
:1045800077000190019820F47F40019001980499F0
:1045900009688860039800680090002872D0FFE7DF
:1045A000009810286ED0FFE7009820286AD0FFE717
:1045B0000098302866D0FFE70098402855D0FFE7E4
:1045C0000098502837D0FFE70098602840D0FFE7D8
:1045D000009870280BD0FFE70098B0F5805F05D0F9
:1045E000FFE70098B0F5005F16D052E055E0049860
:1045F0000068039B5A689968DB6800F05FFE0498C6
:10460000006880680190019840F07700019001985F
:1046100004990968886040E004980068039B5A6820
:104620009968DB6800F04AFE04980168886840F4E5
:104630008040886031E004980068039A5168D2682D
:1046400000F06CFE04980068502100F051FE24E058
:1046500004980068039A5168D26800F087FE0498B5
:104660000068602100F044FE17E004980068039A97
:104670005168D26800F052FE04980068402100F0B2
:1046800037FE0AE0049800680399096800F030FEDC
:1046900003E001208DF80B00FFE70499012081F869
:1046A0003D00FFE70499002081F83C00FFE79DF8FA
:1046B0000B008DF81700FFE79DF8170006B080BDCE
:1046C00080B586B004900391049820B9FFE70120DB
:1046D0008DF8170084E0049890F83D0040B9FFE79A
:1046E0000499002081F83C00049800F07DF8FFE771
:1046F0000499022081F83D0004980168886844F21A
:10470000070290438860049951F8040B00F052FDB1
:10471000049800688068029004980068806901909D
:1047200004980068006A00900398016802980843A2
:104730000290019840F20331884301900399886800
:10474000896940EA0121019808430190019840F6E7
:104750000C418843019001984FF2F0018843019089
:104760000399C868C96940EA01210198084301908A
:1047700003990869096A000140EA01310198084378
:104780000190009820F02200009003994868496940
:1047900040EA0111009808430090029804990968C2
:1047A00088600198049909688861009804990968EB
:1047B00008620499012081F84600049981F83E00BE
:1047C000049981F83F00049981F84200049981F826
:1047D0004300049981F83D0000208DF81700FFE7A1
:1047E0009DF8170006B080BD80B588B00790002006
:1047F00006900590049003900798006840F20041ED
:10480000C4F2000188422BD1FFE7FFE741F21C0010
:10481000C4F20200016841F002010160006800F08A
:10482000020002900298FFE7FFE741F21800C4F28D
:104830000200016841F004010160006800F004001A
:1048400001900198FFE7C02003900020049005909C
:1048500040F60000C4F2010003A9FEF733F8FFE7B9
:1048600008B080BD81B0009001B0704780B584B0C1
:10487000039003980068C06802900398006800697C
:1048800001909DF804008007002824D5FFE79DF8DB
:104890000800800700281DD5FFE7039801686FF026
:1048A0000200086103990120087703980068806975
:1048B000800720B1FFE70398FFF7D4FF06E00398D5
:1048C00000F0E2F8039800F0E3F8FFE70399002016
:1048D0000877FFE7FFE79DF804004007002825D58B
:1048E000FFE79DF80800400700281ED5FFE7039862
:1048F00001686FF0040008610399022008770398AB
:104900000068806910F4407F04D0FFE70398FFF748
:10491000A9FF06E0039800F0B7F8039800F0B8F894
:10492000FFE7039900200877FFE7FFE79DF8040001
:104930000007002824D5FFE79DF80800000700289D
:104940001DD5FFE7039801686FF00800086103991F
:104950000420087703980068C069800720B1FFE74A
:104960000398FFF77FFF06E0039800F08DF80398A7
:1049700000F08EF8FFE7039900200877FFE7FFE7D4
:104980009DF80400C006002825D5FFE79DF8080023
:10499000C00600281ED5FFE7039801686FF01000DD
:1049A000086103990820087703980068C06910F42B
:1049B000407F04D0FFE70398FFF754FF06E0039819
:1049C00000F062F8039800F063F8FFE70399002015
:1049D0000877FFE7FFE79DF80400C00778B1FFE71D
:1049E0009DF80800C00748B1FFE7039801686FF021
:1049F00001000861039800F04FF8FFE7FFE79DF81A
:104A000004000006002810D5FFE79DF80800000606
:104A1000002809D5FFE7039801686FF0800008615E
:104A20000398FFF7A3FCFFE7FFE79DF804004006AB
:104A3000002810D5FFE79DF808004006002809D59A
:104A4000FFE7039801686FF040000861039800F0E9
:104A500027F8FFE7FFE79DF804008006002810D53F
:104A6000FFE79DF808008006002809D5FFE70398B6
:104A700001686FF0200008610398FFF77BFCFFE7F7
:104A8000FFE704B080BD000081B0009001B0704726
:104A900081B0009001B0704781B0009001B07047C4
:104AA00081B0009001B07047FFE7FEE780B584B0A9
:104AB000002103910291019140F24C10C2F20000DA
:104AC000009042F20042C4F2010202604FF4807290
:104AD00082600122027301754FF46022C26141605D
:104AE00002210161FDF746FA18B1FFE7FDF730F842
:104AF000FFE70120019002900720039040F24C1044
:104B0000C2F2000001A9FDF72BF818B1FFE7FDF78D
:104B10001FF8FFE702200190029040F24C10C2F211
:104B2000000001A9FDF71CF818B1FFE7FDF710F828
:104B3000FFE704B080BD000080B584B0FFE741F21C
:104B40001400C4F20200016841F001010160006834
:104B500000F0010003900398FFE70B200090002273
:104B600001921146FEF7F2F80098FEF7E5F8019A77
:104B70000E2002901146FEF7E9F80298FEF7DCF8E5
:104B800004B080BD80B58CB000200B900A900990D5
:104B90000890FFE741F21800C4F20200016841F0FA
:104BA00020010160006800F0200007900798FFE7EF
:104BB000FFE741F21800C4F20200016841F004016D
:104BC0000160006800F0040006900698FFE7FFE728
:104BD00041F21800C4F20200016841F008010160CE
:104BE000006800F0080005900598FFE740F60040D7
:104BF000C4F20100039041F6FB4100220192FDF74F
:104C0000F1FF01982021089109900A9040F60000D8
:104C1000C4F2010008A90491FDF754FE0398049919
:104C2000FB22089201220092099202220A92032298
:104C300002920B92FDF746FEDDF800C0019B029A3E
:104C4000039804994FF4E05ECDF820E0CDF824C03D
:104C50000A930B92FDF736FE0CB080BD80B582B092
:104C600040F20420C2F20000019043F60001C4F2B9
:104C7000000101604FF48271416000218160C160D8
:104C8000016141614FF4007282611822C2610162C8
:104C9000416281620A21C162FEF726FE18B1FFE778
:104CA000FCF756FFFFE702B080BD000080B588B07A
:104CB00000210191079106910591049103910291C0
:104CC00040F25C20C2F200004FF08042026041607E
:104CD00081604FF6FF72C26001618161FFF7BCFB2A
:104CE00018B1FFE7FCF734FFFFE74FF48050049062
:104CF00040F25C20C2F2000004A9FFF71FFC18B1CB
:104D0000FFE7FCF725FFFFE700200290039040F249
:104D10005C20C2F2000002A9FFF730FB18B1FFE7E8
:104D2000FCF716FFFFE708B080BD000080B58EB02D
:104D300005A801902421FBF718FB0199002202929B
:104D40000492039240F2A420C2F2000040F2004319
:104D5000C4F200030360426082604FF6FF73C360D9
:104D6000026182610323059306920123079308924F
:104D700009920A920B930C920D92FFF7A1FC18B1C5
:104D8000FFE7FCF7E5FEFFE700200390049040F208
:104D9000A420C2F2000003A9FFF7F0FA18B1FFE760
:104DA000FCF7D6FEFFE70EB080BD0000FFE7FEE790
:104DB000FFE7FEE788B0079006910592079800F09C
:104DC000070004900498C0F10700052803D3FFE70B
:104DD0000420019004E00498C0F107000190FFE76F
:104DE0000198039004980430062803D8FFE70020B8
:104DF000009003E0049803380090FFE700980290C9
:104E000006980399012202FA01F101390840029B38
:104E1000984005999A40013A1140084308B07047FC
:104E20007047000082B00190019840F20001C2F288
:104E300000010968C90844F6D352C1F26202A1FB1D
:104E40000221890948430090FFE700BFFFE700986F
:104E5000411E00910028F8D1FFE702B07047000022
:104E600080B586B004900391029204984068B0F532
:104E7000827F13D1FFE704988068B0F5004F06D019
:104E8000FFE704988068B0F5806F07D1FFE70498CA
:104E90000168086820F040000860FFE70498406857
:104EA000B0F5827F1BD1FFE704988068B0F5806F72
:104EB00015D1FFE70498039B02996A46116001210E
:104EC000002200F05FF848B1FFE70499486D40F018
:104ED0002000486503208DF8170019E014E00498BD
:104EE000039B02996A4611608021002200F04AF873
:104EF00048B1FFE70499486D40F020004865032061
:104F00008DF8170004E0FFE700208DF81700FFE799
:104F10009DF8170006B080BD80B586B0049003915F
:104F200002920498039B02996A46116002210122B1
:104F300000F028F848B1FFE70499486D40F02000E0
:104F4000486503208DF8170017E00498039B029929
:104F50006A4611608021002200F014F848B1FFE792
:104F60000499486D40F02000486503208DF8170033
:104F700003E000208DF81700FFE79DF8170006B04A
:104F800080BD000080B58AB0DDF830C00890079180
:104F90008DF81B20059305980190FDF73BFE024616
:104FA00001980C99891A08440390FDF733FE02908A
:104FB000039840F20001C2F200010968C1F3CB314D
:104FC00048430490FFE70898006880680799084004
:104FD000401AB0FA80F040099DF81B1088425ED05C
:104FE000FFE705980130002858D0FFE7FDF712FED3
:104FF0000299401A0399884204D2FFE703980028D7
:1050000042D1FFE708980168486820F0E000486056
:1050100008984068B0F5827F13D1FFE70898806850
:10502000B0F5004F06D0FFE708988068B0F5806FB4
:1050300007D1FFE708980168086820F04000086081
:10504000FFE70898806AB0F5005F0FD1FFE7FFE740
:1050500008980168086820F4005008600898016802
:10506000086840F400500860FFE7FFE70899012056
:1050700081F85100FFE70899002081F85000FFE710
:1050800003208DF827000EE0049818B9FFE70020F0
:105090000390FFE7049801380490FFE793E70020AE
:1050A0008DF82700FFE79DF827000AB080BD0000BB
:1050B0007047000080B582B0009000980138B0F1D0
:1050C000807F03D3FFE70120019019E000980138A9
:1050D0004EF21401CEF2000108604FF0FF300F21B4
:1050E00000F040FC4EF21801CEF2000100200860F2
:1050F0004EF21002CEF20002072111600190FFE78C
:10510000019802B080BD000080B5FDF789FD80BD2B
:1051100080B596B00CA801902821FBF726F90198DC
:10512000002302930B930A93099308930793069322
:1051300005930493039301220C924FF480310D9157
:105140000E9310920222139214914FF4E0111591D4
:10515000FEF78CF818B1FFE7FCF7FAFCFFE70F2029
:10516000079002210891002009904FF480620A9272
:105170000B9007A8FDF7F0FE18B1FFE7FCF7E8FC7D
:10518000FFE7022003904FF40040059003A8FDF7CD
:10519000FFFD18B1FFE7FCF7DBFCFFE716B080BDB1
:1051A0007047000080B540F25C20C2F20000FFF7BB
:1051B0005DFB80BD83B00290019102980068009071
:1051C000029842F60041C4F20101884215D0FFE77F
:1051D0000298B0F1804F10D0FFE7029840F20041F2
:1051E000C4F20001884208D0FFE7029840F60001AF
:1051F000C4F2000188420AD1FFE7009820F0700055
:10520000009001984168009808430090FFE70298D9
:1052100042F60041C4F20101884215D0FFE702982E
:10522000B0F1804F10D0FFE7029840F20041C4F285
:105230000001884208D0FFE7029840F60001C4F25E
:10524000000188420AD1FFE7009820F440700090E6
:105250000198C168009808430090FFE7009820F08B
:1052600080000199496908430090009802990860FC
:10527000019880680299C862019800680299886262
:10528000029842F60041C4F20101884205D1FFE7CD
:105290000198006902990863FFE7029901204861BB
:1052A00002980069C00730B1FFE70299086920F051
:1052B00001000861FFE703B07047000085B004906B
:1052C000039102920193049880680090009820F462
:1052D0007F40009003980299019A41EA022101431C
:1052E00000980843009000980499886005B07047C2
:1052F00083B002900191029880680090009820F09D
:105300007000009001980099084340F00700009059
:1053100000980299886003B07047000085B004903F
:10532000039102920498006A00900499086A20F0A0
:1053300001000862049880690190019820F0F00053
:1053400001900299019840EA01100190009820F024
:105350000A0000900399009808430090019804996E
:10536000886100980499086205B0704785B0049080
:10537000039102920498006A00900499086A20F050
:1053800010000862049880690190019820F4704030
:1053900001900299019840EA01300190009820F0B4
:1053A000A00000900399009840EA01100090019835
:1053B0000499886100980499086205B0704700005C
:1053C000FFE7FEE781B08DF803008DF802108DF83D
:1053D00001209DF80300C0009DF8011040EA810003
:1053E0009DF8021001F003010844C0B201B07047FB
:1053F00081B00090009940F20420C2F200000860E1
:10540000009940F60040C4F201008861009A4FF410
:105410008051918300990862009A4FF40061918451
:105420000099886200994FF48060888501B07047C8
:1054300080B582B001900199086A898C0022FDF73D
:10544000D1FB0220FDF71CFA0199086A898C012220
:10545000FDF7C8FB0A20FDF713FA02B080BD00007B
:1054600080B584B0029000208DF8070002980DF1FD
:10547000070100F083F820B1FFE700208DF80F004E
:1054800006E09DF8070000F001008DF80F00FFE72F
:105490009DF80F0004B080BD80B584B002900191EA
:1054A000029818B1FFE7019820B9FFE701208DF8B5
:1054B0000F0042E0029801990A3100F077F98DF867
:1054C00003009DF8030028B1FFE79DF803008DF865
:1054D0000F0032E0029801990E3100F0E7F98DF8E3
:1054E00003009DF8030028B1FFE79DF803008DF845
:1054F0000F0022E00298019900F0C0F98DF8030036
:105500009DF8030028B1FFE79DF803008DF80F0018
:1055100013E002980199063100F0BCF98DF8030000
:105520009DF8030028B1FFE79DF803008DF80F00F8
:1055300003E000208DF80F00FFE79DF80F0004B096
:1055400080BD000080B588B00790ADF81A100592B4
:10555000ADF81230BDF81A00ADF8040000208DF847
:10556000060005980290BDF81200ADF80C000798EF
:1055700001A900F01FF808B080BD000080B584B01C
:1055800002900191029818B1FFE7019820B9FFE756
:1055900001208DF80F0008E00298019A2E210123C6
:1055A000FFF7D0FF8DF80F00FFE79DF80F0004B064
:1055B00080BD000080B584B00290019101980089FF
:1055C00028B1FFE701980089092804DBFFE70120E3
:1055D0008DF80F0035E0019840788DF801000198B2
:1055E00000888DF802000198807800221146FFF7AC
:1055F000E9FE8DF80300029800F028F80298006890
:105600000DF1010103224FF47A73FEF783FB8DF84D
:1056100000009DF8000060B9FFE702980068019A59
:10562000516812894FF47A73FEF74CFA8DF8000036
:10563000FFE7029800F042F89DF800008DF80F0097
:10564000FFE79DF80F0004B080BD000080B582B078
:10565000019001998869898B0022FDF7C3FA02B095
:1056600080BD000080B588B0069080208DF81700BE
:105670000020ADF808008DF80A000DF11700039026
:105680000120ADF81000069802A900F09BF88DF8F3
:1056900007009DF8070028B1FFE79DF807008DF887
:1056A0001F0006E00220FDF7EBF800208DF81F0038
:1056B000FFE79DF81F0008B080BD000080B582B0F4
:1056C000019001998869898B0122FDF78BFA02B05C
:1056D00080BD000080B586B0049000208DF80F00DA
:1056E0003921ADF800108DF802000DF10F00019086
:1056F0000120ADF8080004986946FFF75BFF042815
:1057000004D1FFE700208DF8170003E001208DF899
:105710001700FFE79DF8170006B080BD80B584B084
:1057200002900191029820B9FFE701208DF80F0047
:105730001CE0FDF76FFA0090FFE7FDF76BFA0099A8
:10574000401A019988420DD2FFE70298FFF788FEC0
:1057500020B1FFE700208DF80F0007E06420FDF77F
:105760008FF8EAE703208DF80F00FFE79DF80F00A0
:1057700004B080BD80B588B00790ADF81A100592CE
:10578000ADF81230BDF81A00ADF8040000208DF815
:10579000060005980290BDF81200ADF80C000798BD
:1057A00001A900F00FF808B080BD000080B582B0FC
:1057B000019000910198009A01210423FFF7DAFF7C
:1057C00002B080BD80B588B006900591059800892B
:1057D00028B1FFE705980089092804DBFFE70120CD
:1057E0008DF81F0045E0059840788DF80900059870
:1057F00000888DF80A000598807800210091012228
:10580000FFF7E0FD014600988DF80B10ADF806009B
:10581000FFE7BDF8060005990989884210DAFFE71D
:1058200005984068BDF80610405C0DF1090211446E
:10583000C870FFE7BDF806000130ADF80600E8E7E4
:105840000698FFF703FF0698006805990989033158
:105850008AB20DF109014FF47A73FEF75BFA8DF805
:1058600005000698FFF72AFF9DF805008DF81F0038
:10587000FFE79DF81F0008B080BD000080B582B032
:10588000019000910198009A09210623FFF772FF09
:1058900002B080BD80B582B0019000910198009A5D
:1058A0000F210423FFF766FF02B080BD80B582B0F0
:1058B000019000910198009A05210423FFF75AFFF7
:1058C00002B080BD81B0009040F20000C2F2000042
:1058D000006841F6F111C0F27651A0FB0110800979
:1058E0000099484300900098401EFDD1009001B0FF
:1058F0007047000081B0009040F20000C2F200004A
:10590000006849F68171C1F25E61A0FB0110800C54
:105910000099484300900098401EFDD1009001B0CE
:105920007047000081B08DF803009DF90300002846
:105930000ED4FFE79DF9031001F01F0201209040F3
:105940004A094EF20011CEF2000141F82200FFE7B1
:1059500001B070474EF60C50CEF200000068C0F364
:105960000220704782B08DF8070000919DF9070072
:1059700000280AD4FFE7009800019DF907104EF2B5
:105980000042CEF2000288540BE0009800019DF81E
:10599000071001F00F014EF61452CEF200028854A7
:1059A000FFE702B07047000083B00290029800F059
:1059B000070000904EF60C51CEF2000108680190ED
:1059C00001984FF6FF02104001900198009A40EABA
:1059D00002200022C0F2FA521043019001980860A0
:1059E00003B0704780B5A4B000200790239047F221
:1059F000AC61C0F6000112A808901422FAF770FCFE
:105A000007988DF847008DF846008DF84500FDF7A2
:105A100015F9FFF77DFBFFF7B5F8FFF78DF8FFF7F6
:105A200045F8FFF743F9FFF781F9FFF717F917A8D2
:105A30000990FFF7DDFC0998FFF7FAFC0998FFF7DA
:105A400011FE0998FFF746FE0899024609988DF85D
:105A50004420FFF721FD20B1FFE701208DF845002C
:105A6000FFE717A842F21071FFF758FE20B1FFE7D9
:105A700001208DF8460003E001208DF84700FFE784
:105A800040F24C10C2F2000040F28401C2F2000168
:105A90006422FCF7DFFB10200221FBF785FEFBF7F9
:105AA00035FEFDF7B7F80B9000208DF82B00FFE7CF
:105AB00040F2EC20C2F200000078002849D0FFE755
:105AC000FDF7A8F80B9901F5FA71884241D9FFE773
:105AD000FDF7A0F80B9040F2EC20C2F2000000218C
