:020000040800F2
:10000000F808002061020008E9430008E140000808
:10001000E5430008ED190008A947000800000000AA
:1000200000000000000000000000000099440008EB
:10003000611A00080000000059440008F14400085B
:100040007B0200087B0200087B0200087B0200089C
:100050007B0200087B0200087B0200087B0200088C
:100060007B0200087B0200087B020008F1190008EF
:100070007B0200087B020008011A00087B020008CE
:100080007B0200087B0200087B0200087B0200085C
:100090007B0200087B0200087B0200087B0200084C
:1000A0007B0200087B0200087B0200087B0200083C
:1000B0008D4500087B0200087B0200087B020008D7
:1000C0007B0200087B0200087B0200087B0200081C
:1000D0007B0200087B0200087B0200087B0200080C
:1000E0007B0200087B0200087B02000800F002F897
:1000F00000F0A6F814A696E8000CB244B344DA4522
:1001000001D100F09DF8BAE80F000FA696E8300084
:10011000A5EB040504EB0607AAEB0704A7F101070A
:100120004FEA15154FEA3414A4F10104AC4201D38F
:1001300000F086F813F0010F18BFFB1A43F001031B
:1001400000F001F8DBE7184710640000306400009D
:10015000103A24BF78C878C1FAD8520724BF30C8F3
:1001600030C144BF04680C60704700007047000055
:100170000023002400250026103A28BF78C1FBD8B0
:10018000520728BF30C148BF0B6070476E2900F08E
:100190007B81702900F0BF82662906F0B080652956
:1001A00006F0AD80672906F0AA80612906F0A980D3
:1001B00003681B0A28BF41F08001692900F02881EB
:1001C000642900F02581752900F022816F2900F053
:1001D0004D82782900F08B82E92900F0E781E4293B
:1001E00000F0E481F52900F0E181EF2900F04A8276
:1001F000F82900F08A820368DB0928BF41F08001FA
:10020000632900F08F87732900F09487E32900F0B9
:100210009F87F32900F0A487002070471FB500F0E6
:10022000F9FF04000020002105F09EF8401C6060EA
:100230000020002105F082F8E0601FBD10B510BD60
:1002400000F0BAFF1146FFF7E9FF04F03FFB01F0B1
:1002500097F803B4FFF7F2FF03BC01F0DBF80000EE
:100260000948804709480047FEE7FEE7FEE7FEE74A
:10027000FEE7FEE7FEE7FEE7FEE7FEE70448054986
:10028000054A064B7047000089450008ED0000084C
:10029000F8020020F8080020F8040020F8040020EC
:1002A0000FB41CB50C0007AA009007D04142A14230
:1002B00002D32044401E01E04FF0FF30074B7B4447
:1002C00069460190069800F0F8F80021002C01D052
:1002D000009A11701CBC5DF814FB00001F020000A6
:1002E0004FF0000200B5134694469646203922BFCF
:1002F000A0E80C50A0E80C50B1F12001BFF4F7AF1A
:10030000090728BFA0E80C5048BF0CC05DF804EBFB
:10031000890028BF40F8042B08BF704748BF20F869
:10032000022B11F0804F18BF00F8012B7047704767
:100330007047704710B500F0BDFA006810BD10B5E9
:10034000044600F0B7FA046010BD70B50446856934
:100350000068C10601D5302600E02026C00707D07E
:1003600070BDD4E9012130469047206A401C2062CC
:100370006D1EF6D570BD70B5044685690078C0075E
:1003800007D170BDD4E9012120209047206A401C8C
:1003900020626D1EF6D570BD09684A0501D540B2D0
:1003A0007047C905FCD500B2704709684A0501D5F8
:1003B000C0B27047C905FCD580B2704770B50C4615
:1003C0000546012A05D02878800600D5EA69002371
:1003D00002E0012305E05B1C934202D2E05C0028AE
:1003E000F9D1A869E618C01AA861286A18442862D9
:1003F0002846FFF7AAFF04E0D5E9012114F8010B14
:100400009047B442F8D32846FFF7B5FF70BD00000F
:100410002DE9F0410646002410687529314616A5DD
:1004200010D0FFF7B9FF002802DA404213A507E019
:1004300031688A0701D512A502E0490704D511A544
:10044000012401E0FFF7B1FF00210A2206F1240791
:1004500009E0B0FBF2FCB0FBF2F302FB1C00303011
:1004600078541846491C0028F3D123462A463046C2
:10047000BDE8F04100F067BA000000002D00000068
:100480002B0000002000000011680268006A53057C
:1004900001D508700AE0D30501D5088006E01306EF
:1004A00003D5C217C1E9000200E0086001207047CF
:1004B00001694A1C02610878704700B58FB0CDE928
:1004C00001310021059105497944CDE90310114618
:1004D000684600F02BF90FB000BD0000E5FFFFFFFC
:1004E000D1E900239A4202D2531C0B60107070476E
:1004F0002DE9FF5F15468A460446DFF8AC80F844D4
:100500000027D8E900103E46CDE9001010E03AF887
:1005100016106A4602A800F027FE411C07D0217879
:10052000890603D5E269391891420DD80744761C33
:100530002078800602D5E069B84205DDAE42E6DBF0
:100540003AF816000028E2D1A069C01BA06120463D
:10055000FFF7FBFED8E90010CDE90010002017E0FE
:100560003AF818106A4602A800F0FEFDB0F1FF3F0D
:1005700081460BD000250DF1080B05E0D4E90121DF
:100580001BF8050090476D1C4D45F7D308F101009D
:10059000B0428046E4DB206A384420622046FFF700
:1005A000EAFEBDE8FF9F0000265F00002DE9F04154
:1005B0008046D21D22F007020025D2E90002F5296B
:1005C00015A614D0011E72F1000106DA0023D0EB4B
:1005D000030063EB020211A608E0D8F800108B07B5
:1005E00001D50FA602E0490701D50EA60125114647
:1005F000002408F1240704E000F060F930323A5595
:10060000641C50EA0102F7D12B463246214640468F
:10061000BDE8F04100F097B9000000002D00000097
:100620002B0000002000000030B4002100F1240461
:1006300008E002F00705D208303542EA4372DB08D1
:100640006554491C52EA0305F3D10468002310A243
:10065000250708D504F020040C4304D0C469012305
:100660000CA2641EC46130BC00F06DB910B5044624
:1006700021461068FFF799FE02462046BDE810406B
:100680000023D1E7D21D22F00701D1E90023CBE7F7
:100690000000000030000000F0B40D46018809059C
:1006A00002D5214C7C4402E01F4C7C440E340021D6
:1006B00000F1240608E002F00F071209E75D42EAA4
:1006C00003721B097754491C52EA0307F3D10278DD
:1006D0000023120704D5702D06D009B1022311346E
:1006E0002246F0BC00F02FB901231034F8E770B5B2
:1006F00004460D4621461068FFF757FE024629467C
:100700002046BDE870400023C6E7D21D22F0070353
:10071000D3E90023C0E70368126843F020030360B5
:100720000823C3610023B7E7885D00002DE9F05F6F
:10073000894604464FF0000ADFF874B1FB44C0F864
:1007400020A02046E1688847002874D0252806D0DC
:10075000D4E901219047206A401C2062F1E700267D
:100760005F462046E16888472028054607DB312D93
:1007700005D2781910F8200C08B10643F1E7B0074C
:1007800001D526F00406C4F81CA00027C4F818A060
:100790002A2D09D0284604F001FD38B304EB870860
:1007A000303DC8F8185019E059F8041B204604EBF6
:1007B00087029161E1688847012F054618D1E069F9
:1007C000002820DA26F020061DE0D8F8180000EBFB
:1007D000800005EB40003038C8F818002046E1687A
:1007E0008847054604F0DAFC0028EED1012F0AD034
:1007F0002E2D08D12046E16888477F1C0546022F30
:1008000046F02006C4DBA069002803DA404246F027
:100810000106A061F00701D026F010066C2D0BD068
:10082000682D09D04C2D39D06A2D35D0742D35D096
:100830007A2D33D016E038E0E1682F46204688470D
:10084000B842054609D16C2F26D04FF48060E1688C
:10085000064320468847054604E06C2F1AD04FF423
:10086000807006430DB3A5F14100192802D8203548
:1008700046F400664A462946204626604E46FFF763
:1008800085FC80B101280BD0F61D26F0070000F191
:10089000080956E74020E4E78020D8E70020D6E7A3
:1008A00006F104094DE7284652E7206ABDE8F09FAB
:1008B000185D0000004870471000002030B5B0F10E
:1008C0000A0271F100034FEA900E4EEA817EB0EB0E
:1008D0000E0061EB91014FEA101E4EEA017E10EB13
:1008E0000E0041EB11114FEA102E4EEA016E10EB93
:1008F0000E0041EB11214FEA104E4EEA014E10EB73
:100900000E0041EB1141401841F100014FEAD000C7
:1009100040EA41704FEAD1014FEA810444EA907401
:1009200010EB800544EB01046D1944EB0404521BE9
:10093000A3414FF0000348BF0A3200D530BD401C30
:1009400041F1000130BD2DE9F0470D469946924630
:10095000044600F124080168880604D5E06921F006
:100960001001216000E00120A84201DD471B00E0EA
:100970000027A1697A1902EB0900081AA061207802
:10098000C00602D42046FFF7E0FC002608E0D4E9C8
:1009900001211AF806009047206A401C761C20624C
:1009A0004E45F4DB2078C0060AD52046FFF7CDFC83
:1009B00006E0D4E9012130209047206A401C2062E3
:1009C000381EA7F10107F4DC07E0D4E9012118F88B
:1009D00005009047206A401C2062281EA5F10105F1
:1009E000F3DC2046FFF7C7FC2078000602D5022082
:1009F000BDE8F0870120FBE72DE9FF4F0C461E46BE
:100A00004FF0FF378BB0D2E90001DDF860800A902B
:100A10008A46C1F30A5505B93D46002108464FF004
:100A20000000BAF1000F00F4400005DA00EB80008E
:100A30004FF4400101EA50004FEA9059B9F1010F1B
:100A400000DDB9460A9850EA4A000ED044F610502C
:100A5000A5F2FF3545432F14B8F1000F1ED07542A3
:100A6000291E1EDDC9F100021CE0B8F1010F4FF094
:100A7000000001D0302103E0F24305E02154401C86
:100A8000B042FBDB30460022002121540B99C1F813
:100A90000880C1E900200FB0BDE8F08FBD1B6D1CC0
:100AA000DEE74A4600DA694206A800F0F7FB06AB2B
:100AB00093E8070003AB83E8070050460A9903F068
:100AC00085FF8DE80700A0F500501F3800900398BF
:100AD000002D0ADD42F21F014A460844002303A903
:100AE0000390684604F0EEF909E0A0F500504A468C
:100AF0001F38002303A90390684604F0F8F98DE835
:100B000007000004000C03D04FF0FF30410800E064
:100B10001046B8F1000F03D00022009215461EE0E7
:100B2000751E05D4FFF7CAFE303262556D1EF9D529
:100B3000B3460122084302D000227F1C04E0207843
:100B4000302801D100227F1E002A099784D01DE0A1
:100B5000112D07DAFFF7B2FE303262556D1C50EAF4
:100B60000102F5D1084302D00098C8B10EE000217F
:100B7000681E05E0235C625C63542254401E491CDD
:100B80008142F7DBAB46A81B401E0990002004F809
:100B90000B000B98099AC0F80880C0E9002B7AE78F
:100BA00011264FF0000857E72DE9F04F884604461C
:100BB000D21D22F0070191B0D1E90001CDE90A016F
:100BC00004F0CCFA02460B98C00F01D02D2007E0AC
:100BD0002068810701D52B2002E0202101EAC00016
:100BE000032A099001D0072A05DB03464146204627
:100BF00000F014FB0BE12078800601D5E06900E0ED
:100C00000620B8F1650F814606D0B8F1660F18D0FE
:100C1000B8F1670F70D131E00020B9F1110F0090E9
:100C200001DB112301E009F101030AAA01A90CA8C3
:100C3000FFF7E2FEDDE90C70002609F101058346AD
:100C400047E001204B4600904FF000470AAA01A957
:100C50000CA8FFF7D1FEDDE90DB00C995D4600262A
:100C600010B909F101000D18B9EB050003D4C0F16A
:100C7000FF3609F10105A5EB09002BE0B9F1010FE1
:100C800001DA4FF001090020B9F1110F0090484638
:100C900001DD112300E003460AAA01A90CA8FFF711
:100CA000ABFEDDE90C704D46002683462078000738
:100CB0000AD4AB4500DA5D4601A8012D04DD4119D7
:100CC00011F8011C302907D04F4502DA17F1040F43
:100CD00004DA012082460FE06D1EEEE7002F02DCF1
:100CE000ED1B3E4403E0781CA84200DD7D1CB81BD0
:100CF00000F1010A4FF000472078000703D4AA450D
:100D000001DB4FF0FF3A0021B7F1004F0DF143082E
:100D10008DF8431024D002202B23002F01DA7F42CC
:100D20002D230A21021EA0F1010000DC5FB197FB18
:100D3000F1FC97FBF1F201FB1C7C17460CF1300C27
:100D400008F801CDEEE7A8F101000370218809053C
:100D500001D5452100E06521A0F1010800F8011C42
:100D600009980FA9A1EB0807FF1D00B10120411947
:100D700001EBEA70A1693844081A401EA06120788E
:100D8000C00602D42046FFF7E0FA099828B1D4E95A
:100D900001219047206A401C20622078C00622D59D
:100DA0002046FFF7D2FA1EE0002E04DBB34502DD39
:100DB00001A8805D00E03020D4E901219047206A3D
:100DC000401C2062761CAAF101005FEA000A0AD1E9
:100DD00000F020FAC0680168405CD4E90121904726
:100DE000206A401C2062281EA5F10105DCDC07E01A
:100DF000D4E9012118F8010B9047206A401C2062B9
:100E0000381EA7F10107F3DC2046FFF7B4FA0320F0
:100E100011B041E62DE9F04F04460D46D21D22F0F7
:100E2000070089B0D0E900974846394604F096F9A2
:100E30000246F80F01D02D2307E02068810701D575
:100E40002B2302E0202101EAC0038DF820300BB1F2
:100E5000012000E00020032A824601D0072A04DB9B
:100E60002946204600F0DAF93FE12078800601D4D7
:100E70000D2500E0E569C7F30A560D2D49DA00217A
:100E80004FEA175B08464FF00000002F00F44000C7
:100E900007DA00EB80004FF4400100EBD07001EA6C
:100EA00060008115012901DD4FF0FF3100224FEA7A
:100EB000850CBCF1180F06D31346ACF118004FF0A7
:100EC0008052C24003E04FF4801323FA0CF30CF17C
:100ED0000C0CBCF1200F04D3ACF1200C09FA0CF07F
:100EE00001E007FA0CF000294FF0004801DD18B9C5
:100EF0000FE00ED140450CD319EB02095F4121B937
:100F0000404502D19F4329EA0209BBEB175F00D09D
:100F1000761C2088000502D57B48784402E07A4898
:100F20007844193808AA302302F80A30037C0AF101
:100F30000101002E0AF1020A53546A4602DC4FF006
:100F4000300101E04FF031014FF001088DF8001041
:100F500002D0A6F2FF3603E059EA470100D06B4EFB
:100F6000002D02DC2178090704D54FF002082E215C
:100F70008DF80110C44600210BE0C7F303433F0185
:100F8000C35C491C6D1E02F80830052908F10108F0
:100F900001DA002DF1DC00210CE000EB1973491C93
:100FA0001B786D1E082902F808304FEA091908F16C
:100FB000010801DA002DF0DC21688B0602D516E06D
:100FC000A8F10108E04505DD02EB080313F8013C38
:100FD000302BF5D0B8F1000F09DD02EB080313F850
:100FE000013C2E2B03D1090701D4A8F10108002DE3
:100FF00005DD3E2102F808106D1E08F10108407C55
:10100000002E02F8080008F1010804DA2D207642CB
:1010100002F8080002E02B2002F808000A214FF431
:101020007A70864208F101080BDB96FBF0F330334F
:1010300002F8083096FBF0F308F1010800FB136694
:1010400001E0642E0CDB642096FBF0F3303302F8F1
:10105000083096FBF0F308F1010800FB136601E08D
:101060000A2E06DB96FBF1F0303002F8080008F19A
:10107000010896FBF1F001FB1060303002F8080027
:10108000A16908F1010808EB050202EB0A00081A41
:10109000A0612078C00602D42046FFF756F9216AE5
:1010A00008AE01EB0A00206204E0D4E9012116F841
:1010B000010B9047BAF1010AF7D22078C00602D599
:1010C0002046FFF742F96E4609E016F8010B3E286C
:1010D0000FD0D4E901219047206A401C2062B8F16A
:1010E0000108F2D22046FFF746F909B00320BDE817
:1010F000F08F206A2844206203E0D4E901213020E7
:1011000090476D1EEBD3F8E75E55000002FCFFFF31
:1011100010B5436913B1AFF3008001E0FFF74EF95A
:10112000012010BD127800F124010A7000224A70DB
:101130000122EDE711684FF0FF32E9E710B543698E
:1011400013B1AFF3008001E0FFF7D2F9012010BD29
:10115000128800F1240182840022C2840122EDE77A
:1011600011684FF0FF32E9E72DE9F04116460C46D1
:10117000054600F047F8036893F80101012807D0FD
:10118000FF2C12D8185D80B101202C70BDE8F081D1
:10119000D3F807013246214603F20713C718284641
:1011A000BC46BDE8F041002360474FF0FF30EDE75B
:1011B00000487047100000207546FFF7F9FFAE4663
:1011C00005006946534620F00700854618B020B553
:1011D000FFF754F8BDE820404FF000064FF000073D
:1011E0004FF000084FF0000BAC46ACE8C009ACE88B
:1011F000C009ACE8C009ACE8C00921F007018D4680
:101200007047000010B500F005F8001D10BD00BFCC
:101210005941000000487047300000202DE9F0419E
:101220001F46044603260168072A01F4006004DB18
:1012300008B116A505E016A503E008B115A500E064
:1012400015A521F010002060A069C01EA0610FB19B
:10125000401EA0612046FFF778F84FB1D4E9012184
:1012600038469047206A401C2062C01C206206E07D
:10127000206AFAE7D4E9012115F8010B9047761EA0
:10128000F8D22046FFF777F8BDE8F0814E414E00D6
:101290006E616E00494E4600696E66002DE9F047AA
:1012A000814616468AB0354878440DC88DE80D0051
:1012B00032487844801C03AC0DC884E80D0041F628
:1012C0009B300844372190FBF1F290FBF1F5A5F13A
:1012D000800501FB12041B3C02D56442012000E0A2
:1012E0000020DFF898A080460027FA44AAF1BE0A41
:1012F0000EE0E0070AD03246684607EB47010123BB
:101300000AEB810103F0F3FD8DE8070064107F1CF8
:10131000002CEED1194F7F44AE3F19E0E80715D0FD
:1013200007EB04100DF1180A90E80E008AE80E0091
:10133000C068F04201D1981908903246012306A9ED
:1013400003A803F0D4FD03AB83E807006D10641C11
:10135000002DE3D14FF0010332466946B8F1000F8A
:1013600003A802D003F0AEFD01E003F0C0FDC9E91F
:101370000001C9F808200AB0BDE8F08760520000FB
:1013800010B50446AFF300802046BDE81040FEF7DC
:1013900060BF00004FF0013C50F8042B51F8043BB3
:1013A0009A4221D1A2EB0C03934313EACC1317D139
:1013B00050F8042B51F8043B9A4215D1A2EB0C03D0
:1013C000934313EACC130BD150F8042B51F8043B90
:1013D0009A4209D1A2EB0C03934313EACC13DBD05E
:1013E0004FF00000704700BFD01A01BAB1FA81F186
:1013F00001F0180122FA01F0CB40DBB2C0B2C01AF2
:10140000C1F120012CFA01F3D11A914311EAC31161
:10141000E6D1704701491820ABBEFEE72600020066
:101420007047000080B584B00290002001900298BF
:1014300000688068C00770B3FFE702980168886899
:1014400020F00100886001F04DFB0190FFE7029859
:1014500000688068C007E8B1FFE701F043FB01992D
:10146000401A032815D3FFE7029800688068C00778
:1014700070B1FFE70299886A40F010008862029913
:10148000C86A40F00100C86201208DF80F0006E034
:10149000FFE7DCE7FFE700208DF80F00FFE79DF88E
:1014A0000F0004B080BD000080B582B001900198AB
:1014B000406A00900098806A10F0500F28D1FFE732
:1014C0000099886A40F4007088620098006880681B
:1014D00000F46020B0F5602F16D1FFE70098007B84
:1014E00090B9FFE70099886A20F4807088620098BC
:1014F000806AC004002806D4FFE70099886A40F09B
:1015000001008862FFE7FFE7009800F08DFB05E02F
:101510000098006A016B01988847FFE702B080BD20
:1015200080B582B001900198406A00900099886A65
:1015300040F0400088620099C86A40F00400C86228
:10154000009800F09DFC02B080BD000080B582B024
:1015500001900198406A0090009800F08DFC02B064
:1015600080BD000080B584B0029000200190009002
:10157000029800688068C007002849D1FFE70298F8
:101580000168886840F00100886040F20000C2F203
:10159000000000684DF68361C4F21B31A0FB01100E
:1015A000800C0090FFE7009820B1FFE70098013819
:1015B0000090F8E701F096FA0190FFE702980068C2
:1015C0008068C00718BBFFE701F08CFA0199401A48
:1015D00003281BD3FFE7029800688068C007A0B902
:1015E000FFE70299886A40F0100088620299C86A91
:1015F00040F00100C862FFE70299002081F8240052
:10160000FFE701208DF80F0006E0FFE7D6E7FFE7D0
:1016100000208DF80F00FFE79DF80F0004B080BD9B
:1016200080B5002001214FF4FA6200F03DF980BD41
:1016300080B582B08DF807008DF806109DF8070080
:1016400040F28001C2F2000191F90310884209DBE7
:10165000FFE700208DF807009DF8060001308DF8A7
:101660000600FFE79DF8060040F28001C2F200018B
:1016700091F90210884204DBFFE700208DF8060094
:10168000FFE79DF8061046F23450C0F60000405CBB
:101690009DF80710084440F08000C1B200203222BB
:1016A00000F002F99DF8070040F28001C2F200014B
:1016B00008709DF80600487002B080BD80B586B005
:1016C0008DF817008DF8161000F042F828200290CF
:1016D00003F06CF8002004903021019100F04AF9E9
:1016E000052003F063F80199049800F043F96420A1
:1016F00003F074F80199049800F03CF90498202153
:1017000000F038F9029904983222039200F0CCF8E4
:10171000039A0498082100F0C7F8049801214FF4B7
:10172000FA6200F0C1F8039A04980C2100F0BCF8AA
:1017300004989DF8172040F28001C2F20001CA709F
:101740009DF816208A700870487006B080BD0000B1
:1017500080B588B0FFE741F21800C4F202000168CA
:1017600041F020010160006800F020000390039820
:10177000FFE70120059000210691032107910490C5
:1017800040F60040C4F20100019004A9029101F06A
:1017900001F8019802990222049200F0FBFF0198DF
:1017A00002990822049200F0F5FF01980299102294
:1017B000049200F0EFFF019802992022049200F0B9
:1017C000E9FF019802994022049200F0E3FF01989A
:1017D00002998022049200F0DDFF08B080BD000075
:1017E00080B582B08DF807009DF8071001203222E5
:1017F00000F05AF840F28001C2F20001087801308E
:10180000087040B291F9031088421FDBFFE740F2F5
:101810008001C2F200010020087048780130487051
:1018200040B291F90210884207DBFFE740F28001E5
:10183000C2F2000100204870FFE740F28001C2F2CE
:10184000000108784978FFF7F3FEFFE702B080BD9A
:1018500080B582B00190FFE70198007838B1FFE7CA
:101860000198411C01910078FFF7BAFFF4E702B03C
:1018700080BD000080B584B040F60040C4F2010095
:10188000019008210291012201F014F91420039023
:1018900002F0A4FF01980299002201F00BF90398CD
:1018A00002F09CFF04B080BD80B588B08DF81F00A9
:1018B0008DF81E1006929DF81E008DF817009DF8F9
:1018C0001F2040F60040C4F201000390012101F006
:1018D000F1F803980221002201F0ECF803989DF83A
:1018E0001710CA098021009101F0E4F803989DF8CF
:1018F0001710C1F380124021019101F0DBF8039829
:101900009DF81710C1F340122021029101F0D2F886
:1019100003989DF81710C1F300121021049101F0F3
:10192000C9F8FFF7A7FF009903989DF81720C2F3A5
:10193000C00201F0BFF8019903989DF81720C2F387
:10194000800201F0B7F8029903989DF81720C2F3BE
:10195000400201F0AFF8039804999DF8172002F0B7
:10196000010201F0A7F8FFF785FF069802F036FFA5
:1019700008B080BD80B584B08DF80F008DF80E10D2
:101980009DF80E008DF80D0040F60040C4F20100F5
:10199000029001210022019201F08CF8019A029834
:1019A000022101F087F802989DF80D10CA098021E4
:1019B00001F080F802989DF80D10C1F380124021CB
:1019C00001F078F802989DF80D10C1F34012202123
:1019D00001F070F802989DF80D10C1F3001210216B
:1019E00001F068F8FFF746FF04B080BDFFE7FEE7AF
:1019F00080B540F27C10C2F2000000F0C9FC80BD4E
:101A000080B540F2C010C2F2000000F0C1FC80BD01
:101A100084B003900291019200930398C16B026C11
:101A20000120904048600098039909684860039835
:101A30004068102809D1FFE7019803990968886078
:101A4000029803990968C86008E002980399096838
:101A50008860019803990968C860FFE704B070477F
:101A60007047000081B0EFF3108072B60090FFE77E
:101A7000FEE7000085B00390029100208DF807007A
:101A80000090FFE7039890F82400012804D1FFE7B5
:101A900002208DF81300C3E00399012081F824008F
:101AA000FFE7FFE702984068062812D8FFE703988F
:101AB0000068406B029A1168526802EB8202053A94
:101AC0001F23934098439140084303990968486352
:101AD00029E0029840680C2812D8FFE703980068B4
:101AE000006B029A1168526802EB8202233A1F23AC
:101AF000934098439140084303990968086311E0B3
:101B000003980068C06A029A1168526802EB820268
:101B1000413A1F2393409843914008430399096831
:101B2000C862FFE7FFE7029800680A2812D3FFE7C0
:101B300003980068C06802990A68896802EB42024B
:101B40001E3A07239340984391400843039909683C
:101B5000C86010E003980068006902990A68896803
:101B600002EB4202072393409843914008430399B4
:101B700009680861FFE702980068102805D0FFE7B0
:101B800002980068112840D1FFE70398006842F2EC
:101B90000041C4F2010188422DD1FFE7039800689B
:101BA00080680002002825D4FFE703980168886850
:101BB00040F40000886002980068102819D1FFE7FF
:101BC00040F20000C2F2000000684DF68361C4F2EA
:101BD0001B31A0FB0110800C00EB80004000009046
:101BE000FFE7009820B1FFE7009801380090F8E780
:101BF000FFE7FFE708E00399886A40F02000886269
:101C000001208DF80700FFE7FFE7FFE703990020B9
:101C100081F82400FFE79DF807008DF81300FFE727
:101C20009DF8130005B0704780B59EB01D90002050
:101C30001C901B908DF86B00FFE79DF86B0004F083
:101C400089F90021C4F2C82104F06DF890B9FFE7CA
:101C50009DF86B1040F28400C2F2000030F81110C1
:101C60001C9808441C90FFE79DF86B0002308DF82B
:101C70006B00E2E701208DF86A00FFE79DF86A003B
:101C800004F068F90021C4F2C82104F04CF890B9BE
:101C9000FFE79DF86A1040F28400C2F2000030F8BD
:101CA00011101B9808441B90FFE79DF86A00023052
:101CB0008DF86A00E2E71C9804F064F90021C4F290
:101CC0004821009104F050F840F27001C2F2000186
:101CD000019108601B9804F055F9009904F044F84C
:101CE0000146019840F27402C2F2000206921160AD
:101CF00000684FF20001C4F27F51059104F034F8FE
:101D000003F068FF47F2C962C9F6BE72099242F653
:101D10001A73C4F20A030A9303F070FD03F03AFB4E
:101D200019901998029047F60001C4F21B610791BF
:101D300004F0A4F903F04EFF0246029803920491C6
:101D400003F048FF024609980B460A9903F054FE37
:101D5000024603980B46049903F0F6FB03F01AFBC6
:101D60001890189845F20001C4F2437103F0FCFF8B
:101D700003F01CFA4EF20001C4F276510D9103F00B
:101D8000F3FF4CF60F71C3F65B310E9103F04EFF7B
:101D9000179017994FF07E500F9003F0E5FF1690C3
:101DA000169803F017FF4FF06632109241F2662347
:101DB000C4F27103119303F01FFE03F0EBFA0599CF
:101DC0000246069840F27803C2F200031A600068E7
:101DD00003F0CAFF03F0FEFE099A0A9B03F00EFD12
:101DE00003F0D8FA079915901598089004F046F971
:101DF00003F0F0FE024608980B920C9103F0EAFE05
:101E0000024609980B460A9903F0F6FD02460B9824
:101E10000B460C9903F098FB03F0BCFA149014984D
:101E200044F20001C4F21C6103F09EFF03F0BEF90E
:101E30000D9903F099FF0E9903F0F8FE01460F98F3
:101E40001391139903F090FF1290129803F0C2FEC1
:101E5000109A119B03F0D0FD03F09CFA40F27C0134
:101E6000C2F20001086040F2EC21C2F20001012040
:101E700008701EB080BD000081B0009001B07047B6
:101E800081B0009001B0704780B588B00690002006
:101E90008DF81700049003900290069820B9FFE790
:101EA00001208DF81F00F4E00698806830B1FFE74C
:101EB0000698007D08B1FFE7FFE7FFE70698806A14
:101EC00050B9FFE706990020C862069981F82400FE
:101ED000069800F0E3F8FFE70698FFF7A3FA8DF8FD
:101EE00017000698806AC006002800F1C480FFE74A
:101EF0009DF81700002840F0BE80FFE70698806A32
:101F000040F0020020F488500699886206994868DB
:101F1000CA691043097B40EA4101039808430390D2
:101F2000069881680120B1F5807F019008D0FFE715
:101F3000069880680138B0FA80F040090190FFE708
:101F400001990498CA0740F48071002A18BF084616
:101F500004900698007D01281ED1FFE70698007BBB
:101F600070B9FFE7069881694EF20000CFF6FF7066
:101F700000EB41300499084340F4006004900AE00B
:101F80000699886A40F0200088620699C86A40F085
:101F90000100C862FFE7FFE706980068406820F488
:101FA00069400499084306990968486006980068E2
:101FB00080684FF2FD71CFF6E17108400399084344
:101FC000069909688860069881680120B1F5807FCC
:101FD000009008D0FFE7069880680138B0FA80F0DA
:101FE00040090090FFE7009800F00100002818BFAA
:101FF0004FF48070B0F5807F09D1FFE70698016942
:102000000020CFF6F07000EB01500290FFE7069839
:102010000068C06A20F470000299084306990968B4
:10202000C86206980068806840F6FE61CFF61F71AE
:102030000840039988420CD1FFE706990020C86246
:102040000698806A40F0010020F00200069988623C
:1020500010E00698806A40F0100020F00200069917
:1020600088620699C86A40F00100C86201208DF8B4
:102070001700FFE708E00699886A40F010008862C0
:1020800001208DF81700FFE79DF817008DF81F005D
:10209000FFE79DF81F0008B080BD000080B588B044
:1020A0000790002006900590049003900798006820
:1020B00042F20041C4F20101884252D1FFE7FFE73A
:1020C00041F21800C4F20200016841F4007101609D
:1020D000006800F4007002900298FFE7FFE741F209
:1020E0001800C4F20200016841F0040101600068B8
:1020F00000F0040001900198FFE706200390032000
:10210000049040F60000C4F2010003A900F042FB75
:1021100040F27C10C2F2000000900821C4F20201DB
:1021200001600021416081608022C2604FF48072B2
:1021300002614FF48062426120228261C16100F03D
:102140006BFA18B1FFE7FFF78DFCFFE7FFE7079891
:1021500040F27C11C2F20001016207984862FFE779
:10216000FFE708B080BD000080B586B00490039101
:10217000029200208DF807000498006842F20041A6
:10218000C4F20101884209D0FFE70498006842F6D2
:102190000001C4F20101884209D1FFE742F2044084
:1021A000C4F20100006800F47020009002E00020FA
:1021B0000090FFE70098002840F0DC80FFE7FFE791
:1021C000049890F82400012804D1FFE702208DF83C
:1021D0001700D8E00499012081F82400FFE7FFE709
:1021E0000498FFF7BFF98DF807009DF80700002855
:1021F00040F0B880FFE70498806A40F4807040F6B1
:1022000001618843049988620498006842F60001DD
:10221000C4F20101884209D1FFE742F20440C4F24E
:102220000100006810F4702F03D018E00020B0B94E
:10223000FFE70499886A20F4801088620498006897
:1022400040684005002809D5FFE70498806A40F4FB
:10225000805020F4005004998862FFE72CE0049934
:10226000886A40F4801088620498006842F2004155
:10227000C4F20101884209D0FFE70498006842F6E1
:102280000001C4F20101884209D1FFE742F2044093
:10229000C4F2010000684005002803D40BE00120CF
:1022A00048B9FFE70498806A40F4805020F4005059
:1022B00004998862FFE7FFE70498806AC004002859
:1022C00006D5FFE70499C86A20F00600C86203E05B
:1022D00004990020C862FFE7FFE70499002081F815
:1022E0002400FFE70498016A41F2A940C0F600000B
:1022F00088620498016A41F24D50C0F60000C8623D
:102300000498016A41F22150C0F600000863049865
:1023100001686FF00200086004980168886840F462
:102320008070886004980168006A4C31039A029BAF
:1023300000F0CAF904980068806800F46020B0F5E5
:10234000602F07D1FFE704980168886840F4A00077
:10235000886006E004980168886840F4801088600E
:10236000FFE706E0FFE70499002081F82400FFE77B
:10237000FFE703E001208DF80700FFE79DF8070065
:102380008DF81700FFE79DF8170006B080BD00002C
:1023900080B58EB00D900D98C06B00680C900D98B4
:1023A000006800680B900C980D99096CC8404007B4
:1023B000002875D5FFE79DF82C00400700286FD551
:1023C000FFE70D98006800688006002807D4FFE743
:1023D0000D980168086820F004000860FFE70D9878
:1023E00000680821C4F20201884203D1FFE70420FB
:1023F0000A9047E00D9800681C21C4F2020188424F
:1024000003D1FFE74020099039E00D9800683021A2
:10241000C4F20201884204D1FFE74FF480600890C3
:102420002AE00D9800684421C4F20201884204D1D8
:10243000FFE74FF4804007901BE00D98006858219B
:10244000C4F20201884204D1FFE74FF480200690D5
:102450000CE00D9801686C22C4F202024FF080601B
:10246000914208BF4FF480000690FFE7069807905E
:10247000FFE707980890FFE708980990FFE7099899
:102480000A90FFE70A980421C4F2020108600D983F
:10249000C06A20B1FFE70D98C16A8847FFE7B8E03E
:1024A0000C980D99096CC8408007002840F1808085
:1024B000FFE79DF82C008007002879D5FFE70D98ED
:1024C00000680068800600280BD4FFE70D980168BB
:1024D000086820F00A0008600D99012081F82100A9
:1024E000FFE70D9800680821C4F20201884203D179
:1024F000FFE70220059047E00D9800681C21C4F218
:102500000201884203D1FFE72020049039E00D98B2
:1025100000683021C4F20201884204D1FFE74FF481
:10252000007003902AE00D9800684421C4F2020173
:10253000884204D1FFE74FF4005002901BE00D9851
:1025400000685821C4F20201884204D1FFE74FF429
:10255000003001900CE00D9801686C22C4F2020278
:102560004FF00070914208BF4FF400100190FFE758
:1025700001980290FFE702980390FFE70398049008
:10258000FFE704980590FFE705980421C4F20201D3
:102590000860FFE70D99002081F82000FFE70D9803
:1025A000806A20B1FFE70D98816A8847FFE72FE036
:1025B0000C980D99096CC8400007002827D5FFE743
:1025C0009DF82C000007002821D5FFE70D98016831
:1025D000086820F00E0008600D98C26B016C0120A5
:1025E00000FA01F151600D9988630D9981F821007D
:1025F000FFE70D99002081F82000FFE70D98006BA0
:1026000020B1FFE70D98016B8847FFE7FFE7FFE781
:10261000FFE70EB080BD000083B001900020009065
:10262000019820B9FFE701208DF80B0047E00199E0
:1026300008684FF6F872CBF6FD7210444CF6CD42A6
:10264000CCF6CC42A0FB02026FF0030000EA92003D
:10265000086401990020C4F20200C86301990220B5
:1026600081F821000198006800680090009843F606
:10267000F0718843009001994868D1F808C0CB6890
:102680000A6940EA0C00184310434A6910438A69FA
:102690001043C969014300980843009000980199CC
:1026A00009680860019900208863019A012182F875
:1026B0002110019981F820008DF80B00FFE79DF8AB
:1026C0000B0003B07047000080B586B00490039102
:1026D0000292019300208DF80300FFE7049890F820
:1026E0002000012804D1FFE702208DF817004CE0FC
:1026F0000499012081F82000FFE7FFE7049890F893
:102700002100012832D1FFE70499022081F821003D
:1027100004990020886304980168086820F001008B
:10272000086004980399029A019BFFF771F90498D5
:10273000C06A38B1FFE704980168086840F00E00ED
:1027400008600CE004980168086820F00400086044
:1027500004980168086840F00A000860FFE70498E0
:102760000168086840F00100086009E0FFE704998B
:10277000002081F82000FFE702208DF80300FFE72A
:102780009DF803008DF81700FFE79DF8170006B0CD
:1027900080BD000090B00F900E9100200D90099028
:1027A000FFE70E9800680D99C840002800F07F816F
:1027B000FFE70D99012088400C900E9800680C9955
:1027C00008400B900B980C99884240F06C81FFE711
:1027D0000E9840680590002851D0FFE70598012821
:1027E0003AD0FFE7059802283FD0FFE70598032875
:1027F0005FD0FFE70598112832D0FFE7059812282F
:1028000038D0FFE705980021C1F21101884236D087
:10281000FFE705980021C1F2120188422FD0FFE79F
:1028200005980021C1F22101884228D0FFE70598D0
:102830000021C1F22201884221D0FFE70598002142
:10284000C1F2310188421AD0FFE705980021C1F298
:102850003201884213D02FE00E98C06809902CE016
:102860000E98C0680430099027E00E98C0680830C0
:10287000099022E00E98C0680C3009901DE00E9877
:10288000806818B9FFE70420099011E00E9880686D
:10289000012806D1FFE7082009900C980F990861DC
:1028A00005E0082009900C980F994861FFE7FFE7C1
:1028B00003E00020099000E0FFE70B98FF2803D811
:1028C000FFE70F98049003E00F9804300490FFE7AF
:1028D000049808900B98FF2804D8FFE70D98800013
:1028E000039006E00D996FF01F0000EB810003904C
:1028F000FFE70398079008980068079A0F21914016
:102900008843099991400843089908600E98C07956
:10291000C006002840F1C680FFE7FFE741F218003B
:10292000C4F20200016841F001010160006800F09A
:10293000010006900698FFE70D9820F0030008219B
:10294000C4F2010140580A900D9800F00300810084
:102950000F2000FA01F10A9888430A900F9840F678
:102960000001C4F20101884203D1FFE70020029078
:1029700026E00F9840F60041C4F20101884203D1DD
:10298000FFE70120019018E00F9841F20001C4F226
:102990000101884203D1FFE7022000900AE00F996D
:1029A00041F20042C4F201020420914208BF032018
:1029B0000090FFE700980190FFE701980290FFE781
:1029C00002980D9901F00301890000FA01F10A98BB
:1029D00008430A900A980D9921F003010822C4F2D5
:1029E000010288500E988079C006002809D5FFE7BB
:1029F0000B9A40F20841C4F20101086810430860D4
:102A000008E00B9A40F20841C4F2010108689043C3
:102A10000860FFE70E9880798006002809D5FFE757
:102A20000B9A40F20C41C4F201010868104308609F
:102A300008E00B9A40F20C41C4F20101086890438F
:102A40000860FFE70E9880798007002809D5FFE726
:102A50000B9A40F20441C4F2010108681043086077
:102A600008E00B9A40F20441C4F201010868904367
:102A70000860FFE70E988079C00748B1FFE70B9A1E
:102A800040F20041C4F2010108681043086008E008
:102A90000B9A40F20041C4F20101086890430860BB
:102AA000FFE7FFE7FFE70D9801300D9079E610B0E2
:102AB0007047000082B00190ADF802108DF801203F
:102AC0009DF8010028B1FFE7BDF8020001990861F7
:102AD00005E0BDF80200000401990861FFE702B0BB
:102AE0007047000040F2F020C2F20000006870471A
:102AF00040F20400C2F20000027840F2F021C2F27B
:102B000000010868104408607047000080B542F278
:102B10000001C4F20201086840F0100008600320C0
:102B200000F096F80F2000F005F800F03BF80020C8
:102B300080BD000080B582B0009040F20000C2F27B
:102B40000000006840F20401C2F200010A784FF46C
:102B50007A71B1FBF2F1B0FBF1F000F01BFF20B194
:102B6000FFE701208DF8070018E000980F280DD826
:102B7000FFE700994FF0FF30002200F04FF8009877
:102B800040F20801C2F20001086003E001208DF864
:102B9000070003E000208DF80700FFE79DF807001D
:102BA00002B080BD83B0FFE741F21800C4F202001A
:102BB000016841F001010160006800F0010002902D
:102BC0000298FFE7FFE741F21C00C4F2020001682F
:102BD00041F080510160006800F080500190019840
:102BE000FFE7FFE70421C4F20101086800900098A4
:102BF00020F0E0600090009840F000700090009895
:102C00000860FFE703B0704780B582B08DF8070019
:102C10009DF9070001F0FAFD02B080BD80B586B0D5
:102C20008DF81700049103920020029001F006FE37
:102C300002909DF91700019002980499039A01F0FF
:102C4000D5FB0146019801F001FE06B080BD0000F1
:102C500080B582B00190019801F01AFE02B080BDEB
:102C600080B586B00490002003900290049800780C
:102C7000C007002800F0AC80FFE700208DF80700B7
:102C800041F21C00C4F202000068C000002813D406
:102C9000FFE7FFE741F21C00C4F20200016841F0C7
:102CA00080510160006800F0805000900098FFE7BC
:102CB00001208DF80700FFE747F20000C4F2000092
:102CC0000068C005002822D4FFE747F20001C4F2E3
:102CD0000001086840F480700860FFF703FF03906C
:102CE000FFE747F20000C4F200000068C0050028BA
:102CF0000CD4FFE7FFF7F6FE0399401A652804D3CA
:102D0000FFE703208DF817008AE0EAE7FFE741F2CA
:102D10002000C4F20200006800F4407002900298A3
:102D2000E0B3FFE702980499496801F440718842D2
:102D300034D0FFE741F22001C4F20201086820F418
:102D40004070029040F24042C4F2422201201060E2
:102D500000201060029808609DF80800C007E0B1EC
:102D6000FFE7FFF7BFFE0390FFE741F22000C4F248
:102D700002000068800700280ED4FFE7FFF7B2FECC
:102D80000399401A41F28931884204D3FFE70320B6
:102D90008DF8170044E0E8E7FFE7FFE741F2200184
:102DA000C4F20201086820F44070049A526810438B
:102DB00008609DF80700012809D1FFE741F21C01D6
:102DC000C4F20201086820F080500860FFE7FFE7C6
:102DD00004980078800700280CD5FFE741F2040131
:102DE000C4F20201086820F44040049A926810433B
:102DF0000860FFE704980078C00600280CD5FFE7BC
:102E000041F20401C4F20201086820F48000049A2F
:102E1000D26810430860FFE700208DF81700FFE735
:102E20009DF8170006B080BD80B584B00290019176
:102E3000029820B9FFE701208DF80F001BE10198EF
:102E400042F20001C4F20201096801F00701884260
:102E500016D9FFE742F20000C4F20200016821F037
:102E60000701019A11430160006800F00700019911
:102E7000884204D0FFE701208DF80F00FBE0FFE758
:102E800002980078800700282AD5FFE7029800788A
:102E90004007002809D5FFE741F20401C4F202010E
:102EA000086840F4E0600860FFE7029800780007D7
:102EB000002809D5FFE741F20401C4F202010868C5
:102EC00040F460500860FFE741F20401C4F20201DF
:102ED000086820F0F000029A926810430860FFE74B
:102EE00002980078C007002860D0FFE70298406889
:102EF00001280ED1FFE741F20000C4F20200006891
:102F00008003002804D4FFE701208DF80F00B2E011
:102F100021E00298406802280ED1FFE741F200004C
:102F2000C4F2020000688001002804D4FFE70120F9
:102F30008DF80F009FE00DE041F20000C4F20200A6
:102F400000688007002804D4FFE701208DF80F00F7
:102F500091E0FFE7FFE741F20401C4F202010868D3
:102F600020F00300029A526810430860FFF7BAFD90
:102F70000090FFE741F20400C4F20200006800F094
:102F80000C0002994968B0EB810F0ED0FFE7FFF704
:102F9000A9FD0099401A41F28931884204D3FFE724
:102FA00003208DF80F0066E0E4E7FFE7019842F2A6
:102FB0000001C4F20201096801F00701884216D23B
:102FC000FFE742F20000C4F20200016821F00701AD
:102FD000019A11430160006800F0070001998842DE
:102FE00004D0FFE701208DF80F0044E0FFE70298CE
:102FF0000078400700280CD5FFE741F20401C4F235
:103000000201086820F4E060029AD2681043086068
:10301000FFE702980078000700280DD5FFE741F28E
:103020000401C4F20201086820F46050029A126997
:1030300040EAC2000860FFE700F022F841F2040114
:10304000C4F202010968C9B20A0946F22451C0F665
:103050000001895CC84040F20001C2F20001086032
:1030600040F20800C2F200000068FFF763FD002094
:103070008DF80F00FFE79DF80F0004B080BD000041
:1030800086B000200590049003900290019041F2D8
:103090000400C4F2020000680590059800F00C00DE
:1030A0000146009100283FD0FFE70098042804D093
:1030B000FFE70098082806D037E041F20020C0F270
:1030C0007A00019037E00598C0F3834146F238500A
:1030D000C0F60000405C02909DF81600C007C0B129
:1030E000FFE741F20400C4F202000068C0F340416F
:1030F00046F24850C0F60000405C0490029841F24D
:103100000021C0F27A0148430499B0FBF1F003902A
:1031100007E0029840F60011C0F23D0148430390D9
:10312000FFE70398019006E0FFE741F20020C0F2BC
:103130007A000190FFE7019806B0704780B586B02D
:103140000490049820B9FFE701208DF817002EE3C2
:1031500004980078C007002800F0AE80FFE741F235
:103160000400C4F20200006800F00C00042813D030
:10317000FFE741F20400C4F20200006800F00C0016
:1031800008281BD1FFE741F20400C4F202000068E6
:10319000C003002812D5FFE741F20000C4F202008C
:1031A00000688003002808D5FFE70498406820B92C
:1031B000FFE701208DF81700F9E27CE0FFE70498B3
:1031C0004068B0F5803F09D1FFE741F20001C4F249
:1031D0000201086840F48030086032E004984068DA
:1031E00068B9FFE741F20001C4F20201086820F467
:1031F00080300860086820F48020086020E004988F
:103200004068B0F5A02F0DD1FFE741F20001C4F2F4
:103210000201086840F480200860086840F48030AB
:1032200008600CE041F20001C4F20201086820F4D9
:1032300080300860086820F480200860FFE7FFE71E
:10324000FFE7FFE704984068D0B1FFE7FFF74AFCCB
:103250000390FFE741F20000C4F20200006880031F
:1032600000280CD4FFE7FFF73DFC0399401A6528BE
:1032700004D3FFE703208DF8170098E2EAE719E08E
:10328000FFF730FC0390FFE741F20000C4F20200B8
:103290000068800300280CD5FFE7FFF723FC0399A3
:1032A000401A652804D3FFE703208DF817007EE25B
:1032B000EAE7FFE7FFE7FFE70498007880070028C8
:1032C00040F18D80FFE741F20400C4F20200006883
:1032D00010F00C0F13D0FFE741F20400C4F202001B
:1032E000006800F00C00082829D1FFE741F2040033
:1032F000C4F202000068C003002820D4FFE741F2B6
:103300000000C4F2020000688007002809D5FFE72A
:1033100004980069012804D0FFE701208DF8170008
:1033200045E241F20001C4F20201086820F0F80011
:10333000049A526940EAC2000860FFE74EE0049830
:10334000006958B3FFE70021C4F242210120086060
:10335000FFF7C8FB0390FFE741F20000C4F2020050
:103360000068800700280CD4FFE7FFF7BBFB039938
:10337000401A032804D3FFE703208DF8170016E254
:10338000EAE741F20001C4F20201086820F0F80007
:10339000049A526940EAC20008601EE00021C4F2AB
:1033A000422100200860FFF79DFB0390FFE741F2F8
:1033B0000000C4F202000068800700280CD5FFE777
:1033C000FFF790FB0399401A032804D3FFE703207B
:1033D0008DF81700EBE1EAE7FFE7FFE7FFE7049866
:1033E00000780007002848D5FFE70498806918B3E3
:1033F000FFE740F28041C4F2422101200860FFF75C
:1034000071FB0390FFE741F22400C4F20200006860
:10341000800700280CD4FFE7FFF764FB0399401AEC
:10342000032804D3FFE703208DF81700BFE1EAE784
:10343000012001F013F81FE040F28041C4F2422164
:1034400000200860FFF74EFB0390FFE741F22400E5
:10345000C4F202000068800700280CD5FFE7FFF7E0
:1034600041FB0399401A032804D3FFE703208DF89A
:1034700017009CE1EAE7FFE7FFE7049800784007C0
:10348000002840F1D880FFE700208DF8070041F2C6
:103490001C00C4F202000068C000002813D4FFE73B
:1034A000FFE741F21C00C4F20200016841F08051C4
:1034B0000160006800F0805000900098FFE7012054
:1034C0008DF80700FFE747F20000C4F20000006833
:1034D000C005002822D4FFE747F20001C4F2000132
:1034E000086840F480700860FFF7FCFA0390FFE77B
:1034F00047F20000C4F200000068C00500280CD4A8
:10350000FFE7FFF7EFFA0399401A652804D3FFE7B6
:1035100003208DF817004AE1EAE7FFE7FFE7049888
:10352000C068012809D1FFE741F22001C4F202017D
:10353000086840F00100086031E00498C06868B98C
:10354000FFE741F22001C4F20201086820F0010007
:103550000860086820F0040008601FE00498C06854
:1035600005280DD1FFE741F22001C4F202010868ED
:1035700040F004000860086840F0010008600CE0BA
:1035800041F22001C4F20201086820F00100086045
:10359000086820F004000860FFE7FFE7FFE7FFE7A7
:1035A0000498C068E0B1FFE7FFF79CFA0390FFE7DB
:1035B00041F22000C4F202000068800700280ED407
:1035C000FFE7FFF78FFA0399401A41F289318842E9
:1035D00004D3FFE703208DF81700E8E0E8E71BE0DD
:1035E000FFF780FA0390FFE741F22000C4F20200E7
:1035F0000068800700280ED5FFE7FFF773FA0399EC
:10360000401A41F28931884204D3FFE703208DF844
:103610001700CCE0E8E7FFE79DF80700012809D193
:10362000FFE741F21C01C4F20201086820F080505B
:103630000860FFE7FFE70498C069002800F0B38046
:10364000FFE741F20400C4F20200006800F00C0041
:10365000082800F08280FFE70498C06902285CD146
:10366000FFE76021C4F2422100200860FFF73AFA28
:103670000390FFE741F20000C4F2020000688001FD
:1036800000280CD5FFE7FFF72DFA0399401A03280D
:1036900004D3FFE703208DF8170088E0EAE70498D9
:1036A000006AB0F5803F0CD1FFE741F20401C4F29B
:1036B0000201086820F40030049A92681043086000
:1036C000FFE741F20401C4F20201086820F474101B
:1036D000049B1A6A5B6A1A43104308606021C4F2B3
:1036E000422101200860FFF7FDF90390FFE741F256
:1036F0000000C4F202000068800100280CD4FFE73B
:10370000FFF7F0F90399401A032804D3FFE70320D9
:103710008DF817004BE0EAE71EE06021C4F2422179
:1037200000200860FFF7DEF90390FFE741F2000098
:10373000C4F202000068800100280CD5FFE7FFF703
:10374000D1F90399401A032804D3FFE703208DF829
:1037500017002CE0EAE7FFE724E00498C06901289D
:1037600004D1FFE701208DF8170020E041F20400AA
:10377000C4F2020000680290029800F480300499BC
:10378000096A884208D1FFE7029800F47010049992
:10379000496A884204D0FFE701208DF8170006E04F
:1037A000FFE7FFE7FFE700208DF81700FFE79DF830
:1037B000170006B080BD000080B584B0029002986A
:1037C00020B9FFE701208DF80F006DE00298406AF4
:1037D00060B9FFE702984068B0F5827F01D1FFE74A
:1037E00003E002990020C861FFE705E0029900208C
:1037F000086102994861FFE70299002088620298F7
:1038000090F8510040B9FFE70299002081F850007C
:10381000029800F04DF8FFE70299022081F851006C
:1038200002980168086820F040000860029A01923E
:1038300011685068D2F808C0D36800F482700CF4A4
:10384000044C604403F400631844136903F002035A
:103850001844536903F001031844936903F4007397
:103860001844D36903F038031844136A03F0800343
:103870001843926A02F40052104308600299488B80
:1038800000F004000968486002980168C86920F4E3
:103890000060C861029900204865029A012182F8FF
:1038A00051108DF80F00FFE79DF80F0004B080BDA8
:1038B00080B58CB00B9000200A900990089007907A
:1038C0000B98006843F60001C4F2000188425ED103
:1038D000FFE7FFE741F21C00C4F20200016841F477
:1038E00080410160006800F4804006900698FFE780
:1038F000FFE741F21800C4F20200016841F008013C
:103900000160006800F0080005900598FFE74FF49B
:10391000204007900220089003200A9040F60040C3
:10392000C4F20100019007A90291FEF733FF01984C
:1039300002994FF480420792002203920892099262
:10394000FEF728FF039940F2C010C2F20000049075
:103950004422C4F202020260416081608022C2609F
:103960000161416120228261C161FEF755FE18B1FB
:10397000FFE7FEF777F8FFE7FFE70B9840F2C0118B
:10398000C2F20001C1640B984862FFE7FFE70CB088
:1039900080BD000080B582B00190019800F07EFDEE
:1039A00002B080BD81B0009001B0704781B000903E
:1039B00001B0704785B003900291FFE7039890F83B
:1039C0003C00012804D1FFE702208DF813005BE0E2
:1039D0000399012081F83C00FFE7FFE703990220EB
:1039E00081F83D00039800684068019003980068E2
:1039F00080680090019820F07000019002980168A2
:103A00000198084301900198039909684860039858
:103A1000006842F60041C4F20101884218D0FFE775
:103A200003980068B0F1804F12D0FFE70398006858
:103A300040F20041C4F20001884209D0FFE7039838
:103A4000006840F60001C4F2000188420ED1FFE791
:103A5000009820F080000090029841680098084388
:103A600000900098039909688860FFE70399012096
:103A700081F83D00FFE70399002081F83C00FFE753
:103A800000208DF81300FFE79DF8130005B0704784
:103A900080B582B00090009820B9FFE701208DF832
:103AA00007003FE0009890F83D0040B9FFE700991B
:103AB000002081F83C00009800F038F8FFE70099FA
:103AC000022081F83D00009951F8040B00F066FDDA
:103AD0000099012081F84600FFE70099012081F854
:103AE0003E00009981F83F00009981F8400000995C
:103AF00081F84100FFE7FFE70099012081F84200CB
:103B0000009981F84300009981F84400009981F8F8
:103B10004500FFE70099012081F83D0000208DF865
:103B20000700FFE79DF8070002B080BD80B584B0B4
:103B3000039003980068B0F1804F19D1FFE7FFE7C9
:103B400041F21C00C4F20200016841F00101016071
:103B5000006800F0010002900298FFE71C2001902D
:103B600000221146FFF75AF80198FFF74DF8FFE7DA
:103B700004B080BD80B586B00490039100208DF81C
:103B80000B00FFE7049890F83C00012804D1FFE700
:103B900002208DF81700ABE00499012081F83C0069
:103BA000FFE7FFE70499022081F83D0004980068D0
:103BB00080680190019820F077000190019820F42E
:103BC0007F40019001980499096888600398006813
:103BD0000090002872D0FFE7009810286ED0FFE711
:103BE000009820286AD0FFE70098302866D0FFE7C9
:103BF0000098402855D0FFE70098502837D0FFE7BD
:103C00000098602840D0FFE7009870280BD0FFE7AD
:103C10000098B0F5805F05D0FFE70098B0F5005F31
:103C200016D052E055E004980068039B5A689968E2
:103C3000DB6800F037FD0498006880680190019807
:103C400040F077000190019804990968886040E08D
:103C500004980068039B5A689968DB6800F022FDAD
:103C600004980168886840F48040886031E00498D6
:103C70000068039A5168D26800F044FD0498006817
:103C8000502100F029FD24E004980068039A51684F
:103C9000D26800F05FFD04980068602100F01CFD10
:103CA00017E004980068039A5168D26800F02AFD72
:103CB00004980068402100F00FFD0AE004980068B5
:103CC0000399096800F008FD03E001208DF80B005E
:103CD000FFE70499012081F83D00FFE704990020E7
:103CE00081F83C00FFE79DF80B008DF81700FFE717
:103CF0009DF8170006B080BD80B586B00490039192
:103D0000049820B9FFE701208DF8170084E004989B
:103D100090F83D0040B9FFE70499002081F83C008D
:103D2000049800F07DF8FFE70499022081F83D0037
:103D300004980168886844F20702904388600499F7
:103D400051F8040B00F02AFC049800688068029087
:103D5000049800688069019004980068006A0090E7
:103D600003980168029808430290019840F20331D9
:103D70008843019003998868896940EA0121019884
:103D800008430190019840F60C4188430190019846
:103D90004FF2F001884301900399C868C96940EA6D
:103DA000012101980843019003990869096A0001FB
:103DB00040EA0131019808430190009820F0220068
:103DC000009003994868496940EA01110098084346
:103DD000009002980499096888600198049909681C
:103DE000886100980499096808620499012081F8A3
:103DF0004600049981F83E00049981F83F00049937
:103E000081F84200049981F84300049981F83D004B
:103E100000208DF81700FFE79DF8170006B080BD61
:103E200080B588B00790002006900590049003901C
:103E30000798006840F20041C4F2000188422BD18B
:103E4000FFE7FFE741F21C00C4F20200016841F005
:103E500002010160006800F0020002900298FFE792
:103E6000FFE741F21800C4F20200016841F00401CA
:103E70000160006800F0040001900198FFE7C02095
:103E8000039000200490059040F60000C4F2010069
:103E900003A9FEF77FFCFFE708B080BD81B000906A
:103EA00001B0704780B584B0039003980068C06883
:103EB000029003980068006901909DF80400800753
:103EC000002824D5FFE79DF80800800700281DD5AD
:103ED000FFE7039801686FF0020008610399012071
:103EE0000877039800688069800720B1FFE703988E
:103EF000FFF7D4FF06E0039800F0E2F8039800F023
:103F0000E3F8FFE7039900200877FFE7FFE79DF854
:103F100004004007002825D5FFE79DF8080040076A
:103F200000281ED5FFE7039801686FF004000861C0
:103F300003990220087703980068806910F4407F95
:103F400004D0FFE70398FFF7A9FF06E0039800F00D
:103F5000B7F8039800F0B8F8FFE703990020087756
:103F6000FFE7FFE79DF804000007002824D5FFE7DE
:103F70009DF80800000700281DD5FFE70398016899
:103F80006FF008000861039904200877039800681F
:103F9000C069800720B1FFE70398FFF77FFF06E0C5
:103FA000039800F08DF8039800F08EF8FFE703996E
:103FB00000200877FFE7FFE79DF80400C00600280F
:103FC00025D5FFE79DF80800C00600281ED5FFE7AD
:103FD000039801686FF010000861039908200877C2
:103FE00003980068C06910F4407F04D0FFE703988D
:103FF000FFF754FF06E0039800F062F8039800F022
:1040000063F8FFE7039900200877FFE7FFE79DF8D3
:104010000400C00778B1FFE79DF80800C00748B169
:10402000FFE7039801686FF001000861039800F052
:104030004FF8FFE7FFE79DF804000006002810D5C1
:10404000FFE79DF808000006002809D5FFE7039860
:1040500001686FF0800008610398FFF7A3FCFFE799
:10406000FFE79DF804004006002810D5FFE79DF803
:1040700008004006002809D5FFE7039801686FF0A3
:1040800040000861039800F027F8FFE7FFE79DF87C
:1040900004008006002810D5FFE79DF80800800680
:1040A000002809D5FFE7039801686FF02000086138
:1040B0000398FFF77BFCFFE7FFE704B080BD00003B
:1040C00081B0009001B0704781B0009001B070479E
:1040D00081B0009001B0704781B0009001B070478E
:1040E000FFE7FEE780B584B00021039102910191C2
:1040F00040F24C10C2F20000009042F20042C4F2C2
:10410000010202604FF48072826001220273017525
:104110004FF46022C261416002210161FDF7B4FEEB
:1041200018B1FFE7FDF79EFCFFE701200190029028
:104130000720039040F24C10C2F2000001A9FDF7E5
:1041400099FC18B1FFE7FDF78DFCFFE70220019015
:10415000029040F24C10C2F2000001A9FDF78AFC67
:1041600018B1FFE7FDF77EFCFFE704B080BD00005B
:1041700080B584B0FFE741F21400C4F20200016888
:1041800041F001010160006800F001000390039814
:10419000FFE70B200090002201921146FEF73EFD42
:1041A0000098FEF731FD019A0E2002901146FEF7AD
:1041B00035FD0298FEF728FD04B080BD80B58CB0B7
:1041C00000200B900A9009900890FFE741F2180038
:1041D000C4F20200016841F020010160006800F0B3
:1041E000200007900798FFE7FFE741F21800C4F2AC
:1041F0000200016841F004010160006800F0040061
:1042000006900698FFE7FFE741F21800C4F20200AB
:10421000016841F008010160006800F008000590A5
:104220000598FFE740F60040C4F20100039041F614
:10423000FB4100220192FEF73DFC019820210891EC
:1042400009900A9040F60000C4F2010008A9049108
:10425000FEF7A0FA03980499FB220892012200922B
:10426000099202220A92032202920B92FEF792FA1C
:10427000DDF800C0019B029A039804994FF4E05EB8
:10428000CDF820E0CDF824C00A930B92FEF782FA15
:104290000CB080BD80B582B040F20420C2F20000B4
:1042A000019043F60001C4F2000101604FF48271F5
:1042B000416000218160C160016141614FF4007281
:1042C00082611822C2610162416281620A21C16277
:1042D000FFF772FA18B1FFE7FDF7C4FBFFE702B082
:1042E00080BD000080B588B0002101910791069142
:1042F000059104910391029140F25C20C2F200000A
:104300004FF080420260416081604FF6FF72C260F0
:1043100001618161FFF7BCFB18B1FFE7FDF7A2FB6C
:10432000FFE74FF48050049040F25C20C2F200009E
:1043300004A9FFF71FFC18B1FFE7FDF793FBFFE7A8
:1043400000200290039040F25C20C2F2000002A91B
:10435000FFF730FB18B1FFE7FDF784FBFFE708B07C
:1043600080BD000080B58EB005A801902421FBF728
:10437000B7FF0199002202920492039240F2A42016
:10438000C2F2000040F20043C4F200030360426046
:1043900082604FF6FF73C36002618261032305935D
:1043A000069201230793089209920A920B930C92AA
:1043B0000D92FFF7A1FC18B1FFE7FDF753FBFFE7F4
:1043C00000200390049040F2A420C2F2000003A950
:1043D000FFF7F0FA18B1FFE7FDF744FBFFE70EB077
:1043E00080BD0000FFE7FEE7FFE7FEE788B007902B
:1043F00006910592079800F0070004900498C0F118
:104400000700052803D3FFE70420019004E0049887
:10441000C0F107000190FFE7019803900498043071
:10442000062803D8FFE70020009003E00498033833
:104430000090FFE70098029006980399012202FA83
:1044400001F101390840029B984005999A40013AD0
:104450001140084308B070477047000082B00190D7
:10446000019840F20001C2F200010968C90844F64F
:10447000D352C1F26202A1FB022189094843009094
:10448000FFE700BFFFE70098411E00910028F8D128
:10449000FFE702B0704700007047000080B582B0AF
:1044A000009000980138B0F1807F03D3FFE701202E
:1044B000019019E0009801384EF21401CEF200018B
:1044C00008604FF0FF300F2100F0C0F94EF21801E4
:1044D000CEF20001002008604EF21002CEF200027F
:1044E000072111600190FFE7019802B080BD000034
:1044F00080B5FEF7FDFA80BD80B596B00CA801909E
:104500002821FBF7EDFE0198002302930B930A93F9
:104510000993089307930693059304930393012249
:104520000C924FF480310D910E931092022213924F
:1045300014914FF4E0111591FEF700FE18B1FFE75A
:10454000FDF790FAFFE70F20079002210891002065
:1045500009904FF480620A920B9007A8FEF764FC62
:1045600018B1FFE7FDF77EFAFFE7022003904FF452
:104570000040059003A8FEF773FB18B1FFE7FDF7B5
:1045800071FAFFE716B080BD7047000080B540F2B9
:104590005C20C2F20000FFF785FC80BD83B0029072
:1045A0000191029800680090029842F60041C4F21E
:1045B0000101884215D0FFE70298B0F1804F10D07A
:1045C000FFE7029840F20041C4F20001884208D09F
:1045D000FFE7029840F60001C4F2000188420AD1C8
:1045E000FFE7009820F07000009001984168009863
:1045F00008430090FFE7029842F60041C4F201012F
:10460000884215D0FFE70298B0F1804F10D0FFE745
:10461000029840F20041C4F20001884208D0FFE74E
:10462000029840F60001C4F2000188420AD1FFE777
:10463000009820F4407000900198C16800980843E9
:104640000090FFE7009820F0800001994969084335
:104650000090009802990860019880680299C862E9
:104660000198006802998862029842F60041C4F2FB
:104670000101884205D1FFE70198006902990863AA
:10468000FFE702990120486102980069C00730B134
:10469000FFE70299086920F001000861FFE703B015
:1046A0007047000085B00490039102920193049832
:1046B00080680090009820F47F4000900398029951
:1046C000019A41EA022101430098084300900098B2
:1046D0000499886005B0704783B0029001910298F8
:1046E00080680090009820F0700000900198009978
:1046F000084340F00700009000980299886003B0DA
:104700007047000085B00490039102920498006AFB
:1047100000900499086A20F00100086204988069FA
:104720000190019820F0F00001900299019840EA70
:1047300001100190009820F00A0000900399009861
:1047400008430090019804998861009804990862D0
:1047500005B0704785B00490039102920498006AF6
:1047600000900499086A20F010000862049880699B
:104770000190019820F4704001900299019840EA5C
:1047800001300190009820F0A0000090039900985B
:1047900040EA0110009001980499886100980499FA
:1047A000086205B070470000FFE7FEE781B00090A7
:1047B00040F20000C2F20000006841F6F111C0F2C0
:1047C0007651A0FB011080090099484300900098A1
:1047D000401EFDD1009001B07047000081B00090F4
:1047E00040F20000C2F20000006849F68171C1F297
:1047F0005E61A0FB0110800C009948430090009876
:10480000401EFDD1009001B07047000081B08DF8CE
:1048100003009DF9030000280ED4FFE79DF9031063
:1048200001F01F02012090404A094EF20011CEF221
:10483000000141F82200FFE701B070474EF60C502E
:10484000CEF200000068C0F30220704782B08DF8FD
:10485000070000919DF9070000280AD4FFE700989F
:1048600000019DF907104EF20042CEF2000288547A
:104870000BE0009800019DF8071001F00F014EF6C3
:104880001452CEF200028854FFE702B070470000D5
:1048900083B00290029800F0070000904EF60C5191
:1048A000CEF200010868019001984FF6FF02104017
:1048B00001900198009A40EA02200022C0F2FA52C8
:1048C000104301900198086003B0704780B590B024
:1048D000002007900F90FEF719F9FFF70DFEFFF784
:1048E0006DFCFFF745FCFFF7FDFBFFF7FBFCFFF757
:1048F00039FDFFF7CFFC40F24C10C2F2000040F24D
:104900008401C2F200016422FDF72EFC1020022176
:10491000FCF7D4FEFCF784FEFEF7E4F801460798A6
:1049200009918DF82300FFE740F2EC20C2F200006D
:104930000078002849D0FFE7FEF7D4F8099901F57F
:10494000FA71884241D9FFE7FEF7CCF8099040F2AE
:10495000EC20C2F200000021039101700846FCF730
:1049600067FE40F27800C2F20000006801F032F900
:104970000A4669464A60086046F24A52C0F600029A
:1049800004920AA806900D210591FBF789FC069870
:10499000FCF75EFF03980121FCF74AFE40F27C0021
:1049A000C2F20000006801F015F9049A0346069867
:1049B0008E460599EC46CCF804E0CCF80030FBF7C5
:1049C0006FFC0698FCF744FFFFE7ADE75FEA400C99
:1049D00008BF91F0000F4FEA8C234FEAC12243EA4F
:1049E00051514FEA1C5018BF00F5F0404FEA30001B
:1049F00018BF41F000415FEA6C5C00F02980BCF117
:104A0000FF3F08BF40F080407047130C06BF120400
:104A10004FF0100C4FF0000C130E04BF12020CF1FB
:104A2000080C130F04BF12010CF1040C930F04BF08
:104A300092000CF1020CD30F04BF52000CF1010CD8
:104A400011464FF00002A0F11F00A0EB0C007047D0
:104A500011F0004F08BF704731F000413FF4D5AF6F
:104A60000B0C06BF09044FF0100C4FF0000C0B0E9E
:104A700004BF09020CF1080C0B0F04BF09010CF173
:104A8000040C8B0F04BF89000CF1020CCB0F04BF88
:104A900049000CF1010CCCF1200322FA03F341EAA6
:104AA000030102FA0CF2A0EB0C0000F101007047C8
:104AB00023F07F4720F07F4C80EA030000F00040A5
:104AC000ACEB070303F57C5303F1FF032DE98049A9
:104AD00009B44FEA144324EA03484FEA154B25EA88
:104AE0000B4E0FF2042606EB13273E7803FB0667F6
:104AF000C7F5000707FB06F64FEAD64606F10206A1
:104B00004FEA543707FB066CCCF1005C4FEA1C47B8
:104B10002CEA074C0CFB06F507FB06F404EB1546E4
:104B20004FEA961649085FEA320234BF00204FF080
:104B300000404FEAD13706FB07FC4FEA1C4C0CFB48
:104B40000BF7D21B03FB0CF761EB07010CFB0EF715
:104B5000B0EB074072EB17420CFB08F734BFA2EB37
:104B60000742B2EB074261EB17414FEA0C444FEAB0
:104B7000910706FB07FC4FEA1C4C0CFB0BF7B0EB54
:104B8000C74072EB573203FB0CF734BFA2EBC742AE
:104B9000B2EBC74261EB57310CFB0EF7B0EBC7002D
:104BA00072EB57720CFB08F734BFA2EBC702B2EBF3
:104BB000C70261EB57714FEA816141EA92114FEAF6
:104BC000826242EA90124FEA806004EBCC04039FB9
:104BD0004FEAD13706FB07FC4FEA1C4C0CFB0BF7E6
:104BE000D21B03FB0CF761EB07010CFB0EF7B0EBDC
:104BF000074072EB17420CFB08F734BFA2EB0742E9
:104C0000B2EB074261EB17414FEA8C5504EB9C2451
:104C10004FEA910706FB07FC4FEA1C4C0CFB0BF715
:104C2000B0EBC74072EB573203FB0CF734BFA2EB7B
:104C3000C742B2EBC74261EB57310CFB0EF7B0EB4A
:104C4000C70072EB57720CFB08F734BFA2EBC70228
:104C5000B2EBC70261EB57714FEA816141EA9211F1
:104C60004FEA826242EA90124FEA806015EB4C25CF
:104C700044F100044FEAD13706FB07FC4FEA1C4C15
:104C80000CFB0BF7D21B03FB0CF761EB07010CFBD2
:104C90000EF7B0EB074072EB17420CFB08F734BF7E
:104CA000A2EB0742B2EB074261EB17414FEA8131B9
:104CB00041EA92414FEA823242EA90424FEA803022
:104CC0004FEA0C7615EB1C1544F1000448EA034347
:104CD0004EEA0B484FF0000EB2EB080C71EB0307E5
:104CE00024BF624639464EEB0E0E4FF0000B001803
:104CF000524149414BEB0B0BB2EB080C71EB030734
:104D00007BF1000B24BF624639464EEB0E0E4FF08E
:104D1000000B0018524149414BEB0B0BB2EB080C56
:104D200071EB03077BF1000B24BF624639464EEB63
:104D30000E0E51EA020718BF46F0010616EB0E767A
:104D400055F1000254F1000103D5BDE88901BDE829
:104D50000088BDE88901BDE80048B619524141EB21
:104D60000101A3F10103704780807F7E7D7C7B7A07
:104D70007978777676757473727171706F6E6E6D07
:104D80006C6C6B6A6A6968686766666564646363AD
:104D900062616160605F5F5E5E5D5D5C5C5B5B5A33
:104DA0005A595958585757565655555554545353A0
:104DB00052525251515050504F4F4F4E4E4D4D4DFB
:104DC0004C4C4C4B4B4B4A4A4A4949494848484746
:104DD0004747474646464545454444444443434384
:104DE00043424242424141419C46002B30D477002D
:104DF0002BD04FEA37071CB503B44FF010004FF02B
:104E00001001BAF1000F06D0BCF1000FDCBF40F07A
:104E1000080040F008014FF000000FBCBDE8104052
:104E20000BF1010BBBF1010F08BF5FEA170722BFAF
:104E300012F1010211F101014FF0004143F10003B1
:104E400000F0004043EA00007047F9D35708D0E76C
:104E500046EA06464FEA164613F1400F1FDD13F1EE
:104E6000200FDFBF16430A46002120335B42BED02D
:104E7000C3F1200746EA06464FEA164602FA07F74C
:104E800046EA070622FA03F2C3F1200701FA07F700
:104E900042EA070221FA03F14FF00003A7E746EACE
:104EA000020646EA06464FEA164646EA0106BCBF37
:104EB00046EA0646360C4FF000034FF000024FF072
:104EC000000194E72DE9804C70B49A46934691E82E
:104ED000380007C831EA400C48BF34EA430C03D518
:104EE000FFF7E6FDFFF780FFF0BCBDE8008C2DE981
:104EF000804C70B49A46934691E8380007C810F089
:104F0000804F08BF13F0804F03D100F005F8FFF782
:104F10006BFFF0BCBDE8008C20F07F4723F07F4C96
:104F200080EA030000F0004007EB0C03A3F57C537C
:104F3000A3F1FE0392F0000F00F0B38095F0000F94
:104F400000F077802DE901494FEA114021EA00483D
:104F50004FEA144624EA064700FB06FC08FB06F667
:104F600007FB08F818EB06484CEB164C00FB07F75C
:104F700018EB07484CEB17404FEA124B22EA0B4E56
:104F80004FEA154625EA06470BFB06FC0EFB06F624
:104F900007FB0EFE1EEB064E4CEB164C0BFB07F709
:104FA0001EEB074E4CEB174B18EB0B0840F10000C3
:104FB00018EB0E0B58EB000840F100008F1A4FF071
:104FC00000014FF000063CBFC943661B14BFB5EBA0
:104FD000040C00213CBFC943F61B4FEA174427EAE3
:104FE00004454FEA1C472CEA074C04FB076205FB0B
:104FF00007F70CFB05F616EB074642EB174204FBDE
:105000000CFC16EB0C4642EB1C421BEB060658EB65
:10501000020241414EEA8E0E46EA9E0601D5BDE8E7
:105020000189B619524141EB0101A3F10103BDE829
:1050300001894FEA144524EA05464FEA114721EA5F
:10504000074C05FB07F406FB07F70CFB06F111EB19
:10505000074144EB174405FB0CFC11EB0C4144EBFE
:105060001C444FEA124722EA074C05FB07F206FBF5
:1050700007F70CFB06F616EB074642EB174205FB5B
:105080000CFC16EB0C4642EB1C456A1854F100016F
:1050900048BF7047B619524141EB0101A3F101032A
:1050A000704795F0000F37D04FEA114221EA0246CF
:1050B0004FEA144724EA074C02FB07F106FB07F707
:1050C0000CFB06F414EB074441EB174102FB0CFC0C
:1050D00014EB0C4441EB1C414FEA154725EA074C01
:1050E00002FB07F506FB07F70CFB06F616EB074677
:1050F00045EB174502FB0CFC16EB0C4645EB1C423E
:10510000121951F1000148BF7047B619524141EBE5
:105110000101A3F1010370474FEA144524EA054653
:105120004FEA114721EA074C05FB07F106FB07F799
:105130000CFB06F212EB074241EB174105FB0CFC9E
:1051400012EB0C4251EB1C414FF0000648BF704778
:10515000921841EB0101A3F101037047490050EAA5
:10516000C12018BF04204A0D18BF40F0010040F2D2
:10517000FF72B2EB515F08BF40F00200012808BF88
:105180000520704700214FF07E5000F0EDBD012159
:1051900001F0EBB80021084600F0E6BD30380A28DF
:1051A00001D2012070470020704700002DE9F04136
:1051B0000026A0F50001B1F1FE4F7DD200F50022DE
:1051C0006FF07E0101EBE251C2F3025477184FF009
:1051D0007E52A0EBC15602EB045557EA040047D0BB
:1051E0002946304600F022FD80462946304601F02F
:1051F00011F8414600F0B8FD0546014600F03EFFBB
:105200008046454900F03AFF444900F00FFD06464C
:105210004146284600F032FF314600F02FFF064697
:10522000384600F097FE07463D4900F027FF3D490C
:10523000794451F8241000F0F9FC314600F0F6FCF6
:1052400006460121284601F090F8314600F0EEFCB8
:1052500005463846344900F011FF3449794451F885
:10526000241000F0E3FC2946BDE8F04100F0DEBC6C
:105270004FF07E51304600F0CDFF05462C4900F03E
:10528000FDFE2C4900F0D2FC294600F0F7FE2A4929
:1052900000F0CCFC294600F0F1FE6FF0824100F0F6
:1052A000C5FC04462946084600F0E8FE214600F009
:1052B000E5FE0146284600E003E0BDE8F04100F0CD
:1052C000B5BC4FF07F42B2EB400F03D2BDE8F041D6
:1052D000FFF75DBFB0F1FF4F08BFBDE8F081B0F14F
:1052E000004F06D90120FBF72AF8BDE8F041FFF78F
:1052F00051BF30F0004105D06FF01606172101F0C4
:1053000034F85BE70220FBF71AF8FFF73BFF80F069
:105310000040BDE8F081000066F1CC3EAAAA2A3F19
:10532000F4FD0538D41100000070313F88110000F1
:1053300021ED423E0A1180BEC1ABAA3E10B5002944
:105340000AD00878002807D005487844FCF722F8EE
:10535000002801D0002010BD0248784410BD000094
:105360002E1200002612000010B500290AD008787D
:10537000002807D005487844FCF70CF8002801D035
:10538000002010BD0248784410BD00001E1200002D
:105390001612000021F0004201F00043A2F1605219
:1053A000B2F5801F28BFD2F17F6C0BD95FEA001CD9
:1053B00043EAC20242EB507018BF704728BF20F08A
:1053C00001007047B2F5801FBCBF184670474FEA16
:1053D000410C1CF5001F02D2084600F016BF70B544
:1053E00000F0B6FA00000089FFF7F6BF4FF000406A
:1053F000A0F580007047000010B591EA030F48BF88
:1054000083F0004300F10083841A71EB030C05D292
:10541000121943EB0C03001B61EB0C014FEA115412
:10542000A4EB135CDFF81CE11EEA430F18BF9EEAF1
:10543000445F00F0748021EA045123EA0E0343F430
:105440008013DCF1200E32D322FA0CFE10EB0E009A
:1054500023FA0CFE41EB0E01CCF1200E03FA0EFEF6
:1054600010EB0E00CCF1200E51F10001B1F5801FC0
:1054700032D201EB045112FA0EF2BDE8104058BFCF
:105480007047401C38BF5FEA420218BF70470028CF
:1054900014BF20F0010041F100014FEA410313F570
:1054A000001F38BF7047A1F1C04100F09FBA012A28
:1054B00043EB0302ACF1200CDCF11F0E32BF4FF0C6
:1054C000000E23FA0CF310EB030041EB0451B4EB94
:1054D000115FD0D0A1EB045101F58011490801EB17
:1054E00004515FEA30000ED350F1000038BF12FAC9
:1054F0000EFE08D1BDE81040C9E7401C38BF5FEA86
:105500004202CAD1C3E7BDE810404FEA410313F598
:10551000001F38BF7047A1F1C04100F067BA9EEA92
:10552000445F08D011EA5E0FBDE8104004BF01F0EF
:10553000004100207047BDE8104070B500F008FA47
:1055400064FBBE3E0000E0FF2DE9C04130B4DFF84F
:10555000A4C23CEA111418BF3CEA131400F0ED8019
:105560001CEA111481EA030544EAD57418BF1CEA49
:10557000131500F0C880A4EB050404F17F7404F552
:1055800000344FF0004545EAC12145EAC32341EA12
:10559000505143EA52534FEAC0204FEAC222994287
:1055A00008BF904200F09D804FEA13650FF2441649
:1055B000765D4FEA134506FB05F7C7F1807706FBDA
:1055C00007F74FEAD737A7FB03687642A7FB06CE5B
:1055D000C8F5803838BFA8F1010807FB08E6A6FB2C
:1055E000028C4FF0000EE6FB03CEDCF1000CCEF196
:1055F000004E38BFAEF1010EA6FB0C584FF000076D
:10560000E6FB0E87A1FB08C6A0FB07CE16EB0E0635
:105610004FF0000545F10005E1FB076515F1E04E8F
:105620007EBFA4F580345FEA46066D4116F180071F
:1056300045F100054FEA172747EA05674FEA1525A8
:105640004FEA0666A6F1DE46B6F1805F20D93846FD
:1056500005EBC47124F0010C01EB0C11BCF1FE6FE1
:1056600002D8F0BCBDE8008124425CBF01F5801E79
:105670009EEAC47F02D4F0BCBDE80081244200F160
:105680003980A1F1C041F0BCBDE8004100F0AEB9E5
:105690004FEAD02040EA41504FEAD1214FEAD222CE
:1056A00042EA43524FEAD323A7FB028607FB036675
:1056B00005FB02661EEA0E0F58BFA6EB0056B6EBBE
:1056C00000564FEA520E4EEAC37E18EB0E0E56EB12
:1056D000530EBCD518EB02085E417F1C55F1000546
:1056E000B5E74FF480154FF000074FF000064FF07C
:1056F0000008ACE701F1C04101F000414FF00000AB
:10570000F0BCBDE800810CEA131511EA0C1F00D0B3
:105710000CE013EA0C1F00F026804FF0000081EA35
:10572000030101F00041F0BCBDE80081F0BCBDE820
:10573000004181EA030100F059B9F0BCBDE8004125
:1057400070B500F005F900BF097EFC3E00F007B817
:105750004FF0000081EA030101F00041704781EA47
:10576000030100F043B9F0BCBDE8004122494FF00D
:1057700000007047FFFDFBF9F7F5F4F2F0EEEDEBFA
:10578000E9E8E6E4E3E1E0DEDDDBDAD8D7D5D4D33F
:10579000D1D0CFCDCCCBCAC8C7C6C5C4C2C1C0BF8B
:1057A000BEBDBCBBBAB9B8B7B6B5B4B3B2B1B0AF91
:1057B000AEADACABAAA9A8A8A7A6A5A4A3A3A2A175
:1057C000A09F9F9E9D9C9C9B9A9999989797969530
:1057D00095949393929191908F8F8E8E8D8C8C8BCC
:1057E0008B8A898988888787868585848483838254
:1057F000828181800000FF070000F87F70B5DFF82C
:1058000048C11CEA111E1EBF1CEA13159EEA0C0FAC
:1058100095EA0C0F00F06F8081EA03044EEAD47E13
:10582000AE4421EA4C1123EA4C1341F4801143F4B5
:105830008013AEF17F7EA1FB024CA0FB03653619FD
:1058400055EB0C05A1FB034C4CF10003A0FB021C23
:1058500016EB0C06654153F10003094218BF46F0F0
:10586000010613F4007F0BD14FEA03314FEA0530F4
:1058700041EA155140EA165034036FF003020AE082
:105880004FEAC3214FEAC52041EA555140EA56503C
:10589000F4026FF0020202EB2E4201EB025585EAA0
:1058A000CE710AD05FEA440C18BF24F0004450F1D6
:1058B000000041F1000120EAD47040F2FE7C624514
:1058C00000D270BDA84214BF4FF080444FF0404456
:1058D000002E08BF0024BEF1806FA8BFA1F1C04117
:1058E000BDE8704080F2828001F1C04101F00041CA
:1058F0004FF0000070470CEA13159EEA0C0F18BF1A
:1059000095EA0C0F06D081EA030E4FF000000EF06E
:10591000004170BD00F01CF88900013E00F007B89E
:1059200000F009B84FEA430C5FEA5C5C08D081EAFA
:10593000030100F05BB84FEA410C5FEA5C5CF6D112
:1059400002494FF0000070470000FF070000F87F99
:105950000EF1020E2EF0030E5EF8046B364205D4F3
:10596000012A43EB030515F5001F12D8012841EB6E
:10597000010C1CF5001F0CD80ED14FEAD17C0CEBAA
:105980004C0C0CF1020C15F5001F08BF4CEBD37C3E
:1059900004E04FF0080C01E04FEAD37C0CEB4C051F
:1059A00026FA05F606F00706B6F1040C06D20EEB51
:1059B000860CBDE870404CF0010C6047DFE80CF04D
:1059C000090B02024FF00041A1F500214FF0000049
:1059D00070BD19461046012851EB010418BFD4F5DB
:1059E000001484BF002001F0004170BD0808A0F53C
:1059F00000114FEA3101704710B591EA030F48BF1B
:105A000083F000433FF500AD841A71EB030C07D21D
:105A10008CF0004C121943EB0C03001B61EB0C01E2
:105A20004FEA1154A4EB135CDFF8A4E11EEA430F24
:105A300018BF9EEA445F00F0B48021EA045123EAD3
:105A40006E035242C3EB6E0338BF5B1EDCF1200EC7
:105A500025D322FA0CFE10EB0E0043FA0CFE41EBAC
:105A60000E01CCF1200E03FA0EFE10EB0E00CCF16D
:105A7000200E51F1000129D401EB045112FA0EF26B
:105A8000BDE8104058BF7047401C1CBFB2F1004F2A
:105A9000704700280CBF491C20F00100704712EB32
:105AA000020E43EB030218BF4FF0010E4EEA420212
:105AB000ACF1200CDCF11E0E56D943FA0CFE10EBB3
:105AC0000E00CCF11E0E51F1FF31D5D50EF1010EB5
:105AD00012FA0EFE404141EB010101EB445C5FEA2A
